{
	"contract/new_contract.sol": {
		"ERC20": {
			"abi": [
				{
					"inputs": [
						{
							"internalType": "string",
							"name": "name_",
							"type": "string"
						},
						{
							"internalType": "string",
							"name": "symbol_",
							"type": "string"
						}
					],
					"stateMutability": "nonpayable",
					"type": "constructor"
				},
				{
					"anonymous": false,
					"inputs": [
						{
							"indexed": true,
							"internalType": "address",
							"name": "owner",
							"type": "address"
						},
						{
							"indexed": true,
							"internalType": "address",
							"name": "spender",
							"type": "address"
						},
						{
							"indexed": false,
							"internalType": "uint256",
							"name": "value",
							"type": "uint256"
						}
					],
					"name": "Approval",
					"type": "event"
				},
				{
					"anonymous": false,
					"inputs": [
						{
							"indexed": true,
							"internalType": "address",
							"name": "account",
							"type": "address"
						}
					],
					"name": "AskedForRecovery",
					"type": "event"
				},
				{
					"anonymous": false,
					"inputs": [
						{
							"indexed": true,
							"internalType": "address",
							"name": "account",
							"type": "address"
						}
					],
					"name": "Recovered",
					"type": "event"
				},
				{
					"anonymous": false,
					"inputs": [
						{
							"indexed": true,
							"internalType": "address",
							"name": "account",
							"type": "address"
						},
						{
							"indexed": false,
							"internalType": "bytes32",
							"name": "registrationHash",
							"type": "bytes32"
						}
					],
					"name": "Registered",
					"type": "event"
				},
				{
					"anonymous": false,
					"inputs": [
						{
							"indexed": true,
							"internalType": "address",
							"name": "from",
							"type": "address"
						},
						{
							"indexed": true,
							"internalType": "address",
							"name": "to",
							"type": "address"
						},
						{
							"indexed": false,
							"internalType": "uint256",
							"name": "value",
							"type": "uint256"
						}
					],
					"name": "Transfer",
					"type": "event"
				},
				{
					"inputs": [
						{
							"internalType": "address",
							"name": "owner",
							"type": "address"
						},
						{
							"internalType": "address",
							"name": "spender",
							"type": "address"
						}
					],
					"name": "allowance",
					"outputs": [
						{
							"internalType": "uint256",
							"name": "",
							"type": "uint256"
						}
					],
					"stateMutability": "view",
					"type": "function"
				},
				{
					"inputs": [
						{
							"internalType": "address",
							"name": "spender",
							"type": "address"
						},
						{
							"internalType": "uint256",
							"name": "amount",
							"type": "uint256"
						}
					],
					"name": "approve",
					"outputs": [
						{
							"internalType": "bool",
							"name": "",
							"type": "bool"
						}
					],
					"stateMutability": "nonpayable",
					"type": "function"
				},
				{
					"inputs": [
						{
							"internalType": "address",
							"name": "account",
							"type": "address"
						}
					],
					"name": "askForRecovery",
					"outputs": [],
					"stateMutability": "nonpayable",
					"type": "function"
				},
				{
					"inputs": [
						{
							"internalType": "address",
							"name": "account",
							"type": "address"
						}
					],
					"name": "balanceOf",
					"outputs": [
						{
							"internalType": "uint256",
							"name": "",
							"type": "uint256"
						}
					],
					"stateMutability": "view",
					"type": "function"
				},
				{
					"inputs": [],
					"name": "corporation",
					"outputs": [
						{
							"internalType": "address",
							"name": "",
							"type": "address"
						}
					],
					"stateMutability": "view",
					"type": "function"
				},
				{
					"inputs": [],
					"name": "decimals",
					"outputs": [
						{
							"internalType": "uint8",
							"name": "",
							"type": "uint8"
						}
					],
					"stateMutability": "pure",
					"type": "function"
				},
				{
					"inputs": [
						{
							"internalType": "address",
							"name": "spender",
							"type": "address"
						},
						{
							"internalType": "uint256",
							"name": "subtractedValue",
							"type": "uint256"
						}
					],
					"name": "decreaseAllowance",
					"outputs": [
						{
							"internalType": "bool",
							"name": "",
							"type": "bool"
						}
					],
					"stateMutability": "nonpayable",
					"type": "function"
				},
				{
					"inputs": [
						{
							"internalType": "address",
							"name": "account",
							"type": "address"
						}
					],
					"name": "fractionalShareBalanceOf",
					"outputs": [
						{
							"internalType": "uint256",
							"name": "",
							"type": "uint256"
						}
					],
					"stateMutability": "view",
					"type": "function"
				},
				{
					"inputs": [
						{
							"internalType": "address",
							"name": "spender",
							"type": "address"
						},
						{
							"internalType": "uint256",
							"name": "addedValue",
							"type": "uint256"
						}
					],
					"name": "increaseAllowance",
					"outputs": [
						{
							"internalType": "bool",
							"name": "",
							"type": "bool"
						}
					],
					"stateMutability": "nonpayable",
					"type": "function"
				},
				{
					"inputs": [],
					"name": "name",
					"outputs": [
						{
							"internalType": "string",
							"name": "",
							"type": "string"
						}
					],
					"stateMutability": "view",
					"type": "function"
				},
				{
					"inputs": [],
					"name": "pause",
					"outputs": [],
					"stateMutability": "nonpayable",
					"type": "function"
				},
				{
					"inputs": [],
					"name": "paused",
					"outputs": [
						{
							"internalType": "bool",
							"name": "",
							"type": "bool"
						}
					],
					"stateMutability": "view",
					"type": "function"
				},
				{
					"inputs": [
						{
							"internalType": "address",
							"name": "from",
							"type": "address"
						},
						{
							"internalType": "address",
							"name": "to",
							"type": "address"
						}
					],
					"name": "recover",
					"outputs": [],
					"stateMutability": "nonpayable",
					"type": "function"
				},
				{
					"inputs": [
						{
							"internalType": "bytes32",
							"name": "hash",
							"type": "bytes32"
						}
					],
					"name": "registerHash",
					"outputs": [],
					"stateMutability": "nonpayable",
					"type": "function"
				},
				{
					"inputs": [
						{
							"internalType": "address",
							"name": "",
							"type": "address"
						}
					],
					"name": "registry",
					"outputs": [
						{
							"internalType": "uint256",
							"name": "tokenBalance",
							"type": "uint256"
						},
						{
							"internalType": "uint256",
							"name": "shareBalance",
							"type": "uint256"
						},
						{
							"internalType": "uint256",
							"name": "fractionalPartOfTokenBalance",
							"type": "uint256"
						},
						{
							"internalType": "bytes32",
							"name": "registrationHash",
							"type": "bytes32"
						},
						{
							"internalType": "bool",
							"name": "recoverable",
							"type": "bool"
						}
					],
					"stateMutability": "view",
					"type": "function"
				},
				{
					"inputs": [
						{
							"internalType": "address",
							"name": "account",
							"type": "address"
						}
					],
					"name": "shareBalanceOf",
					"outputs": [
						{
							"internalType": "uint256",
							"name": "",
							"type": "uint256"
						}
					],
					"stateMutability": "view",
					"type": "function"
				},
				{
					"inputs": [],
					"name": "symbol",
					"outputs": [
						{
							"internalType": "string",
							"name": "",
							"type": "string"
						}
					],
					"stateMutability": "view",
					"type": "function"
				},
				{
					"inputs": [],
					"name": "totalSupply",
					"outputs": [
						{
							"internalType": "uint256",
							"name": "",
							"type": "uint256"
						}
					],
					"stateMutability": "view",
					"type": "function"
				},
				{
					"inputs": [
						{
							"internalType": "address",
							"name": "to",
							"type": "address"
						},
						{
							"internalType": "uint256",
							"name": "amount",
							"type": "uint256"
						}
					],
					"name": "transfer",
					"outputs": [
						{
							"internalType": "bool",
							"name": "",
							"type": "bool"
						}
					],
					"stateMutability": "nonpayable",
					"type": "function"
				},
				{
					"inputs": [
						{
							"internalType": "address",
							"name": "from",
							"type": "address"
						},
						{
							"internalType": "address",
							"name": "to",
							"type": "address"
						},
						{
							"internalType": "uint256",
							"name": "amount",
							"type": "uint256"
						}
					],
					"name": "transferFrom",
					"outputs": [
						{
							"internalType": "bool",
							"name": "",
							"type": "bool"
						}
					],
					"stateMutability": "nonpayable",
					"type": "function"
				},
				{
					"inputs": [],
					"name": "unpause",
					"outputs": [],
					"stateMutability": "nonpayable",
					"type": "function"
				}
			],
			"devdoc": {
				"kind": "dev",
				"methods": {},
				"version": 1
			},
			"evm": {
				"assembly": "    /* \"contract/new_contract.sol\":60:8099  contract ERC20 {... */\n  mstore(0x40, 0x80)\n    /* \"contract/new_contract.sol\":1129:1305  constructor(string memory name_, string memory symbol_) {... */\n  callvalue\n  dup1\n  iszero\n  tag_1\n  jumpi\n  0x00\n  dup1\n  revert\ntag_1:\n  pop\n  mload(0x40)\n  sub(codesize, bytecodeSize)\n  dup1\n  bytecodeSize\n  dup4\n  codecopy\n  dup2\n  dup2\n  add\n  0x40\n  mstore\n  dup2\n  add\n  swap1\n  tag_2\n  swap2\n  swap1\n  tag_3\n  jump\t// in\ntag_2:\n    /* \"contract/new_contract.sol\":1204:1209  name_ */\n  dup2\n    /* \"contract/new_contract.sol\":1196:1201  _name */\n  0x04\n    /* \"contract/new_contract.sol\":1196:1209  _name = name_ */\n  swap1\n  dup2\n  tag_6\n  swap2\n  swap1\n  tag_7\n  jump\t// in\ntag_6:\n  pop\n    /* \"contract/new_contract.sol\":1230:1237  symbol_ */\n  dup1\n    /* \"contract/new_contract.sol\":1220:1227  _symbol */\n  0x05\n    /* \"contract/new_contract.sol\":1220:1237  _symbol = symbol_ */\n  swap1\n  dup2\n  tag_8\n  swap2\n  swap1\n  tag_7\n  jump\t// in\ntag_8:\n  pop\n    /* \"contract/new_contract.sol\":1262:1272  msg.sender */\n  caller\n    /* \"contract/new_contract.sol\":1248:1259  corporation */\n  0x06\n  0x00\n    /* \"contract/new_contract.sol\":1248:1272  corporation = msg.sender */\n  0x0100\n  exp\n  dup2\n  sload\n  dup2\n  0xffffffffffffffffffffffffffffffffffffffff\n  mul\n  not\n  and\n  swap1\n  dup4\n  0xffffffffffffffffffffffffffffffffffffffff\n  and\n  mul\n  or\n  swap1\n  sstore\n  pop\n    /* \"contract/new_contract.sol\":1292:1297  false */\n  0x00\n    /* \"contract/new_contract.sol\":1283:1289  paused */\n  0x03\n  0x00\n    /* \"contract/new_contract.sol\":1283:1297  paused = false */\n  0x0100\n  exp\n  dup2\n  sload\n  dup2\n  0xff\n  mul\n  not\n  and\n  swap1\n  dup4\n  iszero\n  iszero\n  mul\n  or\n  swap1\n  sstore\n  pop\n    /* \"contract/new_contract.sol\":1129:1305  constructor(string memory name_, string memory symbol_) {... */\n  pop\n  pop\n    /* \"contract/new_contract.sol\":60:8099  contract ERC20 {... */\n  jump(tag_9)\n    /* \"#utility.yul\":7:82   */\ntag_10:\n    /* \"#utility.yul\":40:46   */\n  0x00\n    /* \"#utility.yul\":73:75   */\n  0x40\n    /* \"#utility.yul\":67:76   */\n  mload\n    /* \"#utility.yul\":57:76   */\n  swap1\n  pop\n    /* \"#utility.yul\":7:82   */\n  swap1\n  jump\t// out\n    /* \"#utility.yul\":88:205   */\ntag_11:\n    /* \"#utility.yul\":197:198   */\n  0x00\n    /* \"#utility.yul\":194:195   */\n  dup1\n    /* \"#utility.yul\":187:199   */\n  revert\n    /* \"#utility.yul\":211:328   */\ntag_12:\n    /* \"#utility.yul\":320:321   */\n  0x00\n    /* \"#utility.yul\":317:318   */\n  dup1\n    /* \"#utility.yul\":310:322   */\n  revert\n    /* \"#utility.yul\":334:451   */\ntag_13:\n    /* \"#utility.yul\":443:444   */\n  0x00\n    /* \"#utility.yul\":440:441   */\n  dup1\n    /* \"#utility.yul\":433:445   */\n  revert\n    /* \"#utility.yul\":457:574   */\ntag_14:\n    /* \"#utility.yul\":566:567   */\n  0x00\n    /* \"#utility.yul\":563:564   */\n  dup1\n    /* \"#utility.yul\":556:568   */\n  revert\n    /* \"#utility.yul\":580:682   */\ntag_15:\n    /* \"#utility.yul\":621:627   */\n  0x00\n    /* \"#utility.yul\":672:674   */\n  0x1f\n    /* \"#utility.yul\":668:675   */\n  not\n    /* \"#utility.yul\":663:665   */\n  0x1f\n    /* \"#utility.yul\":656:661   */\n  dup4\n    /* \"#utility.yul\":652:666   */\n  add\n    /* \"#utility.yul\":648:676   */\n  and\n    /* \"#utility.yul\":638:676   */\n  swap1\n  pop\n    /* \"#utility.yul\":580:682   */\n  swap2\n  swap1\n  pop\n  jump\t// out\n    /* \"#utility.yul\":688:868   */\ntag_16:\n    /* \"#utility.yul\":736:813   */\n  0x4e487b7100000000000000000000000000000000000000000000000000000000\n    /* \"#utility.yul\":733:734   */\n  0x00\n    /* \"#utility.yul\":726:814   */\n  mstore\n    /* \"#utility.yul\":833:837   */\n  0x41\n    /* \"#utility.yul\":830:831   */\n  0x04\n    /* \"#utility.yul\":823:838   */\n  mstore\n    /* \"#utility.yul\":857:861   */\n  0x24\n    /* \"#utility.yul\":854:855   */\n  0x00\n    /* \"#utility.yul\":847:862   */\n  revert\n    /* \"#utility.yul\":874:1155   */\ntag_17:\n    /* \"#utility.yul\":957:984   */\n  tag_51\n    /* \"#utility.yul\":979:983   */\n  dup3\n    /* \"#utility.yul\":957:984   */\n  tag_15\n  jump\t// in\ntag_51:\n    /* \"#utility.yul\":949:955   */\n  dup2\n    /* \"#utility.yul\":945:985   */\n  add\n    /* \"#utility.yul\":1087:1093   */\n  dup2\n    /* \"#utility.yul\":1075:1085   */\n  dup2\n    /* \"#utility.yul\":1072:1094   */\n  lt\n    /* \"#utility.yul\":1051:1069   */\n  0xffffffffffffffff\n    /* \"#utility.yul\":1039:1049   */\n  dup3\n    /* \"#utility.yul\":1036:1070   */\n  gt\n    /* \"#utility.yul\":1033:1095   */\n  or\n    /* \"#utility.yul\":1030:1118   */\n  iszero\n  tag_52\n  jumpi\n    /* \"#utility.yul\":1098:1116   */\n  tag_53\n  tag_16\n  jump\t// in\ntag_53:\n    /* \"#utility.yul\":1030:1118   */\ntag_52:\n    /* \"#utility.yul\":1138:1148   */\n  dup1\n    /* \"#utility.yul\":1134:1136   */\n  0x40\n    /* \"#utility.yul\":1127:1149   */\n  mstore\n    /* \"#utility.yul\":917:1155   */\n  pop\n    /* \"#utility.yul\":874:1155   */\n  pop\n  pop\n  jump\t// out\n    /* \"#utility.yul\":1161:1290   */\ntag_18:\n    /* \"#utility.yul\":1195:1201   */\n  0x00\n    /* \"#utility.yul\":1222:1242   */\n  tag_55\n  tag_10\n  jump\t// in\ntag_55:\n    /* \"#utility.yul\":1212:1242   */\n  swap1\n  pop\n    /* \"#utility.yul\":1251:1284   */\n  tag_56\n    /* \"#utility.yul\":1279:1283   */\n  dup3\n    /* \"#utility.yul\":1271:1277   */\n  dup3\n    /* \"#utility.yul\":1251:1284   */\n  tag_17\n  jump\t// in\ntag_56:\n    /* \"#utility.yul\":1161:1290   */\n  swap2\n  swap1\n  pop\n  jump\t// out\n    /* \"#utility.yul\":1296:1604   */\ntag_19:\n    /* \"#utility.yul\":1358:1362   */\n  0x00\n    /* \"#utility.yul\":1448:1466   */\n  0xffffffffffffffff\n    /* \"#utility.yul\":1440:1446   */\n  dup3\n    /* \"#utility.yul\":1437:1467   */\n  gt\n    /* \"#utility.yul\":1434:1490   */\n  iszero\n  tag_58\n  jumpi\n    /* \"#utility.yul\":1470:1488   */\n  tag_59\n  tag_16\n  jump\t// in\ntag_59:\n    /* \"#utility.yul\":1434:1490   */\ntag_58:\n    /* \"#utility.yul\":1508:1537   */\n  tag_60\n    /* \"#utility.yul\":1530:1536   */\n  dup3\n    /* \"#utility.yul\":1508:1537   */\n  tag_15\n  jump\t// in\ntag_60:\n    /* \"#utility.yul\":1500:1537   */\n  swap1\n  pop\n    /* \"#utility.yul\":1592:1596   */\n  0x20\n    /* \"#utility.yul\":1586:1590   */\n  dup2\n    /* \"#utility.yul\":1582:1597   */\n  add\n    /* \"#utility.yul\":1574:1597   */\n  swap1\n  pop\n    /* \"#utility.yul\":1296:1604   */\n  swap2\n  swap1\n  pop\n  jump\t// out\n    /* \"#utility.yul\":1610:1856   */\ntag_20:\n    /* \"#utility.yul\":1691:1692   */\n  0x00\n    /* \"#utility.yul\":1701:1814   */\ntag_62:\n    /* \"#utility.yul\":1715:1721   */\n  dup4\n    /* \"#utility.yul\":1712:1713   */\n  dup2\n    /* \"#utility.yul\":1709:1722   */\n  lt\n    /* \"#utility.yul\":1701:1814   */\n  iszero\n  tag_64\n  jumpi\n    /* \"#utility.yul\":1800:1801   */\n  dup1\n    /* \"#utility.yul\":1795:1798   */\n  dup3\n    /* \"#utility.yul\":1791:1802   */\n  add\n    /* \"#utility.yul\":1785:1803   */\n  mload\n    /* \"#utility.yul\":1781:1782   */\n  dup2\n    /* \"#utility.yul\":1776:1779   */\n  dup5\n    /* \"#utility.yul\":1772:1783   */\n  add\n    /* \"#utility.yul\":1765:1804   */\n  mstore\n    /* \"#utility.yul\":1737:1739   */\n  0x20\n    /* \"#utility.yul\":1734:1735   */\n  dup2\n    /* \"#utility.yul\":1730:1740   */\n  add\n    /* \"#utility.yul\":1725:1740   */\n  swap1\n  pop\n    /* \"#utility.yul\":1701:1814   */\n  jump(tag_62)\ntag_64:\n    /* \"#utility.yul\":1848:1849   */\n  0x00\n    /* \"#utility.yul\":1839:1845   */\n  dup5\n    /* \"#utility.yul\":1834:1837   */\n  dup5\n    /* \"#utility.yul\":1830:1846   */\n  add\n    /* \"#utility.yul\":1823:1850   */\n  mstore\n    /* \"#utility.yul\":1672:1856   */\n  pop\n    /* \"#utility.yul\":1610:1856   */\n  pop\n  pop\n  pop\n  jump\t// out\n    /* \"#utility.yul\":1862:2296   */\ntag_21:\n    /* \"#utility.yul\":1951:1956   */\n  0x00\n    /* \"#utility.yul\":1976:2042   */\n  tag_66\n    /* \"#utility.yul\":1992:2041   */\n  tag_67\n    /* \"#utility.yul\":2034:2040   */\n  dup5\n    /* \"#utility.yul\":1992:2041   */\n  tag_19\n  jump\t// in\ntag_67:\n    /* \"#utility.yul\":1976:2042   */\n  tag_18\n  jump\t// in\ntag_66:\n    /* \"#utility.yul\":1967:2042   */\n  swap1\n  pop\n    /* \"#utility.yul\":2065:2071   */\n  dup3\n    /* \"#utility.yul\":2058:2063   */\n  dup2\n    /* \"#utility.yul\":2051:2072   */\n  mstore\n    /* \"#utility.yul\":2103:2107   */\n  0x20\n    /* \"#utility.yul\":2096:2101   */\n  dup2\n    /* \"#utility.yul\":2092:2108   */\n  add\n    /* \"#utility.yul\":2141:2144   */\n  dup5\n    /* \"#utility.yul\":2132:2138   */\n  dup5\n    /* \"#utility.yul\":2127:2130   */\n  dup5\n    /* \"#utility.yul\":2123:2139   */\n  add\n    /* \"#utility.yul\":2120:2145   */\n  gt\n    /* \"#utility.yul\":2117:2229   */\n  iszero\n  tag_68\n  jumpi\n    /* \"#utility.yul\":2148:2227   */\n  tag_69\n  tag_14\n  jump\t// in\ntag_69:\n    /* \"#utility.yul\":2117:2229   */\ntag_68:\n    /* \"#utility.yul\":2238:2290   */\n  tag_70\n    /* \"#utility.yul\":2283:2289   */\n  dup5\n    /* \"#utility.yul\":2278:2281   */\n  dup3\n    /* \"#utility.yul\":2273:2276   */\n  dup6\n    /* \"#utility.yul\":2238:2290   */\n  tag_20\n  jump\t// in\ntag_70:\n    /* \"#utility.yul\":1957:2296   */\n  pop\n    /* \"#utility.yul\":1862:2296   */\n  swap4\n  swap3\n  pop\n  pop\n  pop\n  jump\t// out\n    /* \"#utility.yul\":2316:2671   */\ntag_22:\n    /* \"#utility.yul\":2383:2388   */\n  0x00\n    /* \"#utility.yul\":2432:2435   */\n  dup3\n    /* \"#utility.yul\":2425:2429   */\n  0x1f\n    /* \"#utility.yul\":2417:2423   */\n  dup4\n    /* \"#utility.yul\":2413:2430   */\n  add\n    /* \"#utility.yul\":2409:2436   */\n  slt\n    /* \"#utility.yul\":2399:2521   */\n  tag_72\n  jumpi\n    /* \"#utility.yul\":2440:2519   */\n  tag_73\n  tag_13\n  jump\t// in\ntag_73:\n    /* \"#utility.yul\":2399:2521   */\ntag_72:\n    /* \"#utility.yul\":2550:2556   */\n  dup2\n    /* \"#utility.yul\":2544:2557   */\n  mload\n    /* \"#utility.yul\":2575:2665   */\n  tag_74\n    /* \"#utility.yul\":2661:2664   */\n  dup5\n    /* \"#utility.yul\":2653:2659   */\n  dup3\n    /* \"#utility.yul\":2646:2650   */\n  0x20\n    /* \"#utility.yul\":2638:2644   */\n  dup7\n    /* \"#utility.yul\":2634:2651   */\n  add\n    /* \"#utility.yul\":2575:2665   */\n  tag_21\n  jump\t// in\ntag_74:\n    /* \"#utility.yul\":2566:2665   */\n  swap2\n  pop\n    /* \"#utility.yul\":2389:2671   */\n  pop\n    /* \"#utility.yul\":2316:2671   */\n  swap3\n  swap2\n  pop\n  pop\n  jump\t// out\n    /* \"#utility.yul\":2677:3530   */\ntag_3:\n    /* \"#utility.yul\":2776:2782   */\n  0x00\n    /* \"#utility.yul\":2784:2790   */\n  dup1\n    /* \"#utility.yul\":2833:2835   */\n  0x40\n    /* \"#utility.yul\":2821:2830   */\n  dup4\n    /* \"#utility.yul\":2812:2819   */\n  dup6\n    /* \"#utility.yul\":2808:2831   */\n  sub\n    /* \"#utility.yul\":2804:2836   */\n  slt\n    /* \"#utility.yul\":2801:2920   */\n  iszero\n  tag_76\n  jumpi\n    /* \"#utility.yul\":2839:2918   */\n  tag_77\n  tag_11\n  jump\t// in\ntag_77:\n    /* \"#utility.yul\":2801:2920   */\ntag_76:\n    /* \"#utility.yul\":2980:2981   */\n  0x00\n    /* \"#utility.yul\":2969:2978   */\n  dup4\n    /* \"#utility.yul\":2965:2982   */\n  add\n    /* \"#utility.yul\":2959:2983   */\n  mload\n    /* \"#utility.yul\":3010:3028   */\n  0xffffffffffffffff\n    /* \"#utility.yul\":3002:3008   */\n  dup2\n    /* \"#utility.yul\":2999:3029   */\n  gt\n    /* \"#utility.yul\":2996:3113   */\n  iszero\n  tag_78\n  jumpi\n    /* \"#utility.yul\":3032:3111   */\n  tag_79\n  tag_12\n  jump\t// in\ntag_79:\n    /* \"#utility.yul\":2996:3113   */\ntag_78:\n    /* \"#utility.yul\":3137:3211   */\n  tag_80\n    /* \"#utility.yul\":3203:3210   */\n  dup6\n    /* \"#utility.yul\":3194:3200   */\n  dup3\n    /* \"#utility.yul\":3183:3192   */\n  dup7\n    /* \"#utility.yul\":3179:3201   */\n  add\n    /* \"#utility.yul\":3137:3211   */\n  tag_22\n  jump\t// in\ntag_80:\n    /* \"#utility.yul\":3127:3211   */\n  swap3\n  pop\n    /* \"#utility.yul\":2930:3221   */\n  pop\n    /* \"#utility.yul\":3281:3283   */\n  0x20\n    /* \"#utility.yul\":3270:3279   */\n  dup4\n    /* \"#utility.yul\":3266:3284   */\n  add\n    /* \"#utility.yul\":3260:3285   */\n  mload\n    /* \"#utility.yul\":3312:3330   */\n  0xffffffffffffffff\n    /* \"#utility.yul\":3304:3310   */\n  dup2\n    /* \"#utility.yul\":3301:3331   */\n  gt\n    /* \"#utility.yul\":3298:3415   */\n  iszero\n  tag_81\n  jumpi\n    /* \"#utility.yul\":3334:3413   */\n  tag_82\n  tag_12\n  jump\t// in\ntag_82:\n    /* \"#utility.yul\":3298:3415   */\ntag_81:\n    /* \"#utility.yul\":3439:3513   */\n  tag_83\n    /* \"#utility.yul\":3505:3512   */\n  dup6\n    /* \"#utility.yul\":3496:3502   */\n  dup3\n    /* \"#utility.yul\":3485:3494   */\n  dup7\n    /* \"#utility.yul\":3481:3503   */\n  add\n    /* \"#utility.yul\":3439:3513   */\n  tag_22\n  jump\t// in\ntag_83:\n    /* \"#utility.yul\":3429:3513   */\n  swap2\n  pop\n    /* \"#utility.yul\":3231:3523   */\n  pop\n    /* \"#utility.yul\":2677:3530   */\n  swap3\n  pop\n  swap3\n  swap1\n  pop\n  jump\t// out\n    /* \"#utility.yul\":3536:3635   */\ntag_23:\n    /* \"#utility.yul\":3588:3594   */\n  0x00\n    /* \"#utility.yul\":3622:3627   */\n  dup2\n    /* \"#utility.yul\":3616:3628   */\n  mload\n    /* \"#utility.yul\":3606:3628   */\n  swap1\n  pop\n    /* \"#utility.yul\":3536:3635   */\n  swap2\n  swap1\n  pop\n  jump\t// out\n    /* \"#utility.yul\":3641:3821   */\ntag_24:\n    /* \"#utility.yul\":3689:3766   */\n  0x4e487b7100000000000000000000000000000000000000000000000000000000\n    /* \"#utility.yul\":3686:3687   */\n  0x00\n    /* \"#utility.yul\":3679:3767   */\n  mstore\n    /* \"#utility.yul\":3786:3790   */\n  0x22\n    /* \"#utility.yul\":3783:3784   */\n  0x04\n    /* \"#utility.yul\":3776:3791   */\n  mstore\n    /* \"#utility.yul\":3810:3814   */\n  0x24\n    /* \"#utility.yul\":3807:3808   */\n  0x00\n    /* \"#utility.yul\":3800:3815   */\n  revert\n    /* \"#utility.yul\":3827:4147   */\ntag_25:\n    /* \"#utility.yul\":3871:3877   */\n  0x00\n    /* \"#utility.yul\":3908:3909   */\n  0x02\n    /* \"#utility.yul\":3902:3906   */\n  dup3\n    /* \"#utility.yul\":3898:3910   */\n  div\n    /* \"#utility.yul\":3888:3910   */\n  swap1\n  pop\n    /* \"#utility.yul\":3955:3956   */\n  0x01\n    /* \"#utility.yul\":3949:3953   */\n  dup3\n    /* \"#utility.yul\":3945:3957   */\n  and\n    /* \"#utility.yul\":3976:3994   */\n  dup1\n    /* \"#utility.yul\":3966:4047   */\n  tag_87\n  jumpi\n    /* \"#utility.yul\":4032:4036   */\n  0x7f\n    /* \"#utility.yul\":4024:4030   */\n  dup3\n    /* \"#utility.yul\":4020:4037   */\n  and\n    /* \"#utility.yul\":4010:4037   */\n  swap2\n  pop\n    /* \"#utility.yul\":3966:4047   */\ntag_87:\n    /* \"#utility.yul\":4094:4096   */\n  0x20\n    /* \"#utility.yul\":4086:4092   */\n  dup3\n    /* \"#utility.yul\":4083:4097   */\n  lt\n    /* \"#utility.yul\":4063:4081   */\n  dup2\n    /* \"#utility.yul\":4060:4098   */\n  sub\n    /* \"#utility.yul\":4057:4141   */\n  tag_88\n  jumpi\n    /* \"#utility.yul\":4113:4131   */\n  tag_89\n  tag_24\n  jump\t// in\ntag_89:\n    /* \"#utility.yul\":4057:4141   */\ntag_88:\n    /* \"#utility.yul\":3878:4147   */\n  pop\n    /* \"#utility.yul\":3827:4147   */\n  swap2\n  swap1\n  pop\n  jump\t// out\n    /* \"#utility.yul\":4153:4294   */\ntag_26:\n    /* \"#utility.yul\":4202:4206   */\n  0x00\n    /* \"#utility.yul\":4225:4228   */\n  dup2\n    /* \"#utility.yul\":4217:4228   */\n  swap1\n  pop\n    /* \"#utility.yul\":4248:4251   */\n  dup2\n    /* \"#utility.yul\":4245:4246   */\n  0x00\n    /* \"#utility.yul\":4238:4252   */\n  mstore\n    /* \"#utility.yul\":4282:4286   */\n  0x20\n    /* \"#utility.yul\":4279:4280   */\n  0x00\n    /* \"#utility.yul\":4269:4287   */\n  keccak256\n    /* \"#utility.yul\":4261:4287   */\n  swap1\n  pop\n    /* \"#utility.yul\":4153:4294   */\n  swap2\n  swap1\n  pop\n  jump\t// out\n    /* \"#utility.yul\":4300:4393   */\ntag_27:\n    /* \"#utility.yul\":4337:4343   */\n  0x00\n    /* \"#utility.yul\":4384:4386   */\n  0x20\n    /* \"#utility.yul\":4379:4381   */\n  0x1f\n    /* \"#utility.yul\":4372:4377   */\n  dup4\n    /* \"#utility.yul\":4368:4382   */\n  add\n    /* \"#utility.yul\":4364:4387   */\n  div\n    /* \"#utility.yul\":4354:4387   */\n  swap1\n  pop\n    /* \"#utility.yul\":4300:4393   */\n  swap2\n  swap1\n  pop\n  jump\t// out\n    /* \"#utility.yul\":4399:4506   */\ntag_28:\n    /* \"#utility.yul\":4443:4451   */\n  0x00\n    /* \"#utility.yul\":4493:4498   */\n  dup3\n    /* \"#utility.yul\":4487:4491   */\n  dup3\n    /* \"#utility.yul\":4483:4499   */\n  shl\n    /* \"#utility.yul\":4462:4499   */\n  swap1\n  pop\n    /* \"#utility.yul\":4399:4506   */\n  swap3\n  swap2\n  pop\n  pop\n  jump\t// out\n    /* \"#utility.yul\":4512:4905   */\ntag_29:\n    /* \"#utility.yul\":4581:4587   */\n  0x00\n    /* \"#utility.yul\":4631:4632   */\n  0x08\n    /* \"#utility.yul\":4619:4629   */\n  dup4\n    /* \"#utility.yul\":4615:4633   */\n  mul\n    /* \"#utility.yul\":4654:4751   */\n  tag_94\n    /* \"#utility.yul\":4684:4750   */\n  0xffffffffffffffffffffffffffffffffffffffffffffffffffffffffffffffff\n    /* \"#utility.yul\":4673:4682   */\n  dup3\n    /* \"#utility.yul\":4654:4751   */\n  tag_28\n  jump\t// in\ntag_94:\n    /* \"#utility.yul\":4772:4811   */\n  tag_95\n    /* \"#utility.yul\":4802:4810   */\n  dup7\n    /* \"#utility.yul\":4791:4800   */\n  dup4\n    /* \"#utility.yul\":4772:4811   */\n  tag_28\n  jump\t// in\ntag_95:\n    /* \"#utility.yul\":4760:4811   */\n  swap6\n  pop\n    /* \"#utility.yul\":4844:4848   */\n  dup1\n    /* \"#utility.yul\":4840:4849   */\n  not\n    /* \"#utility.yul\":4833:4838   */\n  dup5\n    /* \"#utility.yul\":4829:4850   */\n  and\n    /* \"#utility.yul\":4820:4850   */\n  swap4\n  pop\n    /* \"#utility.yul\":4893:4897   */\n  dup1\n    /* \"#utility.yul\":4883:4891   */\n  dup7\n    /* \"#utility.yul\":4879:4898   */\n  and\n    /* \"#utility.yul\":4872:4877   */\n  dup5\n    /* \"#utility.yul\":4869:4899   */\n  or\n    /* \"#utility.yul\":4859:4899   */\n  swap3\n  pop\n    /* \"#utility.yul\":4588:4905   */\n  pop\n  pop\n    /* \"#utility.yul\":4512:4905   */\n  swap4\n  swap3\n  pop\n  pop\n  pop\n  jump\t// out\n    /* \"#utility.yul\":4911:4988   */\ntag_30:\n    /* \"#utility.yul\":4948:4955   */\n  0x00\n    /* \"#utility.yul\":4977:4982   */\n  dup2\n    /* \"#utility.yul\":4966:4982   */\n  swap1\n  pop\n    /* \"#utility.yul\":4911:4988   */\n  swap2\n  swap1\n  pop\n  jump\t// out\n    /* \"#utility.yul\":4994:5054   */\ntag_31:\n    /* \"#utility.yul\":5022:5025   */\n  0x00\n    /* \"#utility.yul\":5043:5048   */\n  dup2\n    /* \"#utility.yul\":5036:5048   */\n  swap1\n  pop\n    /* \"#utility.yul\":4994:5054   */\n  swap2\n  swap1\n  pop\n  jump\t// out\n    /* \"#utility.yul\":5060:5202   */\ntag_32:\n    /* \"#utility.yul\":5110:5119   */\n  0x00\n    /* \"#utility.yul\":5143:5196   */\n  tag_99\n    /* \"#utility.yul\":5161:5195   */\n  tag_100\n    /* \"#utility.yul\":5170:5194   */\n  tag_101\n    /* \"#utility.yul\":5188:5193   */\n  dup5\n    /* \"#utility.yul\":5170:5194   */\n  tag_30\n  jump\t// in\ntag_101:\n    /* \"#utility.yul\":5161:5195   */\n  tag_31\n  jump\t// in\ntag_100:\n    /* \"#utility.yul\":5143:5196   */\n  tag_30\n  jump\t// in\ntag_99:\n    /* \"#utility.yul\":5130:5196   */\n  swap1\n  pop\n    /* \"#utility.yul\":5060:5202   */\n  swap2\n  swap1\n  pop\n  jump\t// out\n    /* \"#utility.yul\":5208:5283   */\ntag_33:\n    /* \"#utility.yul\":5251:5254   */\n  0x00\n    /* \"#utility.yul\":5272:5277   */\n  dup2\n    /* \"#utility.yul\":5265:5277   */\n  swap1\n  pop\n    /* \"#utility.yul\":5208:5283   */\n  swap2\n  swap1\n  pop\n  jump\t// out\n    /* \"#utility.yul\":5289:5558   */\ntag_34:\n    /* \"#utility.yul\":5399:5438   */\n  tag_104\n    /* \"#utility.yul\":5430:5437   */\n  dup4\n    /* \"#utility.yul\":5399:5438   */\n  tag_32\n  jump\t// in\ntag_104:\n    /* \"#utility.yul\":5460:5551   */\n  tag_105\n    /* \"#utility.yul\":5509:5550   */\n  tag_106\n    /* \"#utility.yul\":5533:5549   */\n  dup3\n    /* \"#utility.yul\":5509:5550   */\n  tag_33\n  jump\t// in\ntag_106:\n    /* \"#utility.yul\":5501:5507   */\n  dup5\n    /* \"#utility.yul\":5494:5498   */\n  dup5\n    /* \"#utility.yul\":5488:5499   */\n  sload\n    /* \"#utility.yul\":5460:5551   */\n  tag_29\n  jump\t// in\ntag_105:\n    /* \"#utility.yul\":5454:5458   */\n  dup3\n    /* \"#utility.yul\":5447:5552   */\n  sstore\n    /* \"#utility.yul\":5365:5558   */\n  pop\n    /* \"#utility.yul\":5289:5558   */\n  pop\n  pop\n  pop\n  jump\t// out\n    /* \"#utility.yul\":5564:5637   */\ntag_35:\n    /* \"#utility.yul\":5609:5612   */\n  0x00\n    /* \"#utility.yul\":5564:5637   */\n  swap1\n  jump\t// out\n    /* \"#utility.yul\":5643:5832   */\ntag_36:\n    /* \"#utility.yul\":5720:5752   */\n  tag_109\n  tag_35\n  jump\t// in\ntag_109:\n    /* \"#utility.yul\":5761:5826   */\n  tag_110\n    /* \"#utility.yul\":5819:5825   */\n  dup2\n    /* \"#utility.yul\":5811:5817   */\n  dup5\n    /* \"#utility.yul\":5805:5809   */\n  dup5\n    /* \"#utility.yul\":5761:5826   */\n  tag_34\n  jump\t// in\ntag_110:\n    /* \"#utility.yul\":5696:5832   */\n  pop\n    /* \"#utility.yul\":5643:5832   */\n  pop\n  pop\n  jump\t// out\n    /* \"#utility.yul\":5838:6024   */\ntag_37:\n    /* \"#utility.yul\":5898:6018   */\ntag_112:\n    /* \"#utility.yul\":5915:5918   */\n  dup2\n    /* \"#utility.yul\":5908:5913   */\n  dup2\n    /* \"#utility.yul\":5905:5919   */\n  lt\n    /* \"#utility.yul\":5898:6018   */\n  iszero\n  tag_114\n  jumpi\n    /* \"#utility.yul\":5969:6008   */\n  tag_115\n    /* \"#utility.yul\":6006:6007   */\n  0x00\n    /* \"#utility.yul\":5999:6004   */\n  dup3\n    /* \"#utility.yul\":5969:6008   */\n  tag_36\n  jump\t// in\ntag_115:\n    /* \"#utility.yul\":5942:5943   */\n  0x01\n    /* \"#utility.yul\":5935:5940   */\n  dup2\n    /* \"#utility.yul\":5931:5944   */\n  add\n    /* \"#utility.yul\":5922:5944   */\n  swap1\n  pop\n    /* \"#utility.yul\":5898:6018   */\n  jump(tag_112)\ntag_114:\n    /* \"#utility.yul\":5838:6024   */\n  pop\n  pop\n  jump\t// out\n    /* \"#utility.yul\":6030:6573   */\ntag_38:\n    /* \"#utility.yul\":6131:6133   */\n  0x1f\n    /* \"#utility.yul\":6126:6129   */\n  dup3\n    /* \"#utility.yul\":6123:6134   */\n  gt\n    /* \"#utility.yul\":6120:6566   */\n  iszero\n  tag_117\n  jumpi\n    /* \"#utility.yul\":6165:6203   */\n  tag_118\n    /* \"#utility.yul\":6197:6202   */\n  dup2\n    /* \"#utility.yul\":6165:6203   */\n  tag_26\n  jump\t// in\ntag_118:\n    /* \"#utility.yul\":6249:6278   */\n  tag_119\n    /* \"#utility.yul\":6267:6277   */\n  dup5\n    /* \"#utility.yul\":6249:6278   */\n  tag_27\n  jump\t// in\ntag_119:\n    /* \"#utility.yul\":6239:6247   */\n  dup2\n    /* \"#utility.yul\":6235:6279   */\n  add\n    /* \"#utility.yul\":6432:6434   */\n  0x20\n    /* \"#utility.yul\":6420:6430   */\n  dup6\n    /* \"#utility.yul\":6417:6435   */\n  lt\n    /* \"#utility.yul\":6414:6463   */\n  iszero\n  tag_120\n  jumpi\n    /* \"#utility.yul\":6453:6461   */\n  dup2\n    /* \"#utility.yul\":6438:6461   */\n  swap1\n  pop\n    /* \"#utility.yul\":6414:6463   */\ntag_120:\n    /* \"#utility.yul\":6476:6556   */\n  tag_121\n    /* \"#utility.yul\":6532:6554   */\n  tag_122\n    /* \"#utility.yul\":6550:6553   */\n  dup6\n    /* \"#utility.yul\":6532:6554   */\n  tag_27\n  jump\t// in\ntag_122:\n    /* \"#utility.yul\":6522:6530   */\n  dup4\n    /* \"#utility.yul\":6518:6555   */\n  add\n    /* \"#utility.yul\":6505:6516   */\n  dup3\n    /* \"#utility.yul\":6476:6556   */\n  tag_37\n  jump\t// in\ntag_121:\n    /* \"#utility.yul\":6135:6566   */\n  pop\n  pop\n    /* \"#utility.yul\":6120:6566   */\ntag_117:\n    /* \"#utility.yul\":6030:6573   */\n  pop\n  pop\n  pop\n  jump\t// out\n    /* \"#utility.yul\":6579:6696   */\ntag_39:\n    /* \"#utility.yul\":6633:6641   */\n  0x00\n    /* \"#utility.yul\":6683:6688   */\n  dup3\n    /* \"#utility.yul\":6677:6681   */\n  dup3\n    /* \"#utility.yul\":6673:6689   */\n  shr\n    /* \"#utility.yul\":6652:6689   */\n  swap1\n  pop\n    /* \"#utility.yul\":6579:6696   */\n  swap3\n  swap2\n  pop\n  pop\n  jump\t// out\n    /* \"#utility.yul\":6702:6871   */\ntag_40:\n    /* \"#utility.yul\":6746:6752   */\n  0x00\n    /* \"#utility.yul\":6779:6830   */\n  tag_125\n    /* \"#utility.yul\":6827:6828   */\n  0x00\n    /* \"#utility.yul\":6823:6829   */\n  not\n    /* \"#utility.yul\":6815:6820   */\n  dup5\n    /* \"#utility.yul\":6812:6813   */\n  0x08\n    /* \"#utility.yul\":6808:6821   */\n  mul\n    /* \"#utility.yul\":6779:6830   */\n  tag_39\n  jump\t// in\ntag_125:\n    /* \"#utility.yul\":6775:6831   */\n  not\n    /* \"#utility.yul\":6860:6864   */\n  dup1\n    /* \"#utility.yul\":6854:6858   */\n  dup4\n    /* \"#utility.yul\":6850:6865   */\n  and\n    /* \"#utility.yul\":6840:6865   */\n  swap2\n  pop\n    /* \"#utility.yul\":6753:6871   */\n  pop\n    /* \"#utility.yul\":6702:6871   */\n  swap3\n  swap2\n  pop\n  pop\n  jump\t// out\n    /* \"#utility.yul\":6876:7171   */\ntag_41:\n    /* \"#utility.yul\":6952:6956   */\n  0x00\n    /* \"#utility.yul\":7098:7127   */\n  tag_127\n    /* \"#utility.yul\":7123:7126   */\n  dup4\n    /* \"#utility.yul\":7117:7121   */\n  dup4\n    /* \"#utility.yul\":7098:7127   */\n  tag_40\n  jump\t// in\ntag_127:\n    /* \"#utility.yul\":7090:7127   */\n  swap2\n  pop\n    /* \"#utility.yul\":7160:7163   */\n  dup3\n    /* \"#utility.yul\":7157:7158   */\n  0x02\n    /* \"#utility.yul\":7153:7164   */\n  mul\n    /* \"#utility.yul\":7147:7151   */\n  dup3\n    /* \"#utility.yul\":7144:7165   */\n  or\n    /* \"#utility.yul\":7136:7165   */\n  swap1\n  pop\n    /* \"#utility.yul\":6876:7171   */\n  swap3\n  swap2\n  pop\n  pop\n  jump\t// out\n    /* \"#utility.yul\":7176:8571   */\ntag_7:\n    /* \"#utility.yul\":7293:7330   */\n  tag_129\n    /* \"#utility.yul\":7326:7329   */\n  dup3\n    /* \"#utility.yul\":7293:7330   */\n  tag_23\n  jump\t// in\ntag_129:\n    /* \"#utility.yul\":7395:7413   */\n  0xffffffffffffffff\n    /* \"#utility.yul\":7387:7393   */\n  dup2\n    /* \"#utility.yul\":7384:7414   */\n  gt\n    /* \"#utility.yul\":7381:7437   */\n  iszero\n  tag_130\n  jumpi\n    /* \"#utility.yul\":7417:7435   */\n  tag_131\n  tag_16\n  jump\t// in\ntag_131:\n    /* \"#utility.yul\":7381:7437   */\ntag_130:\n    /* \"#utility.yul\":7461:7499   */\n  tag_132\n    /* \"#utility.yul\":7493:7497   */\n  dup3\n    /* \"#utility.yul\":7487:7498   */\n  sload\n    /* \"#utility.yul\":7461:7499   */\n  tag_25\n  jump\t// in\ntag_132:\n    /* \"#utility.yul\":7546:7613   */\n  tag_133\n    /* \"#utility.yul\":7606:7612   */\n  dup3\n    /* \"#utility.yul\":7598:7604   */\n  dup3\n    /* \"#utility.yul\":7592:7596   */\n  dup6\n    /* \"#utility.yul\":7546:7613   */\n  tag_38\n  jump\t// in\ntag_133:\n    /* \"#utility.yul\":7640:7641   */\n  0x00\n    /* \"#utility.yul\":7664:7668   */\n  0x20\n    /* \"#utility.yul\":7651:7668   */\n  swap1\n  pop\n    /* \"#utility.yul\":7696:7698   */\n  0x1f\n    /* \"#utility.yul\":7688:7694   */\n  dup4\n    /* \"#utility.yul\":7685:7699   */\n  gt\n    /* \"#utility.yul\":7713:7714   */\n  0x01\n    /* \"#utility.yul\":7708:8326   */\n  dup2\n  eq\n  tag_135\n  jumpi\n    /* \"#utility.yul\":8370:8371   */\n  0x00\n    /* \"#utility.yul\":8387:8393   */\n  dup5\n    /* \"#utility.yul\":8384:8461   */\n  iszero\n  tag_136\n  jumpi\n    /* \"#utility.yul\":8436:8445   */\n  dup3\n    /* \"#utility.yul\":8431:8434   */\n  dup8\n    /* \"#utility.yul\":8427:8446   */\n  add\n    /* \"#utility.yul\":8421:8447   */\n  mload\n    /* \"#utility.yul\":8412:8447   */\n  swap1\n  pop\n    /* \"#utility.yul\":8384:8461   */\ntag_136:\n    /* \"#utility.yul\":8487:8554   */\n  tag_137\n    /* \"#utility.yul\":8547:8553   */\n  dup6\n    /* \"#utility.yul\":8540:8545   */\n  dup3\n    /* \"#utility.yul\":8487:8554   */\n  tag_41\n  jump\t// in\ntag_137:\n    /* \"#utility.yul\":8481:8485   */\n  dup7\n    /* \"#utility.yul\":8474:8555   */\n  sstore\n    /* \"#utility.yul\":8343:8565   */\n  pop\n    /* \"#utility.yul\":7678:8565   */\n  jump(tag_134)\n    /* \"#utility.yul\":7708:8326   */\ntag_135:\n    /* \"#utility.yul\":7760:7764   */\n  0x1f\n    /* \"#utility.yul\":7756:7765   */\n  not\n    /* \"#utility.yul\":7748:7754   */\n  dup5\n    /* \"#utility.yul\":7744:7766   */\n  and\n    /* \"#utility.yul\":7794:7831   */\n  tag_138\n    /* \"#utility.yul\":7826:7830   */\n  dup7\n    /* \"#utility.yul\":7794:7831   */\n  tag_26\n  jump\t// in\ntag_138:\n    /* \"#utility.yul\":7853:7854   */\n  0x00\n    /* \"#utility.yul\":7867:8075   */\ntag_139:\n    /* \"#utility.yul\":7881:7888   */\n  dup3\n    /* \"#utility.yul\":7878:7879   */\n  dup2\n    /* \"#utility.yul\":7875:7889   */\n  lt\n    /* \"#utility.yul\":7867:8075   */\n  iszero\n  tag_141\n  jumpi\n    /* \"#utility.yul\":7960:7969   */\n  dup5\n    /* \"#utility.yul\":7955:7958   */\n  dup10\n    /* \"#utility.yul\":7951:7970   */\n  add\n    /* \"#utility.yul\":7945:7971   */\n  mload\n    /* \"#utility.yul\":7937:7943   */\n  dup3\n    /* \"#utility.yul\":7930:7972   */\n  sstore\n    /* \"#utility.yul\":8011:8012   */\n  0x01\n    /* \"#utility.yul\":8003:8009   */\n  dup3\n    /* \"#utility.yul\":7999:8013   */\n  add\n    /* \"#utility.yul\":7989:8013   */\n  swap2\n  pop\n    /* \"#utility.yul\":8058:8060   */\n  0x20\n    /* \"#utility.yul\":8047:8056   */\n  dup6\n    /* \"#utility.yul\":8043:8061   */\n  add\n    /* \"#utility.yul\":8030:8061   */\n  swap5\n  pop\n    /* \"#utility.yul\":7904:7908   */\n  0x20\n    /* \"#utility.yul\":7901:7902   */\n  dup2\n    /* \"#utility.yul\":7897:7909   */\n  add\n    /* \"#utility.yul\":7892:7909   */\n  swap1\n  pop\n    /* \"#utility.yul\":7867:8075   */\n  jump(tag_139)\ntag_141:\n    /* \"#utility.yul\":8103:8109   */\n  dup7\n    /* \"#utility.yul\":8094:8101   */\n  dup4\n    /* \"#utility.yul\":8091:8110   */\n  lt\n    /* \"#utility.yul\":8088:8267   */\n  iszero\n  tag_142\n  jumpi\n    /* \"#utility.yul\":8161:8170   */\n  dup5\n    /* \"#utility.yul\":8156:8159   */\n  dup10\n    /* \"#utility.yul\":8152:8171   */\n  add\n    /* \"#utility.yul\":8146:8172   */\n  mload\n    /* \"#utility.yul\":8204:8252   */\n  tag_143\n    /* \"#utility.yul\":8246:8250   */\n  0x1f\n    /* \"#utility.yul\":8238:8244   */\n  dup10\n    /* \"#utility.yul\":8234:8251   */\n  and\n    /* \"#utility.yul\":8223:8232   */\n  dup3\n    /* \"#utility.yul\":8204:8252   */\n  tag_40\n  jump\t// in\ntag_143:\n    /* \"#utility.yul\":8196:8202   */\n  dup4\n    /* \"#utility.yul\":8189:8253   */\n  sstore\n    /* \"#utility.yul\":8111:8267   */\n  pop\n    /* \"#utility.yul\":8088:8267   */\ntag_142:\n    /* \"#utility.yul\":8313:8314   */\n  0x01\n    /* \"#utility.yul\":8309:8310   */\n  0x02\n    /* \"#utility.yul\":8301:8307   */\n  dup9\n    /* \"#utility.yul\":8297:8311   */\n  mul\n    /* \"#utility.yul\":8293:8315   */\n  add\n    /* \"#utility.yul\":8287:8291   */\n  dup9\n    /* \"#utility.yul\":8280:8316   */\n  sstore\n    /* \"#utility.yul\":7715:8326   */\n  pop\n  pop\n  pop\n    /* \"#utility.yul\":7678:8565   */\ntag_134:\n  pop\n    /* \"#utility.yul\":7268:8571   */\n  pop\n  pop\n  pop\n    /* \"#utility.yul\":7176:8571   */\n  pop\n  pop\n  jump\t// out\n    /* \"contract/new_contract.sol\":60:8099  contract ERC20 {... */\ntag_9:\n  dataSize(sub_0)\n  dup1\n  dataOffset(sub_0)\n  0x00\n  codecopy\n  0x00\n  return\nstop\n\nsub_0: assembly {\n        /* \"contract/new_contract.sol\":60:8099  contract ERC20 {... */\n      mstore(0x40, 0x80)\n      callvalue\n      dup1\n      iszero\n      tag_1\n      jumpi\n      0x00\n      dup1\n      revert\n    tag_1:\n      pop\n      jumpi(tag_2, lt(calldatasize, 0x04))\n      shr(0xe0, calldataload(0x00))\n      dup1\n      0x648bf774\n      gt\n      tag_24\n      jumpi\n      dup1\n      0x95d89b41\n      gt\n      tag_25\n      jumpi\n      dup1\n      0x95d89b41\n      eq\n      tag_18\n      jumpi\n      dup1\n      0xa457c2d7\n      eq\n      tag_19\n      jumpi\n      dup1\n      0xa9059cbb\n      eq\n      tag_20\n      jumpi\n      dup1\n      0xbd6f529e\n      eq\n      tag_21\n      jumpi\n      dup1\n      0xdd62ed3e\n      eq\n      tag_22\n      jumpi\n      dup1\n      0xe25c4cf5\n      eq\n      tag_23\n      jumpi\n      jump(tag_2)\n    tag_25:\n      dup1\n      0x648bf774\n      eq\n      tag_13\n      jumpi\n      dup1\n      0x6e6ce65f\n      eq\n      tag_14\n      jumpi\n      dup1\n      0x70a08231\n      eq\n      tag_15\n      jumpi\n      dup1\n      0x8456cb59\n      eq\n      tag_16\n      jumpi\n      dup1\n      0x8f1de16e\n      eq\n      tag_17\n      jumpi\n      jump(tag_2)\n    tag_24:\n      dup1\n      0x313ce567\n      gt\n      tag_26\n      jumpi\n      dup1\n      0x313ce567\n      eq\n      tag_8\n      jumpi\n      dup1\n      0x39509351\n      eq\n      tag_9\n      jumpi\n      dup1\n      0x3f4ba83a\n      eq\n      tag_10\n      jumpi\n      dup1\n      0x4473ad52\n      eq\n      tag_11\n      jumpi\n      dup1\n      0x5c975abb\n      eq\n      tag_12\n      jumpi\n      jump(tag_2)\n    tag_26:\n      dup1\n      0x038defd7\n      eq\n      tag_3\n      jumpi\n      dup1\n      0x06fdde03\n      eq\n      tag_4\n      jumpi\n      dup1\n      0x095ea7b3\n      eq\n      tag_5\n      jumpi\n      dup1\n      0x18160ddd\n      eq\n      tag_6\n      jumpi\n      dup1\n      0x23b872dd\n      eq\n      tag_7\n      jumpi\n    tag_2:\n      0x00\n      dup1\n      revert\n        /* \"contract/new_contract.sol\":266:306  mapping(address => Data) public registry */\n    tag_3:\n      tag_27\n      0x04\n      dup1\n      calldatasize\n      sub\n      dup2\n      add\n      swap1\n      tag_28\n      swap2\n      swap1\n      tag_29\n      jump\t// in\n    tag_28:\n      tag_30\n      jump\t// in\n    tag_27:\n      mload(0x40)\n      tag_31\n      swap6\n      swap5\n      swap4\n      swap3\n      swap2\n      swap1\n      tag_32\n      jump\t// in\n    tag_31:\n      mload(0x40)\n      dup1\n      swap2\n      sub\n      swap1\n      return\n        /* \"contract/new_contract.sol\":1313:1396  function name() public view returns (string memory) {... */\n    tag_4:\n      tag_33\n      tag_34\n      jump\t// in\n    tag_33:\n      mload(0x40)\n      tag_35\n      swap2\n      swap1\n      tag_36\n      jump\t// in\n    tag_35:\n      mload(0x40)\n      dup1\n      swap2\n      sub\n      swap1\n      return\n        /* \"contract/new_contract.sol\":3867:4033  function approve(address spender, uint256 amount) public returns (bool) {... */\n    tag_5:\n      tag_37\n      0x04\n      dup1\n      calldatasize\n      sub\n      dup2\n      add\n      swap1\n      tag_38\n      swap2\n      swap1\n      tag_39\n      jump\t// in\n    tag_38:\n      tag_40\n      jump\t// in\n    tag_37:\n      mload(0x40)\n      tag_41\n      swap2\n      swap1\n      tag_42\n      jump\t// in\n    tag_41:\n      mload(0x40)\n      dup1\n      swap2\n      sub\n      swap1\n      return\n        /* \"contract/new_contract.sol\":1913:2004  function totalSupply() public view returns (uint256) {... */\n    tag_6:\n      tag_43\n      tag_44\n      jump\t// in\n    tag_43:\n      mload(0x40)\n      tag_45\n      swap2\n      swap1\n      tag_46\n      jump\t// in\n    tag_45:\n      mload(0x40)\n      dup1\n      swap2\n      sub\n      swap1\n      return\n        /* \"contract/new_contract.sol\":4037:4456  function transferFrom(address from, address to, uint256 amount) public whenUnpaused returns (bool) {... */\n    tag_7:\n      tag_47\n      0x04\n      dup1\n      calldatasize\n      sub\n      dup2\n      add\n      swap1\n      tag_48\n      swap2\n      swap1\n      tag_49\n      jump\t// in\n    tag_48:\n      tag_50\n      jump\t// in\n    tag_47:\n      mload(0x40)\n      tag_51\n      swap2\n      swap1\n      tag_42\n      jump\t// in\n    tag_51:\n      mload(0x40)\n      dup1\n      swap2\n      sub\n      swap1\n      return\n        /* \"contract/new_contract.sol\":1829:1905  function decimals() public pure returns (uint8) {... */\n    tag_8:\n      tag_52\n      tag_53\n      jump\t// in\n    tag_52:\n      mload(0x40)\n      tag_54\n      swap2\n      swap1\n      tag_55\n      jump\t// in\n    tag_54:\n      mload(0x40)\n      dup1\n      swap2\n      sub\n      swap1\n      return\n        /* \"contract/new_contract.sol\":4460:4672  function increaseAllowance(address spender, uint256 addedValue) public returns (bool) {... */\n    tag_9:\n      tag_56\n      0x04\n      dup1\n      calldatasize\n      sub\n      dup2\n      add\n      swap1\n      tag_57\n      swap2\n      swap1\n      tag_39\n      jump\t// in\n    tag_57:\n      tag_58\n      jump\t// in\n    tag_56:\n      mload(0x40)\n      tag_59\n      swap2\n      swap1\n      tag_42\n      jump\t// in\n    tag_59:\n      mload(0x40)\n      dup1\n      swap2\n      sub\n      swap1\n      return\n        /* \"contract/new_contract.sol\":1573:1726  function unpause() public onlyOwner {... */\n    tag_10:\n      tag_60\n      tag_61\n      jump\t// in\n    tag_60:\n      stop\n        /* \"contract/new_contract.sol\":2142:2269  function shareBalanceOf(address account) public view returns (uint256) {... */\n    tag_11:\n      tag_62\n      0x04\n      dup1\n      calldatasize\n      sub\n      dup2\n      add\n      swap1\n      tag_63\n      swap2\n      swap1\n      tag_29\n      jump\t// in\n    tag_63:\n      tag_64\n      jump\t// in\n    tag_62:\n      mload(0x40)\n      tag_65\n      swap2\n      swap1\n      tag_46\n      jump\t// in\n    tag_65:\n      mload(0x40)\n      dup1\n      swap2\n      sub\n      swap1\n      return\n        /* \"contract/new_contract.sol\":422:440  bool public paused */\n    tag_12:\n      tag_66\n      tag_67\n      jump\t// in\n    tag_66:\n      mload(0x40)\n      tag_68\n      swap2\n      swap1\n      tag_42\n      jump\t// in\n    tag_68:\n      mload(0x40)\n      dup1\n      swap2\n      sub\n      swap1\n      return\n        /* \"contract/new_contract.sol\":7324:8000  function recover(address from, address to) public onlyOwner {... */\n    tag_13:\n      tag_69\n      0x04\n      dup1\n      calldatasize\n      sub\n      dup2\n      add\n      swap1\n      tag_70\n      swap2\n      swap1\n      tag_71\n      jump\t// in\n    tag_70:\n      tag_72\n      jump\t// in\n    tag_69:\n      stop\n        /* \"contract/new_contract.sol\":7031:7320  function askForRecovery(address account) public {... */\n    tag_14:\n      tag_73\n      0x04\n      dup1\n      calldatasize\n      sub\n      dup2\n      add\n      swap1\n      tag_74\n      swap2\n      swap1\n      tag_29\n      jump\t// in\n    tag_74:\n      tag_75\n      jump\t// in\n    tag_73:\n      stop\n        /* \"contract/new_contract.sol\":2012:2134  function balanceOf(address account) public view returns (uint256) {... */\n    tag_15:\n      tag_76\n      0x04\n      dup1\n      calldatasize\n      sub\n      dup2\n      add\n      swap1\n      tag_77\n      swap2\n      swap1\n      tag_29\n      jump\t// in\n    tag_77:\n      tag_78\n      jump\t// in\n    tag_76:\n      mload(0x40)\n      tag_79\n      swap2\n      swap1\n      tag_46\n      jump\t// in\n    tag_79:\n      mload(0x40)\n      dup1\n      swap2\n      sub\n      swap1\n      return\n        /* \"contract/new_contract.sol\":1404:1565  function pause() public onlyOwner whenUnpaused {... */\n    tag_16:\n      tag_80\n      tag_81\n      jump\t// in\n    tag_80:\n      stop\n        /* \"contract/new_contract.sol\":6801:7027  function registerHash(bytes32 hash) public {... */\n    tag_17:\n      tag_82\n      0x04\n      dup1\n      calldatasize\n      sub\n      dup2\n      add\n      swap1\n      tag_83\n      swap2\n      swap1\n      tag_84\n      jump\t// in\n    tag_83:\n      tag_85\n      jump\t// in\n    tag_82:\n      stop\n        /* \"contract/new_contract.sol\":1734:1821  function symbol() public view returns (string memory) {... */\n    tag_18:\n      tag_86\n      tag_87\n      jump\t// in\n    tag_86:\n      mload(0x40)\n      tag_88\n      swap2\n      swap1\n      tag_36\n      jump\t// in\n    tag_88:\n      mload(0x40)\n      dup1\n      swap2\n      sub\n      swap1\n      return\n        /* \"contract/new_contract.sol\":4676:5068  function decreaseAllowance(address spender, uint256 subtractedValue) public returns (bool) {... */\n    tag_19:\n      tag_89\n      0x04\n      dup1\n      calldatasize\n      sub\n      dup2\n      add\n      swap1\n      tag_90\n      swap2\n      swap1\n      tag_39\n      jump\t// in\n    tag_90:\n      tag_91\n      jump\t// in\n    tag_89:\n      mload(0x40)\n      tag_92\n      swap2\n      swap1\n      tag_42\n      jump\t// in\n    tag_92:\n      mload(0x40)\n      dup1\n      swap2\n      sub\n      swap1\n      return\n        /* \"contract/new_contract.sol\":2453:3733  function transfer(address to, uint256 amount) public whenUnpaused returns (bool) {... */\n    tag_20:\n      tag_93\n      0x04\n      dup1\n      calldatasize\n      sub\n      dup2\n      add\n      swap1\n      tag_94\n      swap2\n      swap1\n      tag_39\n      jump\t// in\n    tag_94:\n      tag_95\n      jump\t// in\n    tag_93:\n      mload(0x40)\n      tag_96\n      swap2\n      swap1\n      tag_42\n      jump\t// in\n    tag_96:\n      mload(0x40)\n      dup1\n      swap2\n      sub\n      swap1\n      return\n        /* \"contract/new_contract.sol\":2277:2445  function fractionalShareBalanceOf(address account) public view virtual returns (uint256) {... */\n    tag_21:\n      tag_97\n      0x04\n      dup1\n      calldatasize\n      sub\n      dup2\n      add\n      swap1\n      tag_98\n      swap2\n      swap1\n      tag_29\n      jump\t// in\n    tag_98:\n      tag_99\n      jump\t// in\n    tag_97:\n      mload(0x40)\n      tag_100\n      swap2\n      swap1\n      tag_46\n      jump\t// in\n    tag_100:\n      mload(0x40)\n      dup1\n      swap2\n      sub\n      swap1\n      return\n        /* \"contract/new_contract.sol\":3737:3863  function allowance(address owner, address spender) public view returns (uint256) {... */\n    tag_22:\n      tag_101\n      0x04\n      dup1\n      calldatasize\n      sub\n      dup2\n      add\n      swap1\n      tag_102\n      swap2\n      swap1\n      tag_71\n      jump\t// in\n    tag_102:\n      tag_103\n      jump\t// in\n    tag_101:\n      mload(0x40)\n      tag_104\n      swap2\n      swap1\n      tag_46\n      jump\t// in\n    tag_104:\n      mload(0x40)\n      dup1\n      swap2\n      sub\n      swap1\n      return\n        /* \"contract/new_contract.sol\":503:529  address public corporation */\n    tag_23:\n      tag_105\n      tag_106\n      jump\t// in\n    tag_105:\n      mload(0x40)\n      tag_107\n      swap2\n      swap1\n      tag_108\n      jump\t// in\n    tag_107:\n      mload(0x40)\n      dup1\n      swap2\n      sub\n      swap1\n      return\n        /* \"contract/new_contract.sol\":266:306  mapping(address => Data) public registry */\n    tag_30:\n      mstore(0x20, 0x00)\n      dup1\n      0x00\n      mstore\n      keccak256(0x00, 0x40)\n      0x00\n      swap2\n      pop\n      swap1\n      pop\n      dup1\n      0x00\n      add\n      sload\n      swap1\n      dup1\n      0x01\n      add\n      sload\n      swap1\n      dup1\n      0x02\n      add\n      sload\n      swap1\n      dup1\n      0x03\n      add\n      sload\n      swap1\n      dup1\n      0x04\n      add\n      0x00\n      swap1\n      sload\n      swap1\n      0x0100\n      exp\n      swap1\n      div\n      0xff\n      and\n      swap1\n      pop\n      dup6\n      jump\t// out\n        /* \"contract/new_contract.sol\":1313:1396  function name() public view returns (string memory) {... */\n    tag_34:\n        /* \"contract/new_contract.sol\":1350:1363  string memory */\n      0x60\n        /* \"contract/new_contract.sol\":1383:1388  _name */\n      0x04\n        /* \"contract/new_contract.sol\":1376:1388  return _name */\n      dup1\n      sload\n      tag_110\n      swap1\n      tag_111\n      jump\t// in\n    tag_110:\n      dup1\n      0x1f\n      add\n      0x20\n      dup1\n      swap2\n      div\n      mul\n      0x20\n      add\n      mload(0x40)\n      swap1\n      dup2\n      add\n      0x40\n      mstore\n      dup1\n      swap3\n      swap2\n      swap1\n      dup2\n      dup2\n      mstore\n      0x20\n      add\n      dup3\n      dup1\n      sload\n      tag_112\n      swap1\n      tag_111\n      jump\t// in\n    tag_112:\n      dup1\n      iszero\n      tag_113\n      jumpi\n      dup1\n      0x1f\n      lt\n      tag_114\n      jumpi\n      0x0100\n      dup1\n      dup4\n      sload\n      div\n      mul\n      dup4\n      mstore\n      swap2\n      0x20\n      add\n      swap2\n      jump(tag_113)\n    tag_114:\n      dup3\n      add\n      swap2\n      swap1\n      0x00\n      mstore\n      keccak256(0x00, 0x20)\n      swap1\n    tag_115:\n      dup2\n      sload\n      dup2\n      mstore\n      swap1\n      0x01\n      add\n      swap1\n      0x20\n      add\n      dup1\n      dup4\n      gt\n      tag_115\n      jumpi\n      dup3\n      swap1\n      sub\n      0x1f\n      and\n      dup3\n      add\n      swap2\n    tag_113:\n      pop\n      pop\n      pop\n      pop\n      pop\n      swap1\n      pop\n        /* \"contract/new_contract.sol\":1313:1396  function name() public view returns (string memory) {... */\n      swap1\n      jump\t// out\n        /* \"contract/new_contract.sol\":3867:4033  function approve(address spender, uint256 amount) public returns (bool) {... */\n    tag_40:\n        /* \"contract/new_contract.sol\":3933:3937  bool */\n      0x00\n        /* \"contract/new_contract.sol\":3946:3959  address owner */\n      dup1\n        /* \"contract/new_contract.sol\":3962:3972  msg.sender */\n      caller\n        /* \"contract/new_contract.sol\":3946:3972  address owner = msg.sender */\n      swap1\n      pop\n        /* \"contract/new_contract.sol\":3979:4011  _approve(owner, spender, amount) */\n      tag_117\n        /* \"contract/new_contract.sol\":3988:3993  owner */\n      dup2\n        /* \"contract/new_contract.sol\":3995:4002  spender */\n      dup6\n        /* \"contract/new_contract.sol\":4004:4010  amount */\n      dup6\n        /* \"contract/new_contract.sol\":3979:3987  _approve */\n      tag_118\n        /* \"contract/new_contract.sol\":3979:4011  _approve(owner, spender, amount) */\n      jump\t// in\n    tag_117:\n        /* \"contract/new_contract.sol\":4025:4029  true */\n      0x01\n        /* \"contract/new_contract.sol\":4018:4029  return true */\n      swap2\n      pop\n      pop\n        /* \"contract/new_contract.sol\":3867:4033  function approve(address spender, uint256 amount) public returns (bool) {... */\n      swap3\n      swap2\n      pop\n      pop\n      jump\t// out\n        /* \"contract/new_contract.sol\":1913:2004  function totalSupply() public view returns (uint256) {... */\n    tag_44:\n        /* \"contract/new_contract.sol\":1957:1964  uint256 */\n      0x00\n        /* \"contract/new_contract.sol\":1984:1996  _totalSupply */\n      sload(0x02)\n        /* \"contract/new_contract.sol\":1977:1996  return _totalSupply */\n      swap1\n      pop\n        /* \"contract/new_contract.sol\":1913:2004  function totalSupply() public view returns (uint256) {... */\n      swap1\n      jump\t// out\n        /* \"contract/new_contract.sol\":4037:4456  function transferFrom(address from, address to, uint256 amount) public whenUnpaused returns (bool) {... */\n    tag_50:\n        /* \"contract/new_contract.sol\":4130:4134  bool */\n      0x00\n        /* \"contract/new_contract.sol\":920:926  paused */\n      0x03\n      0x00\n      swap1\n      sload\n      swap1\n      0x0100\n      exp\n      swap1\n      div\n      0xff\n      and\n        /* \"contract/new_contract.sol\":912:957  require(paused, \"ERC20: token is not paused\") */\n      tag_121\n      jumpi\n      mload(0x40)\n      0x08c379a000000000000000000000000000000000000000000000000000000000\n      dup2\n      mstore\n      0x04\n      add\n      tag_122\n      swap1\n      tag_123\n      jump\t// in\n    tag_122:\n      mload(0x40)\n      dup1\n      swap2\n      sub\n      swap1\n      revert\n    tag_121:\n        /* \"contract/new_contract.sol\":4143:4158  address spender */\n      0x00\n        /* \"contract/new_contract.sol\":4161:4171  msg.sender */\n      caller\n        /* \"contract/new_contract.sol\":4143:4171  address spender = msg.sender */\n      swap1\n      pop\n        /* \"contract/new_contract.sol\":4178:4202  uint256 currentAllowance */\n      0x00\n        /* \"contract/new_contract.sol\":4205:4229  allowance(from, spender) */\n      tag_125\n        /* \"contract/new_contract.sol\":4215:4219  from */\n      dup7\n        /* \"contract/new_contract.sol\":4221:4228  spender */\n      dup4\n        /* \"contract/new_contract.sol\":4205:4214  allowance */\n      tag_103\n        /* \"contract/new_contract.sol\":4205:4229  allowance(from, spender) */\n      jump\t// in\n    tag_125:\n        /* \"contract/new_contract.sol\":4178:4229  uint256 currentAllowance = allowance(from, spender) */\n      swap1\n      pop\n        /* \"contract/new_contract.sol\":4264:4270  amount */\n      dup4\n        /* \"contract/new_contract.sol\":4244:4260  currentAllowance */\n      dup2\n        /* \"contract/new_contract.sol\":4244:4270  currentAllowance >= amount */\n      lt\n      iszero\n        /* \"contract/new_contract.sol\":4236:4315  require(currentAllowance >= amount, \"ERC20: transfer amount exceeds allowance\") */\n      tag_126\n      jumpi\n      mload(0x40)\n      0x08c379a000000000000000000000000000000000000000000000000000000000\n      dup2\n      mstore\n      0x04\n      add\n      tag_127\n      swap1\n      tag_128\n      jump\t// in\n    tag_127:\n      mload(0x40)\n      dup1\n      swap2\n      sub\n      swap1\n      revert\n    tag_126:\n        /* \"contract/new_contract.sol\":4343:4393  _approve(from, spender, currentAllowance - amount) */\n      tag_129\n        /* \"contract/new_contract.sol\":4352:4356  from */\n      dup7\n        /* \"contract/new_contract.sol\":4358:4365  spender */\n      dup4\n        /* \"contract/new_contract.sol\":4386:4392  amount */\n      dup7\n        /* \"contract/new_contract.sol\":4367:4383  currentAllowance */\n      dup5\n        /* \"contract/new_contract.sol\":4367:4392  currentAllowance - amount */\n      sub\n        /* \"contract/new_contract.sol\":4343:4351  _approve */\n      tag_118\n        /* \"contract/new_contract.sol\":4343:4393  _approve(from, spender, currentAllowance - amount) */\n      jump\t// in\n    tag_129:\n        /* \"contract/new_contract.sol\":4407:4434  _transfer(from, to, amount) */\n      tag_130\n        /* \"contract/new_contract.sol\":4417:4421  from */\n      dup7\n        /* \"contract/new_contract.sol\":4423:4425  to */\n      dup7\n        /* \"contract/new_contract.sol\":4427:4433  amount */\n      dup7\n        /* \"contract/new_contract.sol\":4407:4416  _transfer */\n      tag_131\n        /* \"contract/new_contract.sol\":4407:4434  _transfer(from, to, amount) */\n      jump\t// in\n    tag_130:\n        /* \"contract/new_contract.sol\":4448:4452  true */\n      0x01\n        /* \"contract/new_contract.sol\":4441:4452  return true */\n      swap3\n      pop\n      pop\n      pop\n        /* \"contract/new_contract.sol\":4037:4456  function transferFrom(address from, address to, uint256 amount) public whenUnpaused returns (bool) {... */\n      swap4\n      swap3\n      pop\n      pop\n      pop\n      jump\t// out\n        /* \"contract/new_contract.sol\":1829:1905  function decimals() public pure returns (uint8) {... */\n    tag_53:\n        /* \"contract/new_contract.sol\":1870:1875  uint8 */\n      0x00\n        /* \"contract/new_contract.sol\":1895:1897  18 */\n      0x12\n        /* \"contract/new_contract.sol\":1888:1897  return 18 */\n      swap1\n      pop\n        /* \"contract/new_contract.sol\":1829:1905  function decimals() public pure returns (uint8) {... */\n      swap1\n      jump\t// out\n        /* \"contract/new_contract.sol\":4460:4672  function increaseAllowance(address spender, uint256 addedValue) public returns (bool) {... */\n    tag_58:\n        /* \"contract/new_contract.sol\":4540:4544  bool */\n      0x00\n        /* \"contract/new_contract.sol\":4553:4566  address owner */\n      dup1\n        /* \"contract/new_contract.sol\":4569:4579  msg.sender */\n      caller\n        /* \"contract/new_contract.sol\":4553:4579  address owner = msg.sender */\n      swap1\n      pop\n        /* \"contract/new_contract.sol\":4586:4650  _approve(owner, spender, allowance(owner, spender) + addedValue) */\n      tag_134\n        /* \"contract/new_contract.sol\":4595:4600  owner */\n      dup2\n        /* \"contract/new_contract.sol\":4602:4609  spender */\n      dup6\n        /* \"contract/new_contract.sol\":4639:4649  addedValue */\n      dup6\n        /* \"contract/new_contract.sol\":4611:4636  allowance(owner, spender) */\n      tag_135\n        /* \"contract/new_contract.sol\":4621:4626  owner */\n      dup6\n        /* \"contract/new_contract.sol\":4628:4635  spender */\n      dup10\n        /* \"contract/new_contract.sol\":4611:4620  allowance */\n      tag_103\n        /* \"contract/new_contract.sol\":4611:4636  allowance(owner, spender) */\n      jump\t// in\n    tag_135:\n        /* \"contract/new_contract.sol\":4611:4649  allowance(owner, spender) + addedValue */\n      tag_136\n      swap2\n      swap1\n      tag_137\n      jump\t// in\n    tag_136:\n        /* \"contract/new_contract.sol\":4586:4594  _approve */\n      tag_118\n        /* \"contract/new_contract.sol\":4586:4650  _approve(owner, spender, allowance(owner, spender) + addedValue) */\n      jump\t// in\n    tag_134:\n        /* \"contract/new_contract.sol\":4664:4668  true */\n      0x01\n        /* \"contract/new_contract.sol\":4657:4668  return true */\n      swap2\n      pop\n      pop\n        /* \"contract/new_contract.sol\":4460:4672  function increaseAllowance(address spender, uint256 addedValue) public returns (bool) {... */\n      swap3\n      swap2\n      pop\n      pop\n      jump\t// out\n        /* \"contract/new_contract.sol\":1573:1726  function unpause() public onlyOwner {... */\n    tag_61:\n        /* \"contract/new_contract.sol\":1039:1050  corporation */\n      0x06\n      0x00\n      swap1\n      sload\n      swap1\n      0x0100\n      exp\n      swap1\n      div\n      0xffffffffffffffffffffffffffffffffffffffff\n      and\n        /* \"contract/new_contract.sol\":1025:1050  msg.sender == corporation */\n      0xffffffffffffffffffffffffffffffffffffffff\n      and\n        /* \"contract/new_contract.sol\":1025:1035  msg.sender */\n      caller\n        /* \"contract/new_contract.sol\":1025:1050  msg.sender == corporation */\n      0xffffffffffffffffffffffffffffffffffffffff\n      and\n      eq\n        /* \"contract/new_contract.sol\":1017:1101  require(msg.sender == corporation, \"ERC20: only corporation can call this function\") */\n      tag_139\n      jumpi\n      mload(0x40)\n      0x08c379a000000000000000000000000000000000000000000000000000000000\n      dup2\n      mstore\n      0x04\n      add\n      tag_140\n      swap1\n      tag_141\n      jump\t// in\n    tag_140:\n      mload(0x40)\n      dup1\n      swap2\n      sub\n      swap1\n      revert\n    tag_139:\n        /* \"contract/new_contract.sol\":1642:1653  corporation */\n      0x06\n      0x00\n      swap1\n      sload\n      swap1\n      0x0100\n      exp\n      swap1\n      div\n      0xffffffffffffffffffffffffffffffffffffffff\n      and\n        /* \"contract/new_contract.sol\":1628:1653  msg.sender == corporation */\n      0xffffffffffffffffffffffffffffffffffffffff\n      and\n        /* \"contract/new_contract.sol\":1628:1638  msg.sender */\n      caller\n        /* \"contract/new_contract.sol\":1628:1653  msg.sender == corporation */\n      0xffffffffffffffffffffffffffffffffffffffff\n      and\n      eq\n        /* \"contract/new_contract.sol\":1620:1693  require(msg.sender == corporation, \"ERC20: only corporation can unpause\") */\n      tag_143\n      jumpi\n      mload(0x40)\n      0x08c379a000000000000000000000000000000000000000000000000000000000\n      dup2\n      mstore\n      0x04\n      add\n      tag_144\n      swap1\n      tag_145\n      jump\t// in\n    tag_144:\n      mload(0x40)\n      dup1\n      swap2\n      sub\n      swap1\n      revert\n    tag_143:\n        /* \"contract/new_contract.sol\":1713:1718  false */\n      0x00\n        /* \"contract/new_contract.sol\":1704:1710  paused */\n      0x03\n      0x00\n        /* \"contract/new_contract.sol\":1704:1718  paused = false */\n      0x0100\n      exp\n      dup2\n      sload\n      dup2\n      0xff\n      mul\n      not\n      and\n      swap1\n      dup4\n      iszero\n      iszero\n      mul\n      or\n      swap1\n      sstore\n      pop\n        /* \"contract/new_contract.sol\":1573:1726  function unpause() public onlyOwner {... */\n      jump\t// out\n        /* \"contract/new_contract.sol\":2142:2269  function shareBalanceOf(address account) public view returns (uint256) {... */\n    tag_64:\n        /* \"contract/new_contract.sol\":2204:2211  uint256 */\n      0x00\n        /* \"contract/new_contract.sol\":2231:2239  registry */\n      dup1\n        /* \"contract/new_contract.sol\":2231:2248  registry[account] */\n      0x00\n        /* \"contract/new_contract.sol\":2240:2247  account */\n      dup4\n        /* \"contract/new_contract.sol\":2231:2248  registry[account] */\n      0xffffffffffffffffffffffffffffffffffffffff\n      and\n      0xffffffffffffffffffffffffffffffffffffffff\n      and\n      dup2\n      mstore\n      0x20\n      add\n      swap1\n      dup2\n      mstore\n      0x20\n      add\n      0x00\n      keccak256\n        /* \"contract/new_contract.sol\":2231:2261  registry[account].shareBalance */\n      0x01\n      add\n      sload\n        /* \"contract/new_contract.sol\":2224:2261  return registry[account].shareBalance */\n      swap1\n      pop\n        /* \"contract/new_contract.sol\":2142:2269  function shareBalanceOf(address account) public view returns (uint256) {... */\n      swap2\n      swap1\n      pop\n      jump\t// out\n        /* \"contract/new_contract.sol\":422:440  bool public paused */\n    tag_67:\n      0x03\n      0x00\n      swap1\n      sload\n      swap1\n      0x0100\n      exp\n      swap1\n      div\n      0xff\n      and\n      dup2\n      jump\t// out\n        /* \"contract/new_contract.sol\":7324:8000  function recover(address from, address to) public onlyOwner {... */\n    tag_72:\n        /* \"contract/new_contract.sol\":1039:1050  corporation */\n      0x06\n      0x00\n      swap1\n      sload\n      swap1\n      0x0100\n      exp\n      swap1\n      div\n      0xffffffffffffffffffffffffffffffffffffffff\n      and\n        /* \"contract/new_contract.sol\":1025:1050  msg.sender == corporation */\n      0xffffffffffffffffffffffffffffffffffffffff\n      and\n        /* \"contract/new_contract.sol\":1025:1035  msg.sender */\n      caller\n        /* \"contract/new_contract.sol\":1025:1050  msg.sender == corporation */\n      0xffffffffffffffffffffffffffffffffffffffff\n      and\n      eq\n        /* \"contract/new_contract.sol\":1017:1101  require(msg.sender == corporation, \"ERC20: only corporation can call this function\") */\n      tag_148\n      jumpi\n      mload(0x40)\n      0x08c379a000000000000000000000000000000000000000000000000000000000\n      dup2\n      mstore\n      0x04\n      add\n      tag_149\n      swap1\n      tag_141\n      jump\t// in\n    tag_149:\n      mload(0x40)\n      dup1\n      swap2\n      sub\n      swap1\n      revert\n    tag_148:\n        /* \"contract/new_contract.sol\":7399:7407  registry */\n      0x00\n        /* \"contract/new_contract.sol\":7399:7413  registry[from] */\n      dup1\n        /* \"contract/new_contract.sol\":7408:7412  from */\n      dup4\n        /* \"contract/new_contract.sol\":7399:7413  registry[from] */\n      0xffffffffffffffffffffffffffffffffffffffff\n      and\n      0xffffffffffffffffffffffffffffffffffffffff\n      and\n      dup2\n      mstore\n      0x20\n      add\n      swap1\n      dup2\n      mstore\n      0x20\n      add\n      0x00\n      keccak256\n        /* \"contract/new_contract.sol\":7399:7425  registry[from].recoverable */\n      0x04\n      add\n      0x00\n      swap1\n      sload\n      swap1\n      0x0100\n      exp\n      swap1\n      div\n      0xff\n      and\n        /* \"contract/new_contract.sol\":7391:7461  require(registry[from].recoverable, \"Address not marked for recovery\") */\n      tag_151\n      jumpi\n      mload(0x40)\n      0x08c379a000000000000000000000000000000000000000000000000000000000\n      dup2\n      mstore\n      0x04\n      add\n      tag_152\n      swap1\n      tag_153\n      jump\t// in\n    tag_152:\n      mload(0x40)\n      dup1\n      swap2\n      sub\n      swap1\n      revert\n    tag_151:\n        /* \"contract/new_contract.sol\":7497:7505  registry */\n      0x00\n        /* \"contract/new_contract.sol\":7497:7511  registry[from] */\n      dup1\n        /* \"contract/new_contract.sol\":7506:7510  from */\n      dup4\n        /* \"contract/new_contract.sol\":7497:7511  registry[from] */\n      0xffffffffffffffffffffffffffffffffffffffff\n      and\n      0xffffffffffffffffffffffffffffffffffffffff\n      and\n      dup2\n      mstore\n      0x20\n      add\n      swap1\n      dup2\n      mstore\n      0x20\n      add\n      0x00\n      keccak256\n        /* \"contract/new_contract.sol\":7497:7524  registry[from].tokenBalance */\n      0x00\n      add\n      sload\n        /* \"contract/new_contract.sol\":7468:7476  registry */\n      0x00\n        /* \"contract/new_contract.sol\":7468:7480  registry[to] */\n      dup1\n        /* \"contract/new_contract.sol\":7477:7479  to */\n      dup4\n        /* \"contract/new_contract.sol\":7468:7480  registry[to] */\n      0xffffffffffffffffffffffffffffffffffffffff\n      and\n      0xffffffffffffffffffffffffffffffffffffffff\n      and\n      dup2\n      mstore\n      0x20\n      add\n      swap1\n      dup2\n      mstore\n      0x20\n      add\n      0x00\n      keccak256\n        /* \"contract/new_contract.sol\":7468:7493  registry[to].tokenBalance */\n      0x00\n      add\n      0x00\n        /* \"contract/new_contract.sol\":7468:7524  registry[to].tokenBalance += registry[from].tokenBalance */\n      dup3\n      dup3\n      sload\n      tag_154\n      swap2\n      swap1\n      tag_137\n      jump\t// in\n    tag_154:\n      swap3\n      pop\n      pop\n      dup2\n      swap1\n      sstore\n      pop\n        /* \"contract/new_contract.sol\":7560:7568  registry */\n      0x00\n        /* \"contract/new_contract.sol\":7560:7574  registry[from] */\n      dup1\n        /* \"contract/new_contract.sol\":7569:7573  from */\n      dup4\n        /* \"contract/new_contract.sol\":7560:7574  registry[from] */\n      0xffffffffffffffffffffffffffffffffffffffff\n      and\n      0xffffffffffffffffffffffffffffffffffffffff\n      and\n      dup2\n      mstore\n      0x20\n      add\n      swap1\n      dup2\n      mstore\n      0x20\n      add\n      0x00\n      keccak256\n        /* \"contract/new_contract.sol\":7560:7587  registry[from].shareBalance */\n      0x01\n      add\n      sload\n        /* \"contract/new_contract.sol\":7531:7539  registry */\n      0x00\n        /* \"contract/new_contract.sol\":7531:7543  registry[to] */\n      dup1\n        /* \"contract/new_contract.sol\":7540:7542  to */\n      dup4\n        /* \"contract/new_contract.sol\":7531:7543  registry[to] */\n      0xffffffffffffffffffffffffffffffffffffffff\n      and\n      0xffffffffffffffffffffffffffffffffffffffff\n      and\n      dup2\n      mstore\n      0x20\n      add\n      swap1\n      dup2\n      mstore\n      0x20\n      add\n      0x00\n      keccak256\n        /* \"contract/new_contract.sol\":7531:7556  registry[to].shareBalance */\n      0x01\n      add\n      0x00\n        /* \"contract/new_contract.sol\":7531:7587  registry[to].shareBalance += registry[from].shareBalance */\n      dup3\n      dup3\n      sload\n      tag_155\n      swap2\n      swap1\n      tag_137\n      jump\t// in\n    tag_155:\n      swap3\n      pop\n      pop\n      dup2\n      swap1\n      sstore\n      pop\n        /* \"contract/new_contract.sol\":7639:7647  registry */\n      0x00\n        /* \"contract/new_contract.sol\":7639:7653  registry[from] */\n      dup1\n        /* \"contract/new_contract.sol\":7648:7652  from */\n      dup4\n        /* \"contract/new_contract.sol\":7639:7653  registry[from] */\n      0xffffffffffffffffffffffffffffffffffffffff\n      and\n      0xffffffffffffffffffffffffffffffffffffffff\n      and\n      dup2\n      mstore\n      0x20\n      add\n      swap1\n      dup2\n      mstore\n      0x20\n      add\n      0x00\n      keccak256\n        /* \"contract/new_contract.sol\":7639:7682  registry[from].fractionalPartOfTokenBalance */\n      0x02\n      add\n      sload\n        /* \"contract/new_contract.sol\":7594:7602  registry */\n      0x00\n        /* \"contract/new_contract.sol\":7594:7606  registry[to] */\n      dup1\n        /* \"contract/new_contract.sol\":7603:7605  to */\n      dup4\n        /* \"contract/new_contract.sol\":7594:7606  registry[to] */\n      0xffffffffffffffffffffffffffffffffffffffff\n      and\n      0xffffffffffffffffffffffffffffffffffffffff\n      and\n      dup2\n      mstore\n      0x20\n      add\n      swap1\n      dup2\n      mstore\n      0x20\n      add\n      0x00\n      keccak256\n        /* \"contract/new_contract.sol\":7594:7635  registry[to].fractionalPartOfTokenBalance */\n      0x02\n      add\n      0x00\n        /* \"contract/new_contract.sol\":7594:7682  registry[to].fractionalPartOfTokenBalance += registry[from].fractionalPartOfTokenBalance */\n      dup3\n      dup3\n      sload\n      tag_156\n      swap2\n      swap1\n      tag_137\n      jump\t// in\n    tag_156:\n      swap3\n      pop\n      pop\n      dup2\n      swap1\n      sstore\n      pop\n        /* \"contract/new_contract.sol\":7721:7729  registry */\n      0x00\n        /* \"contract/new_contract.sol\":7721:7735  registry[from] */\n      dup1\n        /* \"contract/new_contract.sol\":7730:7734  from */\n      dup4\n        /* \"contract/new_contract.sol\":7721:7735  registry[from] */\n      0xffffffffffffffffffffffffffffffffffffffff\n      and\n      0xffffffffffffffffffffffffffffffffffffffff\n      and\n      dup2\n      mstore\n      0x20\n      add\n      swap1\n      dup2\n      mstore\n      0x20\n      add\n      0x00\n      keccak256\n        /* \"contract/new_contract.sol\":7721:7752  registry[from].registrationHash */\n      0x03\n      add\n      sload\n        /* \"contract/new_contract.sol\":7689:7697  registry */\n      0x00\n        /* \"contract/new_contract.sol\":7689:7701  registry[to] */\n      dup1\n        /* \"contract/new_contract.sol\":7698:7700  to */\n      dup4\n        /* \"contract/new_contract.sol\":7689:7701  registry[to] */\n      0xffffffffffffffffffffffffffffffffffffffff\n      and\n      0xffffffffffffffffffffffffffffffffffffffff\n      and\n      dup2\n      mstore\n      0x20\n      add\n      swap1\n      dup2\n      mstore\n      0x20\n      add\n      0x00\n      keccak256\n        /* \"contract/new_contract.sol\":7689:7718  registry[to].registrationHash */\n      0x03\n      add\n        /* \"contract/new_contract.sol\":7689:7752  registry[to].registrationHash = registry[from].registrationHash */\n      dup2\n      swap1\n      sstore\n      pop\n        /* \"contract/new_contract.sol\":7791:7792  0 */\n      0x00\n        /* \"contract/new_contract.sol\":7761:7769  registry */\n      dup1\n        /* \"contract/new_contract.sol\":7761:7775  registry[from] */\n      0x00\n        /* \"contract/new_contract.sol\":7770:7774  from */\n      dup5\n        /* \"contract/new_contract.sol\":7761:7775  registry[from] */\n      0xffffffffffffffffffffffffffffffffffffffff\n      and\n      0xffffffffffffffffffffffffffffffffffffffff\n      and\n      dup2\n      mstore\n      0x20\n      add\n      swap1\n      dup2\n      mstore\n      0x20\n      add\n      0x00\n      keccak256\n        /* \"contract/new_contract.sol\":7761:7788  registry[from].tokenBalance */\n      0x00\n      add\n        /* \"contract/new_contract.sol\":7761:7792  registry[from].tokenBalance = 0 */\n      dup2\n      swap1\n      sstore\n      pop\n        /* \"contract/new_contract.sol\":7829:7830  0 */\n      0x00\n        /* \"contract/new_contract.sol\":7799:7807  registry */\n      dup1\n        /* \"contract/new_contract.sol\":7799:7813  registry[from] */\n      0x00\n        /* \"contract/new_contract.sol\":7808:7812  from */\n      dup5\n        /* \"contract/new_contract.sol\":7799:7813  registry[from] */\n      0xffffffffffffffffffffffffffffffffffffffff\n      and\n      0xffffffffffffffffffffffffffffffffffffffff\n      and\n      dup2\n      mstore\n      0x20\n      add\n      swap1\n      dup2\n      mstore\n      0x20\n      add\n      0x00\n      keccak256\n        /* \"contract/new_contract.sol\":7799:7826  registry[from].shareBalance */\n      0x01\n      add\n        /* \"contract/new_contract.sol\":7799:7830  registry[from].shareBalance = 0 */\n      dup2\n      swap1\n      sstore\n      pop\n        /* \"contract/new_contract.sol\":7883:7884  0 */\n      0x00\n        /* \"contract/new_contract.sol\":7837:7845  registry */\n      dup1\n        /* \"contract/new_contract.sol\":7837:7851  registry[from] */\n      0x00\n        /* \"contract/new_contract.sol\":7846:7850  from */\n      dup5\n        /* \"contract/new_contract.sol\":7837:7851  registry[from] */\n      0xffffffffffffffffffffffffffffffffffffffff\n      and\n      0xffffffffffffffffffffffffffffffffffffffff\n      and\n      dup2\n      mstore\n      0x20\n      add\n      swap1\n      dup2\n      mstore\n      0x20\n      add\n      0x00\n      keccak256\n        /* \"contract/new_contract.sol\":7837:7880  registry[from].fractionalPartOfTokenBalance */\n      0x02\n      add\n        /* \"contract/new_contract.sol\":7837:7884  registry[from].fractionalPartOfTokenBalance = 0 */\n      dup2\n      swap1\n      sstore\n      pop\n        /* \"contract/new_contract.sol\":7925:7926  0 */\n      0x00\n        /* \"contract/new_contract.sol\":7891:7926  registry[from].registrationHash = 0 */\n      dup1\n      shl\n        /* \"contract/new_contract.sol\":7891:7899  registry */\n      0x00\n        /* \"contract/new_contract.sol\":7891:7905  registry[from] */\n      dup1\n        /* \"contract/new_contract.sol\":7900:7904  from */\n      dup5\n        /* \"contract/new_contract.sol\":7891:7905  registry[from] */\n      0xffffffffffffffffffffffffffffffffffffffff\n      and\n      0xffffffffffffffffffffffffffffffffffffffff\n      and\n      dup2\n      mstore\n      0x20\n      add\n      swap1\n      dup2\n      mstore\n      0x20\n      add\n      0x00\n      keccak256\n        /* \"contract/new_contract.sol\":7891:7922  registry[from].registrationHash */\n      0x03\n      add\n        /* \"contract/new_contract.sol\":7891:7926  registry[from].registrationHash = 0 */\n      dup2\n      swap1\n      sstore\n      pop\n        /* \"contract/new_contract.sol\":7962:7967  false */\n      0x00\n        /* \"contract/new_contract.sol\":7933:7941  registry */\n      dup1\n        /* \"contract/new_contract.sol\":7933:7947  registry[from] */\n      0x00\n        /* \"contract/new_contract.sol\":7942:7946  from */\n      dup5\n        /* \"contract/new_contract.sol\":7933:7947  registry[from] */\n      0xffffffffffffffffffffffffffffffffffffffff\n      and\n      0xffffffffffffffffffffffffffffffffffffffff\n      and\n      dup2\n      mstore\n      0x20\n      add\n      swap1\n      dup2\n      mstore\n      0x20\n      add\n      0x00\n      keccak256\n        /* \"contract/new_contract.sol\":7933:7959  registry[from].recoverable */\n      0x04\n      add\n      0x00\n        /* \"contract/new_contract.sol\":7933:7967  registry[from].recoverable = false */\n      0x0100\n      exp\n      dup2\n      sload\n      dup2\n      0xff\n      mul\n      not\n      and\n      swap1\n      dup4\n      iszero\n      iszero\n      mul\n      or\n      swap1\n      sstore\n      pop\n        /* \"contract/new_contract.sol\":7991:7995  from */\n      dup2\n        /* \"contract/new_contract.sol\":7981:7996  Recovered(from) */\n      0xffffffffffffffffffffffffffffffffffffffff\n      and\n      0x5e06a4da1c258ba9bc6142ca9e5b6dfa64e57f7fc4e91a150ba0b3fd301587a0\n      mload(0x40)\n      mload(0x40)\n      dup1\n      swap2\n      sub\n      swap1\n      log2\n        /* \"contract/new_contract.sol\":7324:8000  function recover(address from, address to) public onlyOwner {... */\n      pop\n      pop\n      jump\t// out\n        /* \"contract/new_contract.sol\":7031:7320  function askForRecovery(address account) public {... */\n    tag_75:\n        /* \"contract/new_contract.sol\":7132:7133  0 */\n      0x00\n        /* \"contract/new_contract.sol\":7094:7133  registry[account].registrationHash != 0 */\n      dup1\n      shl\n        /* \"contract/new_contract.sol\":7094:7102  registry */\n      0x00\n        /* \"contract/new_contract.sol\":7094:7111  registry[account] */\n      dup1\n        /* \"contract/new_contract.sol\":7103:7110  account */\n      dup4\n        /* \"contract/new_contract.sol\":7094:7111  registry[account] */\n      0xffffffffffffffffffffffffffffffffffffffff\n      and\n      0xffffffffffffffffffffffffffffffffffffffff\n      and\n      dup2\n      mstore\n      0x20\n      add\n      swap1\n      dup2\n      mstore\n      0x20\n      add\n      0x00\n      keccak256\n        /* \"contract/new_contract.sol\":7094:7128  registry[account].registrationHash */\n      0x03\n      add\n      sload\n        /* \"contract/new_contract.sol\":7094:7133  registry[account].registrationHash != 0 */\n      sub\n        /* \"contract/new_contract.sol\":7086:7160  require(registry[account].registrationHash != 0, \"Address not registered\") */\n      tag_158\n      jumpi\n      mload(0x40)\n      0x08c379a000000000000000000000000000000000000000000000000000000000\n      dup2\n      mstore\n      0x04\n      add\n      tag_159\n      swap1\n      tag_160\n      jump\t// in\n    tag_159:\n      mload(0x40)\n      dup1\n      swap2\n      sub\n      swap1\n      revert\n    tag_158:\n        /* \"contract/new_contract.sol\":7176:7184  registry */\n      0x00\n        /* \"contract/new_contract.sol\":7176:7193  registry[account] */\n      dup1\n        /* \"contract/new_contract.sol\":7185:7192  account */\n      dup3\n        /* \"contract/new_contract.sol\":7176:7193  registry[account] */\n      0xffffffffffffffffffffffffffffffffffffffff\n      and\n      0xffffffffffffffffffffffffffffffffffffffff\n      and\n      dup2\n      mstore\n      0x20\n      add\n      swap1\n      dup2\n      mstore\n      0x20\n      add\n      0x00\n      keccak256\n        /* \"contract/new_contract.sol\":7176:7205  registry[account].recoverable */\n      0x04\n      add\n      0x00\n      swap1\n      sload\n      swap1\n      0x0100\n      exp\n      swap1\n      div\n      0xff\n      and\n        /* \"contract/new_contract.sol\":7175:7205  !registry[account].recoverable */\n      iszero\n        /* \"contract/new_contract.sol\":7167:7236  require(!registry[account].recoverable, \"Recovery already requested\") */\n      tag_161\n      jumpi\n      mload(0x40)\n      0x08c379a000000000000000000000000000000000000000000000000000000000\n      dup2\n      mstore\n      0x04\n      add\n      tag_162\n      swap1\n      tag_163\n      jump\t// in\n    tag_162:\n      mload(0x40)\n      dup1\n      swap2\n      sub\n      swap1\n      revert\n    tag_161:\n        /* \"contract/new_contract.sol\":7275:7279  true */\n      0x01\n        /* \"contract/new_contract.sol\":7243:7251  registry */\n      0x00\n        /* \"contract/new_contract.sol\":7243:7260  registry[account] */\n      dup1\n        /* \"contract/new_contract.sol\":7252:7259  account */\n      dup4\n        /* \"contract/new_contract.sol\":7243:7260  registry[account] */\n      0xffffffffffffffffffffffffffffffffffffffff\n      and\n      0xffffffffffffffffffffffffffffffffffffffff\n      and\n      dup2\n      mstore\n      0x20\n      add\n      swap1\n      dup2\n      mstore\n      0x20\n      add\n      0x00\n      keccak256\n        /* \"contract/new_contract.sol\":7243:7272  registry[account].recoverable */\n      0x04\n      add\n      0x00\n        /* \"contract/new_contract.sol\":7243:7279  registry[account].recoverable = true */\n      0x0100\n      exp\n      dup2\n      sload\n      dup2\n      0xff\n      mul\n      not\n      and\n      swap1\n      dup4\n      iszero\n      iszero\n      mul\n      or\n      swap1\n      sstore\n      pop\n        /* \"contract/new_contract.sol\":7308:7315  account */\n      dup1\n        /* \"contract/new_contract.sol\":7291:7316  AskedForRecovery(account) */\n      0xffffffffffffffffffffffffffffffffffffffff\n      and\n      0xadf0efce7d511d3bf9054d210d803d5d49cad8479bc76ede63aefcaee73a646f\n      mload(0x40)\n      mload(0x40)\n      dup1\n      swap2\n      sub\n      swap1\n      log2\n        /* \"contract/new_contract.sol\":7031:7320  function askForRecovery(address account) public {... */\n      pop\n      jump\t// out\n        /* \"contract/new_contract.sol\":2012:2134  function balanceOf(address account) public view returns (uint256) {... */\n    tag_78:\n        /* \"contract/new_contract.sol\":2069:2076  uint256 */\n      0x00\n        /* \"contract/new_contract.sol\":2096:2104  registry */\n      dup1\n        /* \"contract/new_contract.sol\":2096:2113  registry[account] */\n      0x00\n        /* \"contract/new_contract.sol\":2105:2112  account */\n      dup4\n        /* \"contract/new_contract.sol\":2096:2113  registry[account] */\n      0xffffffffffffffffffffffffffffffffffffffff\n      and\n      0xffffffffffffffffffffffffffffffffffffffff\n      and\n      dup2\n      mstore\n      0x20\n      add\n      swap1\n      dup2\n      mstore\n      0x20\n      add\n      0x00\n      keccak256\n        /* \"contract/new_contract.sol\":2096:2126  registry[account].tokenBalance */\n      0x00\n      add\n      sload\n        /* \"contract/new_contract.sol\":2089:2126  return registry[account].tokenBalance */\n      swap1\n      pop\n        /* \"contract/new_contract.sol\":2012:2134  function balanceOf(address account) public view returns (uint256) {... */\n      swap2\n      swap1\n      pop\n      jump\t// out\n        /* \"contract/new_contract.sol\":1404:1565  function pause() public onlyOwner whenUnpaused {... */\n    tag_81:\n        /* \"contract/new_contract.sol\":1039:1050  corporation */\n      0x06\n      0x00\n      swap1\n      sload\n      swap1\n      0x0100\n      exp\n      swap1\n      div\n      0xffffffffffffffffffffffffffffffffffffffff\n      and\n        /* \"contract/new_contract.sol\":1025:1050  msg.sender == corporation */\n      0xffffffffffffffffffffffffffffffffffffffff\n      and\n        /* \"contract/new_contract.sol\":1025:1035  msg.sender */\n      caller\n        /* \"contract/new_contract.sol\":1025:1050  msg.sender == corporation */\n      0xffffffffffffffffffffffffffffffffffffffff\n      and\n      eq\n        /* \"contract/new_contract.sol\":1017:1101  require(msg.sender == corporation, \"ERC20: only corporation can call this function\") */\n      tag_166\n      jumpi\n      mload(0x40)\n      0x08c379a000000000000000000000000000000000000000000000000000000000\n      dup2\n      mstore\n      0x04\n      add\n      tag_167\n      swap1\n      tag_141\n      jump\t// in\n    tag_167:\n      mload(0x40)\n      dup1\n      swap2\n      sub\n      swap1\n      revert\n    tag_166:\n        /* \"contract/new_contract.sol\":920:926  paused */\n      0x03\n      0x00\n      swap1\n      sload\n      swap1\n      0x0100\n      exp\n      swap1\n      div\n      0xff\n      and\n        /* \"contract/new_contract.sol\":912:957  require(paused, \"ERC20: token is not paused\") */\n      tag_169\n      jumpi\n      mload(0x40)\n      0x08c379a000000000000000000000000000000000000000000000000000000000\n      dup2\n      mstore\n      0x04\n      add\n      tag_170\n      swap1\n      tag_123\n      jump\t// in\n    tag_170:\n      mload(0x40)\n      dup1\n      swap2\n      sub\n      swap1\n      revert\n    tag_169:\n        /* \"contract/new_contract.sol\":1484:1495  corporation */\n      0x06\n      0x00\n      swap1\n      sload\n      swap1\n      0x0100\n      exp\n      swap1\n      div\n      0xffffffffffffffffffffffffffffffffffffffff\n      and\n        /* \"contract/new_contract.sol\":1470:1495  msg.sender == corporation */\n      0xffffffffffffffffffffffffffffffffffffffff\n      and\n        /* \"contract/new_contract.sol\":1470:1480  msg.sender */\n      caller\n        /* \"contract/new_contract.sol\":1470:1495  msg.sender == corporation */\n      0xffffffffffffffffffffffffffffffffffffffff\n      and\n      eq\n        /* \"contract/new_contract.sol\":1462:1533  require(msg.sender == corporation, \"ERC20: only corporation can pause\") */\n      tag_172\n      jumpi\n      mload(0x40)\n      0x08c379a000000000000000000000000000000000000000000000000000000000\n      dup2\n      mstore\n      0x04\n      add\n      tag_173\n      swap1\n      tag_174\n      jump\t// in\n    tag_173:\n      mload(0x40)\n      dup1\n      swap2\n      sub\n      swap1\n      revert\n    tag_172:\n        /* \"contract/new_contract.sol\":1553:1557  true */\n      0x01\n        /* \"contract/new_contract.sol\":1544:1550  paused */\n      0x03\n      0x00\n        /* \"contract/new_contract.sol\":1544:1557  paused = true */\n      0x0100\n      exp\n      dup2\n      sload\n      dup2\n      0xff\n      mul\n      not\n      and\n      swap1\n      dup4\n      iszero\n      iszero\n      mul\n      or\n      swap1\n      sstore\n      pop\n        /* \"contract/new_contract.sol\":1404:1565  function pause() public onlyOwner whenUnpaused {... */\n      jump\t// out\n        /* \"contract/new_contract.sol\":6801:7027  function registerHash(bytes32 hash) public {... */\n    tag_85:\n        /* \"contract/new_contract.sol\":6900:6901  0 */\n      0x00\n        /* \"contract/new_contract.sol\":6859:6901  registry[msg.sender].registrationHash == 0 */\n      dup1\n      shl\n        /* \"contract/new_contract.sol\":6859:6867  registry */\n      0x00\n        /* \"contract/new_contract.sol\":6859:6879  registry[msg.sender] */\n      dup1\n        /* \"contract/new_contract.sol\":6868:6878  msg.sender */\n      caller\n        /* \"contract/new_contract.sol\":6859:6879  registry[msg.sender] */\n      0xffffffffffffffffffffffffffffffffffffffff\n      and\n      0xffffffffffffffffffffffffffffffffffffffff\n      and\n      dup2\n      mstore\n      0x20\n      add\n      swap1\n      dup2\n      mstore\n      0x20\n      add\n      0x00\n      keccak256\n        /* \"contract/new_contract.sol\":6859:6896  registry[msg.sender].registrationHash */\n      0x03\n      add\n      sload\n        /* \"contract/new_contract.sol\":6859:6901  registry[msg.sender].registrationHash == 0 */\n      eq\n        /* \"contract/new_contract.sol\":6851:6932  require(registry[msg.sender].registrationHash == 0, \"Address already registered\") */\n      tag_176\n      jumpi\n      mload(0x40)\n      0x08c379a000000000000000000000000000000000000000000000000000000000\n      dup2\n      mstore\n      0x04\n      add\n      tag_177\n      swap1\n      tag_178\n      jump\t// in\n    tag_177:\n      mload(0x40)\n      dup1\n      swap2\n      sub\n      swap1\n      revert\n    tag_176:\n        /* \"contract/new_contract.sol\":6979:6983  hash */\n      dup1\n        /* \"contract/new_contract.sol\":6939:6947  registry */\n      0x00\n        /* \"contract/new_contract.sol\":6939:6959  registry[msg.sender] */\n      dup1\n        /* \"contract/new_contract.sol\":6948:6958  msg.sender */\n      caller\n        /* \"contract/new_contract.sol\":6939:6959  registry[msg.sender] */\n      0xffffffffffffffffffffffffffffffffffffffff\n      and\n      0xffffffffffffffffffffffffffffffffffffffff\n      and\n      dup2\n      mstore\n      0x20\n      add\n      swap1\n      dup2\n      mstore\n      0x20\n      add\n      0x00\n      keccak256\n        /* \"contract/new_contract.sol\":6939:6976  registry[msg.sender].registrationHash */\n      0x03\n      add\n        /* \"contract/new_contract.sol\":6939:6983  registry[msg.sender].registrationHash = hash */\n      dup2\n      swap1\n      sstore\n      pop\n        /* \"contract/new_contract.sol\":7006:7016  msg.sender */\n      caller\n        /* \"contract/new_contract.sol\":6995:7023  Registered(msg.sender, hash) */\n      0xffffffffffffffffffffffffffffffffffffffff\n      and\n      0xb8142d42f05d95abf0a6570799774d59276e49ea32a04d9a4ec316ea4a6886bc\n        /* \"contract/new_contract.sol\":7018:7022  hash */\n      dup3\n        /* \"contract/new_contract.sol\":6995:7023  Registered(msg.sender, hash) */\n      mload(0x40)\n      tag_179\n      swap2\n      swap1\n      tag_180\n      jump\t// in\n    tag_179:\n      mload(0x40)\n      dup1\n      swap2\n      sub\n      swap1\n      log2\n        /* \"contract/new_contract.sol\":6801:7027  function registerHash(bytes32 hash) public {... */\n      pop\n      jump\t// out\n        /* \"contract/new_contract.sol\":1734:1821  function symbol() public view returns (string memory) {... */\n    tag_87:\n        /* \"contract/new_contract.sol\":1773:1786  string memory */\n      0x60\n        /* \"contract/new_contract.sol\":1806:1813  _symbol */\n      0x05\n        /* \"contract/new_contract.sol\":1799:1813  return _symbol */\n      dup1\n      sload\n      tag_182\n      swap1\n      tag_111\n      jump\t// in\n    tag_182:\n      dup1\n      0x1f\n      add\n      0x20\n      dup1\n      swap2\n      div\n      mul\n      0x20\n      add\n      mload(0x40)\n      swap1\n      dup2\n      add\n      0x40\n      mstore\n      dup1\n      swap3\n      swap2\n      swap1\n      dup2\n      dup2\n      mstore\n      0x20\n      add\n      dup3\n      dup1\n      sload\n      tag_183\n      swap1\n      tag_111\n      jump\t// in\n    tag_183:\n      dup1\n      iszero\n      tag_184\n      jumpi\n      dup1\n      0x1f\n      lt\n      tag_185\n      jumpi\n      0x0100\n      dup1\n      dup4\n      sload\n      div\n      mul\n      dup4\n      mstore\n      swap2\n      0x20\n      add\n      swap2\n      jump(tag_184)\n    tag_185:\n      dup3\n      add\n      swap2\n      swap1\n      0x00\n      mstore\n      keccak256(0x00, 0x20)\n      swap1\n    tag_186:\n      dup2\n      sload\n      dup2\n      mstore\n      swap1\n      0x01\n      add\n      swap1\n      0x20\n      add\n      dup1\n      dup4\n      gt\n      tag_186\n      jumpi\n      dup3\n      swap1\n      sub\n      0x1f\n      and\n      dup3\n      add\n      swap2\n    tag_184:\n      pop\n      pop\n      pop\n      pop\n      pop\n      swap1\n      pop\n        /* \"contract/new_contract.sol\":1734:1821  function symbol() public view returns (string memory) {... */\n      swap1\n      jump\t// out\n        /* \"contract/new_contract.sol\":4676:5068  function decreaseAllowance(address spender, uint256 subtractedValue) public returns (bool) {... */\n    tag_91:\n        /* \"contract/new_contract.sol\":4761:4765  bool */\n      0x00\n        /* \"contract/new_contract.sol\":4774:4787  address owner */\n      dup1\n        /* \"contract/new_contract.sol\":4790:4800  msg.sender */\n      caller\n        /* \"contract/new_contract.sol\":4774:4800  address owner = msg.sender */\n      swap1\n      pop\n        /* \"contract/new_contract.sol\":4807:4831  uint256 currentAllowance */\n      0x00\n        /* \"contract/new_contract.sol\":4834:4859  allowance(owner, spender) */\n      tag_188\n        /* \"contract/new_contract.sol\":4844:4849  owner */\n      dup3\n        /* \"contract/new_contract.sol\":4851:4858  spender */\n      dup7\n        /* \"contract/new_contract.sol\":4834:4843  allowance */\n      tag_103\n        /* \"contract/new_contract.sol\":4834:4859  allowance(owner, spender) */\n      jump\t// in\n    tag_188:\n        /* \"contract/new_contract.sol\":4807:4859  uint256 currentAllowance = allowance(owner, spender) */\n      swap1\n      pop\n        /* \"contract/new_contract.sol\":4894:4909  subtractedValue */\n      dup4\n        /* \"contract/new_contract.sol\":4874:4890  currentAllowance */\n      dup2\n        /* \"contract/new_contract.sol\":4874:4909  currentAllowance >= subtractedValue */\n      lt\n      iszero\n        /* \"contract/new_contract.sol\":4866:4951  require(currentAllowance >= subtractedValue, \"ERC20: decreased allowance below zero\") */\n      tag_189\n      jumpi\n      mload(0x40)\n      0x08c379a000000000000000000000000000000000000000000000000000000000\n      dup2\n      mstore\n      0x04\n      add\n      tag_190\n      swap1\n      tag_191\n      jump\t// in\n    tag_190:\n      mload(0x40)\n      dup1\n      swap2\n      sub\n      swap1\n      revert\n    tag_189:\n        /* \"contract/new_contract.sol\":4979:5039  _approve(owner, spender, currentAllowance - subtractedValue) */\n      tag_192\n        /* \"contract/new_contract.sol\":4988:4993  owner */\n      dup3\n        /* \"contract/new_contract.sol\":4995:5002  spender */\n      dup7\n        /* \"contract/new_contract.sol\":5023:5038  subtractedValue */\n      dup7\n        /* \"contract/new_contract.sol\":5004:5020  currentAllowance */\n      dup5\n        /* \"contract/new_contract.sol\":5004:5038  currentAllowance - subtractedValue */\n      sub\n        /* \"contract/new_contract.sol\":4979:4987  _approve */\n      tag_118\n        /* \"contract/new_contract.sol\":4979:5039  _approve(owner, spender, currentAllowance - subtractedValue) */\n      jump\t// in\n    tag_192:\n        /* \"contract/new_contract.sol\":5060:5064  true */\n      0x01\n        /* \"contract/new_contract.sol\":5053:5064  return true */\n      swap3\n      pop\n      pop\n      pop\n        /* \"contract/new_contract.sol\":4676:5068  function decreaseAllowance(address spender, uint256 subtractedValue) public returns (bool) {... */\n      swap3\n      swap2\n      pop\n      pop\n      jump\t// out\n        /* \"contract/new_contract.sol\":2453:3733  function transfer(address to, uint256 amount) public whenUnpaused returns (bool) {... */\n    tag_95:\n        /* \"contract/new_contract.sol\":2528:2532  bool */\n      0x00\n        /* \"contract/new_contract.sol\":920:926  paused */\n      0x03\n      0x00\n      swap1\n      sload\n      swap1\n      0x0100\n      exp\n      swap1\n      div\n      0xff\n      and\n        /* \"contract/new_contract.sol\":912:957  require(paused, \"ERC20: token is not paused\") */\n      tag_194\n      jumpi\n      mload(0x40)\n      0x08c379a000000000000000000000000000000000000000000000000000000000\n      dup2\n      mstore\n      0x04\n      add\n      tag_195\n      swap1\n      tag_123\n      jump\t// in\n    tag_195:\n      mload(0x40)\n      dup1\n      swap2\n      sub\n      swap1\n      revert\n    tag_194:\n        /* \"contract/new_contract.sol\":2563:2571  registry */\n      0x00\n        /* \"contract/new_contract.sol\":2563:2583  registry[msg.sender] */\n      dup1\n        /* \"contract/new_contract.sol\":2572:2582  msg.sender */\n      caller\n        /* \"contract/new_contract.sol\":2563:2583  registry[msg.sender] */\n      0xffffffffffffffffffffffffffffffffffffffff\n      and\n      0xffffffffffffffffffffffffffffffffffffffff\n      and\n      dup2\n      mstore\n      0x20\n      add\n      swap1\n      dup2\n      mstore\n      0x20\n      add\n      0x00\n      keccak256\n        /* \"contract/new_contract.sol\":2563:2596  registry[msg.sender].tokenBalance */\n      0x00\n      add\n      sload\n        /* \"contract/new_contract.sol\":2553:2559  amount */\n      dup3\n        /* \"contract/new_contract.sol\":2553:2596  amount <= registry[msg.sender].tokenBalance */\n      gt\n      iszero\n        /* \"contract/new_contract.sol\":2545:2628  require(amount <= registry[msg.sender].tokenBalance, \"Token balance is not enough\") */\n      tag_197\n      jumpi\n      mload(0x40)\n      0x08c379a000000000000000000000000000000000000000000000000000000000\n      dup2\n      mstore\n      0x04\n      add\n      tag_198\n      swap1\n      tag_199\n      jump\t// in\n    tag_198:\n      mload(0x40)\n      dup1\n      swap2\n      sub\n      swap1\n      revert\n    tag_197:\n        /* \"contract/new_contract.sol\":2639:2653  uint256 shares */\n      0x00\n        /* \"contract/new_contract.sol\":2665:2669  1e18 */\n      0x0de0b6b3a7640000\n        /* \"contract/new_contract.sol\":2656:2662  amount */\n      dup4\n        /* \"contract/new_contract.sol\":2656:2669  amount / 1e18 */\n      tag_200\n      swap2\n      swap1\n      tag_201\n      jump\t// in\n    tag_200:\n        /* \"contract/new_contract.sol\":2639:2669  uint256 shares = amount / 1e18 */\n      swap1\n      pop\n        /* \"contract/new_contract.sol\":2680:2697  uint256 fractions */\n      0x00\n        /* \"contract/new_contract.sol\":2709:2713  1e18 */\n      0x0de0b6b3a7640000\n        /* \"contract/new_contract.sol\":2700:2706  amount */\n      dup5\n        /* \"contract/new_contract.sol\":2700:2713  amount % 1e18 */\n      tag_202\n      swap2\n      swap1\n      tag_203\n      jump\t// in\n    tag_202:\n        /* \"contract/new_contract.sol\":2680:2713  uint256 fractions = amount % 1e18 */\n      swap1\n      pop\n        /* \"contract/new_contract.sol\":2742:2750  registry */\n      0x00\n        /* \"contract/new_contract.sol\":2742:2762  registry[msg.sender] */\n      dup1\n        /* \"contract/new_contract.sol\":2751:2761  msg.sender */\n      caller\n        /* \"contract/new_contract.sol\":2742:2762  registry[msg.sender] */\n      0xffffffffffffffffffffffffffffffffffffffff\n      and\n      0xffffffffffffffffffffffffffffffffffffffff\n      and\n      dup2\n      mstore\n      0x20\n      add\n      swap1\n      dup2\n      mstore\n      0x20\n      add\n      0x00\n      keccak256\n        /* \"contract/new_contract.sol\":2742:2791  registry[msg.sender].fractionalPartOfTokenBalance */\n      0x02\n      add\n      sload\n        /* \"contract/new_contract.sol\":2730:2739  fractions */\n      dup2\n        /* \"contract/new_contract.sol\":2730:2791  fractions > registry[msg.sender].fractionalPartOfTokenBalance */\n      gt\n        /* \"contract/new_contract.sol\":2726:3057  if (fractions > registry[msg.sender].fractionalPartOfTokenBalance) {... */\n      iszero\n      tag_204\n      jumpi\n        /* \"contract/new_contract.sol\":2845:2846  1 */\n      0x01\n        /* \"contract/new_contract.sol\":2808:2816  registry */\n      0x00\n        /* \"contract/new_contract.sol\":2808:2828  registry[msg.sender] */\n      dup1\n        /* \"contract/new_contract.sol\":2817:2827  msg.sender */\n      caller\n        /* \"contract/new_contract.sol\":2808:2828  registry[msg.sender] */\n      0xffffffffffffffffffffffffffffffffffffffff\n      and\n      0xffffffffffffffffffffffffffffffffffffffff\n      and\n      dup2\n      mstore\n      0x20\n      add\n      swap1\n      dup2\n      mstore\n      0x20\n      add\n      0x00\n      keccak256\n        /* \"contract/new_contract.sol\":2808:2841  registry[msg.sender].shareBalance */\n      0x01\n      add\n      0x00\n        /* \"contract/new_contract.sol\":2808:2846  registry[msg.sender].shareBalance -= 1 */\n      dup3\n      dup3\n      sload\n      tag_205\n      swap2\n      swap1\n      tag_206\n      jump\t// in\n    tag_205:\n      swap3\n      pop\n      pop\n      dup2\n      swap1\n      sstore\n      pop\n        /* \"contract/new_contract.sol\":2899:2900  1 */\n      0x01\n        /* \"contract/new_contract.sol\":2861:2869  registry */\n      0x00\n        /* \"contract/new_contract.sol\":2861:2882  registry[corporation] */\n      dup1\n        /* \"contract/new_contract.sol\":2870:2881  corporation */\n      0x06\n      0x00\n      swap1\n      sload\n      swap1\n      0x0100\n      exp\n      swap1\n      div\n      0xffffffffffffffffffffffffffffffffffffffff\n      and\n        /* \"contract/new_contract.sol\":2861:2882  registry[corporation] */\n      0xffffffffffffffffffffffffffffffffffffffff\n      and\n      0xffffffffffffffffffffffffffffffffffffffff\n      and\n      dup2\n      mstore\n      0x20\n      add\n      swap1\n      dup2\n      mstore\n      0x20\n      add\n      0x00\n      keccak256\n        /* \"contract/new_contract.sol\":2861:2895  registry[corporation].shareBalance */\n      0x01\n      add\n      0x00\n        /* \"contract/new_contract.sol\":2861:2900  registry[corporation].shareBalance += 1 */\n      dup3\n      dup3\n      sload\n      tag_207\n      swap2\n      swap1\n      tag_137\n      jump\t// in\n    tag_207:\n      swap3\n      pop\n      pop\n      dup2\n      swap1\n      sstore\n      pop\n        /* \"contract/new_contract.sol\":2968:2972  1e18 */\n      0x0de0b6b3a7640000\n        /* \"contract/new_contract.sol\":2915:2923  registry */\n      0x00\n        /* \"contract/new_contract.sol\":2915:2935  registry[msg.sender] */\n      dup1\n        /* \"contract/new_contract.sol\":2924:2934  msg.sender */\n      caller\n        /* \"contract/new_contract.sol\":2915:2935  registry[msg.sender] */\n      0xffffffffffffffffffffffffffffffffffffffff\n      and\n      0xffffffffffffffffffffffffffffffffffffffff\n      and\n      dup2\n      mstore\n      0x20\n      add\n      swap1\n      dup2\n      mstore\n      0x20\n      add\n      0x00\n      keccak256\n        /* \"contract/new_contract.sol\":2915:2964  registry[msg.sender].fractionalPartOfTokenBalance */\n      0x02\n      add\n      0x00\n        /* \"contract/new_contract.sol\":2915:2972  registry[msg.sender].fractionalPartOfTokenBalance += 1e18 */\n      dup3\n      dup3\n      sload\n      tag_208\n      swap2\n      swap1\n      tag_137\n      jump\t// in\n    tag_208:\n      swap3\n      pop\n      pop\n      dup2\n      swap1\n      sstore\n      pop\n        /* \"contract/new_contract.sol\":3041:3045  1e18 */\n      0x0de0b6b3a7640000\n        /* \"contract/new_contract.sol\":2987:2995  registry */\n      0x00\n        /* \"contract/new_contract.sol\":2987:3008  registry[corporation] */\n      dup1\n        /* \"contract/new_contract.sol\":2996:3007  corporation */\n      0x06\n      0x00\n      swap1\n      sload\n      swap1\n      0x0100\n      exp\n      swap1\n      div\n      0xffffffffffffffffffffffffffffffffffffffff\n      and\n        /* \"contract/new_contract.sol\":2987:3008  registry[corporation] */\n      0xffffffffffffffffffffffffffffffffffffffff\n      and\n      0xffffffffffffffffffffffffffffffffffffffff\n      and\n      dup2\n      mstore\n      0x20\n      add\n      swap1\n      dup2\n      mstore\n      0x20\n      add\n      0x00\n      keccak256\n        /* \"contract/new_contract.sol\":2987:3037  registry[corporation].fractionalPartOfTokenBalance */\n      0x02\n      add\n      0x00\n        /* \"contract/new_contract.sol\":2987:3045  registry[corporation].fractionalPartOfTokenBalance -= 1e18 */\n      dup3\n      dup3\n      sload\n      tag_209\n      swap2\n      swap1\n      tag_206\n      jump\t// in\n    tag_209:\n      swap3\n      pop\n      pop\n      dup2\n      swap1\n      sstore\n      pop\n        /* \"contract/new_contract.sol\":2726:3057  if (fractions > registry[msg.sender].fractionalPartOfTokenBalance) {... */\n    tag_204:\n        /* \"contract/new_contract.sol\":3104:3110  shares */\n      dup2\n        /* \"contract/new_contract.sol\":3067:3075  registry */\n      0x00\n        /* \"contract/new_contract.sol\":3067:3087  registry[msg.sender] */\n      dup1\n        /* \"contract/new_contract.sol\":3076:3086  msg.sender */\n      caller\n        /* \"contract/new_contract.sol\":3067:3087  registry[msg.sender] */\n      0xffffffffffffffffffffffffffffffffffffffff\n      and\n      0xffffffffffffffffffffffffffffffffffffffff\n      and\n      dup2\n      mstore\n      0x20\n      add\n      swap1\n      dup2\n      mstore\n      0x20\n      add\n      0x00\n      keccak256\n        /* \"contract/new_contract.sol\":3067:3100  registry[msg.sender].shareBalance */\n      0x01\n      add\n      0x00\n        /* \"contract/new_contract.sol\":3067:3110  registry[msg.sender].shareBalance -= shares */\n      dup3\n      dup3\n      sload\n      tag_210\n      swap2\n      swap1\n      tag_206\n      jump\t// in\n    tag_210:\n      swap3\n      pop\n      pop\n      dup2\n      swap1\n      sstore\n      pop\n        /* \"contract/new_contract.sol\":3174:3183  fractions */\n      dup1\n        /* \"contract/new_contract.sol\":3121:3129  registry */\n      0x00\n        /* \"contract/new_contract.sol\":3121:3141  registry[msg.sender] */\n      dup1\n        /* \"contract/new_contract.sol\":3130:3140  msg.sender */\n      caller\n        /* \"contract/new_contract.sol\":3121:3141  registry[msg.sender] */\n      0xffffffffffffffffffffffffffffffffffffffff\n      and\n      0xffffffffffffffffffffffffffffffffffffffff\n      and\n      dup2\n      mstore\n      0x20\n      add\n      swap1\n      dup2\n      mstore\n      0x20\n      add\n      0x00\n      keccak256\n        /* \"contract/new_contract.sol\":3121:3170  registry[msg.sender].fractionalPartOfTokenBalance */\n      0x02\n      add\n      0x00\n        /* \"contract/new_contract.sol\":3121:3183  registry[msg.sender].fractionalPartOfTokenBalance -= fractions */\n      dup3\n      dup3\n      sload\n      tag_211\n      swap2\n      swap1\n      tag_206\n      jump\t// in\n    tag_211:\n      swap3\n      pop\n      pop\n      dup2\n      swap1\n      sstore\n      pop\n        /* \"contract/new_contract.sol\":3231:3237  amount */\n      dup4\n        /* \"contract/new_contract.sol\":3194:3202  registry */\n      0x00\n        /* \"contract/new_contract.sol\":3194:3214  registry[msg.sender] */\n      dup1\n        /* \"contract/new_contract.sol\":3203:3213  msg.sender */\n      caller\n        /* \"contract/new_contract.sol\":3194:3214  registry[msg.sender] */\n      0xffffffffffffffffffffffffffffffffffffffff\n      and\n      0xffffffffffffffffffffffffffffffffffffffff\n      and\n      dup2\n      mstore\n      0x20\n      add\n      swap1\n      dup2\n      mstore\n      0x20\n      add\n      0x00\n      keccak256\n        /* \"contract/new_contract.sol\":3194:3227  registry[msg.sender].tokenBalance */\n      0x00\n      add\n      0x00\n        /* \"contract/new_contract.sol\":3194:3237  registry[msg.sender].tokenBalance -= amount */\n      dup3\n      dup3\n      sload\n      tag_212\n      swap2\n      swap1\n      tag_206\n      jump\t// in\n    tag_212:\n      swap3\n      pop\n      pop\n      dup2\n      swap1\n      sstore\n      pop\n        /* \"contract/new_contract.sol\":3266:3274  registry */\n      0x00\n        /* \"contract/new_contract.sol\":3266:3278  registry[to] */\n      dup1\n        /* \"contract/new_contract.sol\":3275:3277  to */\n      dup7\n        /* \"contract/new_contract.sol\":3266:3278  registry[to] */\n      0xffffffffffffffffffffffffffffffffffffffff\n      and\n      0xffffffffffffffffffffffffffffffffffffffff\n      and\n      dup2\n      mstore\n      0x20\n      add\n      swap1\n      dup2\n      mstore\n      0x20\n      add\n      0x00\n      keccak256\n        /* \"contract/new_contract.sol\":3266:3307  registry[to].fractionalPartOfTokenBalance */\n      0x02\n      add\n      sload\n        /* \"contract/new_contract.sol\":3254:3263  fractions */\n      dup2\n        /* \"contract/new_contract.sol\":3254:3307  fractions < registry[to].fractionalPartOfTokenBalance */\n      lt\n        /* \"contract/new_contract.sol\":3250:3553  if (fractions < registry[to].fractionalPartOfTokenBalance) {... */\n      iszero\n      tag_213\n      jumpi\n        /* \"contract/new_contract.sol\":3353:3354  1 */\n      0x01\n        /* \"contract/new_contract.sol\":3324:3332  registry */\n      0x00\n        /* \"contract/new_contract.sol\":3324:3336  registry[to] */\n      dup1\n        /* \"contract/new_contract.sol\":3333:3335  to */\n      dup8\n        /* \"contract/new_contract.sol\":3324:3336  registry[to] */\n      0xffffffffffffffffffffffffffffffffffffffff\n      and\n      0xffffffffffffffffffffffffffffffffffffffff\n      and\n      dup2\n      mstore\n      0x20\n      add\n      swap1\n      dup2\n      mstore\n      0x20\n      add\n      0x00\n      keccak256\n        /* \"contract/new_contract.sol\":3324:3349  registry[to].shareBalance */\n      0x01\n      add\n      0x00\n        /* \"contract/new_contract.sol\":3324:3354  registry[to].shareBalance += 1 */\n      dup3\n      dup3\n      sload\n      tag_214\n      swap2\n      swap1\n      tag_137\n      jump\t// in\n    tag_214:\n      swap3\n      pop\n      pop\n      dup2\n      swap1\n      sstore\n      pop\n        /* \"contract/new_contract.sol\":3407:3408  1 */\n      0x01\n        /* \"contract/new_contract.sol\":3369:3377  registry */\n      0x00\n        /* \"contract/new_contract.sol\":3369:3390  registry[corporation] */\n      dup1\n        /* \"contract/new_contract.sol\":3378:3389  corporation */\n      0x06\n      0x00\n      swap1\n      sload\n      swap1\n      0x0100\n      exp\n      swap1\n      div\n      0xffffffffffffffffffffffffffffffffffffffff\n      and\n        /* \"contract/new_contract.sol\":3369:3390  registry[corporation] */\n      0xffffffffffffffffffffffffffffffffffffffff\n      and\n      0xffffffffffffffffffffffffffffffffffffffff\n      and\n      dup2\n      mstore\n      0x20\n      add\n      swap1\n      dup2\n      mstore\n      0x20\n      add\n      0x00\n      keccak256\n        /* \"contract/new_contract.sol\":3369:3403  registry[corporation].shareBalance */\n      0x01\n      add\n      0x00\n        /* \"contract/new_contract.sol\":3369:3408  registry[corporation].shareBalance -= 1 */\n      dup3\n      dup3\n      sload\n      tag_215\n      swap2\n      swap1\n      tag_206\n      jump\t// in\n    tag_215:\n      swap3\n      pop\n      pop\n      dup2\n      swap1\n      sstore\n      pop\n        /* \"contract/new_contract.sol\":3468:3472  1e18 */\n      0x0de0b6b3a7640000\n        /* \"contract/new_contract.sol\":3423:3431  registry */\n      0x00\n        /* \"contract/new_contract.sol\":3423:3435  registry[to] */\n      dup1\n        /* \"contract/new_contract.sol\":3432:3434  to */\n      dup8\n        /* \"contract/new_contract.sol\":3423:3435  registry[to] */\n      0xffffffffffffffffffffffffffffffffffffffff\n      and\n      0xffffffffffffffffffffffffffffffffffffffff\n      and\n      dup2\n      mstore\n      0x20\n      add\n      swap1\n      dup2\n      mstore\n      0x20\n      add\n      0x00\n      keccak256\n        /* \"contract/new_contract.sol\":3423:3464  registry[to].fractionalPartOfTokenBalance */\n      0x02\n      add\n      0x00\n        /* \"contract/new_contract.sol\":3423:3472  registry[to].fractionalPartOfTokenBalance -= 1e18 */\n      dup3\n      dup3\n      sload\n      tag_216\n      swap2\n      swap1\n      tag_206\n      jump\t// in\n    tag_216:\n      swap3\n      pop\n      pop\n      dup2\n      swap1\n      sstore\n      pop\n        /* \"contract/new_contract.sol\":3541:3545  1e18 */\n      0x0de0b6b3a7640000\n        /* \"contract/new_contract.sol\":3487:3495  registry */\n      0x00\n        /* \"contract/new_contract.sol\":3487:3508  registry[corporation] */\n      dup1\n        /* \"contract/new_contract.sol\":3496:3507  corporation */\n      0x06\n      0x00\n      swap1\n      sload\n      swap1\n      0x0100\n      exp\n      swap1\n      div\n      0xffffffffffffffffffffffffffffffffffffffff\n      and\n        /* \"contract/new_contract.sol\":3487:3508  registry[corporation] */\n      0xffffffffffffffffffffffffffffffffffffffff\n      and\n      0xffffffffffffffffffffffffffffffffffffffff\n      and\n      dup2\n      mstore\n      0x20\n      add\n      swap1\n      dup2\n      mstore\n      0x20\n      add\n      0x00\n      keccak256\n        /* \"contract/new_contract.sol\":3487:3537  registry[corporation].fractionalPartOfTokenBalance */\n      0x02\n      add\n      0x00\n        /* \"contract/new_contract.sol\":3487:3545  registry[corporation].fractionalPartOfTokenBalance += 1e18 */\n      dup3\n      dup3\n      sload\n      tag_217\n      swap2\n      swap1\n      tag_137\n      jump\t// in\n    tag_217:\n      swap3\n      pop\n      pop\n      dup2\n      swap1\n      sstore\n      pop\n        /* \"contract/new_contract.sol\":3250:3553  if (fractions < registry[to].fractionalPartOfTokenBalance) {... */\n    tag_213:\n        /* \"contract/new_contract.sol\":3592:3598  shares */\n      dup2\n        /* \"contract/new_contract.sol\":3563:3571  registry */\n      0x00\n        /* \"contract/new_contract.sol\":3563:3575  registry[to] */\n      dup1\n        /* \"contract/new_contract.sol\":3572:3574  to */\n      dup8\n        /* \"contract/new_contract.sol\":3563:3575  registry[to] */\n      0xffffffffffffffffffffffffffffffffffffffff\n      and\n      0xffffffffffffffffffffffffffffffffffffffff\n      and\n      dup2\n      mstore\n      0x20\n      add\n      swap1\n      dup2\n      mstore\n      0x20\n      add\n      0x00\n      keccak256\n        /* \"contract/new_contract.sol\":3563:3588  registry[to].shareBalance */\n      0x01\n      add\n      0x00\n        /* \"contract/new_contract.sol\":3563:3598  registry[to].shareBalance += shares */\n      dup3\n      dup3\n      sload\n      tag_218\n      swap2\n      swap1\n      tag_137\n      jump\t// in\n    tag_218:\n      swap3\n      pop\n      pop\n      dup2\n      swap1\n      sstore\n      pop\n        /* \"contract/new_contract.sol\":3654:3663  fractions */\n      dup1\n        /* \"contract/new_contract.sol\":3609:3617  registry */\n      0x00\n        /* \"contract/new_contract.sol\":3609:3621  registry[to] */\n      dup1\n        /* \"contract/new_contract.sol\":3618:3620  to */\n      dup8\n        /* \"contract/new_contract.sol\":3609:3621  registry[to] */\n      0xffffffffffffffffffffffffffffffffffffffff\n      and\n      0xffffffffffffffffffffffffffffffffffffffff\n      and\n      dup2\n      mstore\n      0x20\n      add\n      swap1\n      dup2\n      mstore\n      0x20\n      add\n      0x00\n      keccak256\n        /* \"contract/new_contract.sol\":3609:3650  registry[to].fractionalPartOfTokenBalance */\n      0x02\n      add\n      0x00\n        /* \"contract/new_contract.sol\":3609:3663  registry[to].fractionalPartOfTokenBalance += fractions */\n      dup3\n      dup3\n      sload\n      tag_219\n      swap2\n      swap1\n      tag_137\n      jump\t// in\n    tag_219:\n      swap3\n      pop\n      pop\n      dup2\n      swap1\n      sstore\n      pop\n        /* \"contract/new_contract.sol\":3703:3709  amount */\n      dup4\n        /* \"contract/new_contract.sol\":3674:3682  registry */\n      0x00\n        /* \"contract/new_contract.sol\":3674:3686  registry[to] */\n      dup1\n        /* \"contract/new_contract.sol\":3683:3685  to */\n      dup8\n        /* \"contract/new_contract.sol\":3674:3686  registry[to] */\n      0xffffffffffffffffffffffffffffffffffffffff\n      and\n      0xffffffffffffffffffffffffffffffffffffffff\n      and\n      dup2\n      mstore\n      0x20\n      add\n      swap1\n      dup2\n      mstore\n      0x20\n      add\n      0x00\n      keccak256\n        /* \"contract/new_contract.sol\":3674:3699  registry[to].tokenBalance */\n      0x00\n      add\n      0x00\n        /* \"contract/new_contract.sol\":3674:3709  registry[to].tokenBalance += amount */\n      dup3\n      dup3\n      sload\n      tag_220\n      swap2\n      swap1\n      tag_137\n      jump\t// in\n    tag_220:\n      swap3\n      pop\n      pop\n      dup2\n      swap1\n      sstore\n      pop\n        /* \"contract/new_contract.sol\":3725:3729  true */\n      0x01\n        /* \"contract/new_contract.sol\":3718:3729  return true */\n      swap3\n      pop\n      pop\n      pop\n        /* \"contract/new_contract.sol\":2453:3733  function transfer(address to, uint256 amount) public whenUnpaused returns (bool) {... */\n      swap3\n      swap2\n      pop\n      pop\n      jump\t// out\n        /* \"contract/new_contract.sol\":2277:2445  function fractionalShareBalanceOf(address account) public view virtual returns (uint256) {... */\n    tag_99:\n        /* \"contract/new_contract.sol\":2357:2364  uint256 */\n      0x00\n        /* \"contract/new_contract.sol\":2384:2392  registry */\n      dup1\n        /* \"contract/new_contract.sol\":2384:2401  registry[account] */\n      0x00\n        /* \"contract/new_contract.sol\":2393:2400  account */\n      dup4\n        /* \"contract/new_contract.sol\":2384:2401  registry[account] */\n      0xffffffffffffffffffffffffffffffffffffffff\n      and\n      0xffffffffffffffffffffffffffffffffffffffff\n      and\n      dup2\n      mstore\n      0x20\n      add\n      swap1\n      dup2\n      mstore\n      0x20\n      add\n      0x00\n      keccak256\n        /* \"contract/new_contract.sol\":2384:2430  registry[account].fractionalPartOfTokenBalance */\n      0x02\n      add\n      sload\n        /* \"contract/new_contract.sol\":2377:2430  return registry[account].fractionalPartOfTokenBalance */\n      swap1\n      pop\n        /* \"contract/new_contract.sol\":2277:2445  function fractionalShareBalanceOf(address account) public view virtual returns (uint256) {... */\n      swap2\n      swap1\n      pop\n      jump\t// out\n        /* \"contract/new_contract.sol\":3737:3863  function allowance(address owner, address spender) public view returns (uint256) {... */\n    tag_103:\n        /* \"contract/new_contract.sol\":3809:3816  uint256 */\n      0x00\n        /* \"contract/new_contract.sol\":3832:3843  _allowances */\n      0x01\n        /* \"contract/new_contract.sol\":3832:3850  _allowances[owner] */\n      0x00\n        /* \"contract/new_contract.sol\":3844:3849  owner */\n      dup5\n        /* \"contract/new_contract.sol\":3832:3850  _allowances[owner] */\n      0xffffffffffffffffffffffffffffffffffffffff\n      and\n      0xffffffffffffffffffffffffffffffffffffffff\n      and\n      dup2\n      mstore\n      0x20\n      add\n      swap1\n      dup2\n      mstore\n      0x20\n      add\n      0x00\n      keccak256\n        /* \"contract/new_contract.sol\":3832:3859  _allowances[owner][spender] */\n      0x00\n        /* \"contract/new_contract.sol\":3851:3858  spender */\n      dup4\n        /* \"contract/new_contract.sol\":3832:3859  _allowances[owner][spender] */\n      0xffffffffffffffffffffffffffffffffffffffff\n      and\n      0xffffffffffffffffffffffffffffffffffffffff\n      and\n      dup2\n      mstore\n      0x20\n      add\n      swap1\n      dup2\n      mstore\n      0x20\n      add\n      0x00\n      keccak256\n      sload\n        /* \"contract/new_contract.sol\":3825:3859  return _allowances[owner][spender] */\n      swap1\n      pop\n        /* \"contract/new_contract.sol\":3737:3863  function allowance(address owner, address spender) public view returns (uint256) {... */\n      swap3\n      swap2\n      pop\n      pop\n      jump\t// out\n        /* \"contract/new_contract.sol\":503:529  address public corporation */\n    tag_106:\n      0x06\n      0x00\n      swap1\n      sload\n      swap1\n      0x0100\n      exp\n      swap1\n      div\n      0xffffffffffffffffffffffffffffffffffffffff\n      and\n      dup2\n      jump\t// out\n        /* \"contract/new_contract.sol\":6016:6342  function _approve(address owner, address spender, uint256 amount) internal virtual {... */\n    tag_118:\n        /* \"contract/new_contract.sol\":6131:6132  0 */\n      0x00\n        /* \"contract/new_contract.sol\":6114:6133  owner != address(0) */\n      0xffffffffffffffffffffffffffffffffffffffff\n      and\n        /* \"contract/new_contract.sol\":6114:6119  owner */\n      dup4\n        /* \"contract/new_contract.sol\":6114:6133  owner != address(0) */\n      0xffffffffffffffffffffffffffffffffffffffff\n      and\n      sub\n        /* \"contract/new_contract.sol\":6106:6174  require(owner != address(0), \"ERC20: approve from the zero address\") */\n      tag_224\n      jumpi\n      mload(0x40)\n      0x08c379a000000000000000000000000000000000000000000000000000000000\n      dup2\n      mstore\n      0x04\n      add\n      tag_225\n      swap1\n      tag_226\n      jump\t// in\n    tag_225:\n      mload(0x40)\n      dup1\n      swap2\n      sub\n      swap1\n      revert\n    tag_224:\n        /* \"contract/new_contract.sol\":6208:6209  0 */\n      0x00\n        /* \"contract/new_contract.sol\":6189:6210  spender != address(0) */\n      0xffffffffffffffffffffffffffffffffffffffff\n      and\n        /* \"contract/new_contract.sol\":6189:6196  spender */\n      dup3\n        /* \"contract/new_contract.sol\":6189:6210  spender != address(0) */\n      0xffffffffffffffffffffffffffffffffffffffff\n      and\n      sub\n        /* \"contract/new_contract.sol\":6181:6249  require(spender != address(0), \"ERC20: approve to the zero address\") */\n      tag_227\n      jumpi\n      mload(0x40)\n      0x08c379a000000000000000000000000000000000000000000000000000000000\n      dup2\n      mstore\n      0x04\n      add\n      tag_228\n      swap1\n      tag_229\n      jump\t// in\n    tag_228:\n      mload(0x40)\n      dup1\n      swap2\n      sub\n      swap1\n      revert\n    tag_227:\n        /* \"contract/new_contract.sol\":6288:6294  amount */\n      dup1\n        /* \"contract/new_contract.sol\":6258:6269  _allowances */\n      0x01\n        /* \"contract/new_contract.sol\":6258:6276  _allowances[owner] */\n      0x00\n        /* \"contract/new_contract.sol\":6270:6275  owner */\n      dup6\n        /* \"contract/new_contract.sol\":6258:6276  _allowances[owner] */\n      0xffffffffffffffffffffffffffffffffffffffff\n      and\n      0xffffffffffffffffffffffffffffffffffffffff\n      and\n      dup2\n      mstore\n      0x20\n      add\n      swap1\n      dup2\n      mstore\n      0x20\n      add\n      0x00\n      keccak256\n        /* \"contract/new_contract.sol\":6258:6285  _allowances[owner][spender] */\n      0x00\n        /* \"contract/new_contract.sol\":6277:6284  spender */\n      dup5\n        /* \"contract/new_contract.sol\":6258:6285  _allowances[owner][spender] */\n      0xffffffffffffffffffffffffffffffffffffffff\n      and\n      0xffffffffffffffffffffffffffffffffffffffff\n      and\n      dup2\n      mstore\n      0x20\n      add\n      swap1\n      dup2\n      mstore\n      0x20\n      add\n      0x00\n      keccak256\n        /* \"contract/new_contract.sol\":6258:6294  _allowances[owner][spender] = amount */\n      dup2\n      swap1\n      sstore\n      pop\n        /* \"contract/new_contract.sol\":6322:6329  spender */\n      dup2\n        /* \"contract/new_contract.sol\":6306:6338  Approval(owner, spender, amount) */\n      0xffffffffffffffffffffffffffffffffffffffff\n      and\n        /* \"contract/new_contract.sol\":6315:6320  owner */\n      dup4\n        /* \"contract/new_contract.sol\":6306:6338  Approval(owner, spender, amount) */\n      0xffffffffffffffffffffffffffffffffffffffff\n      and\n      0x8c5be1e5ebec7d5bd14f71427d1e84f3dd0314c0f7b2291e5b200ac8c7c3b925\n        /* \"contract/new_contract.sol\":6331:6337  amount */\n      dup4\n        /* \"contract/new_contract.sol\":6306:6338  Approval(owner, spender, amount) */\n      mload(0x40)\n      tag_230\n      swap2\n      swap1\n      tag_46\n      jump\t// in\n    tag_230:\n      mload(0x40)\n      dup1\n      swap2\n      sub\n      swap1\n      log3\n        /* \"contract/new_contract.sol\":6016:6342  function _approve(address owner, address spender, uint256 amount) internal virtual {... */\n      pop\n      pop\n      pop\n      jump\t// out\n        /* \"contract/new_contract.sol\":6346:6797  function _transfer(address from, address to, uint256 amount) internal virtual {... */\n    tag_131:\n        /* \"contract/new_contract.sol\":6455:6456  0 */\n      0x00\n        /* \"contract/new_contract.sol\":6439:6457  from != address(0) */\n      0xffffffffffffffffffffffffffffffffffffffff\n      and\n        /* \"contract/new_contract.sol\":6439:6443  from */\n      dup4\n        /* \"contract/new_contract.sol\":6439:6457  from != address(0) */\n      0xffffffffffffffffffffffffffffffffffffffff\n      and\n      sub\n        /* \"contract/new_contract.sol\":6431:6499  require(from != address(0), \"ERC20: transfer from the zero address\") */\n      tag_232\n      jumpi\n      mload(0x40)\n      0x08c379a000000000000000000000000000000000000000000000000000000000\n      dup2\n      mstore\n      0x04\n      add\n      tag_233\n      swap1\n      tag_234\n      jump\t// in\n    tag_233:\n      mload(0x40)\n      dup1\n      swap2\n      sub\n      swap1\n      revert\n    tag_232:\n        /* \"contract/new_contract.sol\":6528:6529  0 */\n      0x00\n        /* \"contract/new_contract.sol\":6514:6530  to != address(0) */\n      0xffffffffffffffffffffffffffffffffffffffff\n      and\n        /* \"contract/new_contract.sol\":6514:6516  to */\n      dup3\n        /* \"contract/new_contract.sol\":6514:6530  to != address(0) */\n      0xffffffffffffffffffffffffffffffffffffffff\n      and\n      sub\n        /* \"contract/new_contract.sol\":6506:6570  require(to != address(0), \"ERC20: transfer to the zero address\") */\n      tag_235\n      jumpi\n      mload(0x40)\n      0x08c379a000000000000000000000000000000000000000000000000000000000\n      dup2\n      mstore\n      0x04\n      add\n      tag_236\n      swap1\n      tag_237\n      jump\t// in\n    tag_236:\n      mload(0x40)\n      dup1\n      swap2\n      sub\n      swap1\n      revert\n    tag_235:\n        /* \"contract/new_contract.sol\":6595:6603  registry */\n      0x00\n        /* \"contract/new_contract.sol\":6595:6609  registry[from] */\n      dup1\n        /* \"contract/new_contract.sol\":6604:6608  from */\n      dup5\n        /* \"contract/new_contract.sol\":6595:6609  registry[from] */\n      0xffffffffffffffffffffffffffffffffffffffff\n      and\n      0xffffffffffffffffffffffffffffffffffffffff\n      and\n      dup2\n      mstore\n      0x20\n      add\n      swap1\n      dup2\n      mstore\n      0x20\n      add\n      0x00\n      keccak256\n        /* \"contract/new_contract.sol\":6595:6622  registry[from].tokenBalance */\n      0x00\n      add\n      sload\n        /* \"contract/new_contract.sol\":6585:6591  amount */\n      dup2\n        /* \"contract/new_contract.sol\":6585:6622  amount <= registry[from].tokenBalance */\n      gt\n      iszero\n        /* \"contract/new_contract.sol\":6577:6665  require(amount <= registry[from].tokenBalance, \"ERC20: transfer amount exceeds balance\") */\n      tag_238\n      jumpi\n      mload(0x40)\n      0x08c379a000000000000000000000000000000000000000000000000000000000\n      dup2\n      mstore\n      0x04\n      add\n      tag_239\n      swap1\n      tag_240\n      jump\t// in\n    tag_239:\n      mload(0x40)\n      dup1\n      swap2\n      sub\n      swap1\n      revert\n    tag_238:\n        /* \"contract/new_contract.sol\":6705:6711  amount */\n      dup1\n        /* \"contract/new_contract.sol\":6674:6682  registry */\n      0x00\n        /* \"contract/new_contract.sol\":6674:6688  registry[from] */\n      dup1\n        /* \"contract/new_contract.sol\":6683:6687  from */\n      dup6\n        /* \"contract/new_contract.sol\":6674:6688  registry[from] */\n      0xffffffffffffffffffffffffffffffffffffffff\n      and\n      0xffffffffffffffffffffffffffffffffffffffff\n      and\n      dup2\n      mstore\n      0x20\n      add\n      swap1\n      dup2\n      mstore\n      0x20\n      add\n      0x00\n      keccak256\n        /* \"contract/new_contract.sol\":6674:6701  registry[from].tokenBalance */\n      0x00\n      add\n      0x00\n        /* \"contract/new_contract.sol\":6674:6711  registry[from].tokenBalance -= amount */\n      dup3\n      dup3\n      sload\n      tag_241\n      swap2\n      swap1\n      tag_206\n      jump\t// in\n    tag_241:\n      swap3\n      pop\n      pop\n      dup2\n      swap1\n      sstore\n      pop\n        /* \"contract/new_contract.sol\":6747:6753  amount */\n      dup1\n        /* \"contract/new_contract.sol\":6718:6726  registry */\n      0x00\n        /* \"contract/new_contract.sol\":6718:6730  registry[to] */\n      dup1\n        /* \"contract/new_contract.sol\":6727:6729  to */\n      dup5\n        /* \"contract/new_contract.sol\":6718:6730  registry[to] */\n      0xffffffffffffffffffffffffffffffffffffffff\n      and\n      0xffffffffffffffffffffffffffffffffffffffff\n      and\n      dup2\n      mstore\n      0x20\n      add\n      swap1\n      dup2\n      mstore\n      0x20\n      add\n      0x00\n      keccak256\n        /* \"contract/new_contract.sol\":6718:6743  registry[to].tokenBalance */\n      0x00\n      add\n      0x00\n        /* \"contract/new_contract.sol\":6718:6753  registry[to].tokenBalance += amount */\n      dup3\n      dup3\n      sload\n      tag_242\n      swap2\n      swap1\n      tag_137\n      jump\t// in\n    tag_242:\n      swap3\n      pop\n      pop\n      dup2\n      swap1\n      sstore\n      pop\n        /* \"contract/new_contract.sol\":6782:6784  to */\n      dup2\n        /* \"contract/new_contract.sol\":6767:6793  Transfer(from, to, amount) */\n      0xffffffffffffffffffffffffffffffffffffffff\n      and\n        /* \"contract/new_contract.sol\":6776:6780  from */\n      dup4\n        /* \"contract/new_contract.sol\":6767:6793  Transfer(from, to, amount) */\n      0xffffffffffffffffffffffffffffffffffffffff\n      and\n      0xddf252ad1be2c89b69c2b068fc378daa952ba7f163c4a11628f55a4df523b3ef\n        /* \"contract/new_contract.sol\":6786:6792  amount */\n      dup4\n        /* \"contract/new_contract.sol\":6767:6793  Transfer(from, to, amount) */\n      mload(0x40)\n      tag_243\n      swap2\n      swap1\n      tag_46\n      jump\t// in\n    tag_243:\n      mload(0x40)\n      dup1\n      swap2\n      sub\n      swap1\n      log3\n        /* \"contract/new_contract.sol\":6346:6797  function _transfer(address from, address to, uint256 amount) internal virtual {... */\n      pop\n      pop\n      pop\n      jump\t// out\n        /* \"#utility.yul\":88:205   */\n    tag_245:\n        /* \"#utility.yul\":197:198   */\n      0x00\n        /* \"#utility.yul\":194:195   */\n      dup1\n        /* \"#utility.yul\":187:199   */\n      revert\n        /* \"#utility.yul\":334:460   */\n    tag_247:\n        /* \"#utility.yul\":371:378   */\n      0x00\n        /* \"#utility.yul\":411:453   */\n      0xffffffffffffffffffffffffffffffffffffffff\n        /* \"#utility.yul\":404:409   */\n      dup3\n        /* \"#utility.yul\":400:454   */\n      and\n        /* \"#utility.yul\":389:454   */\n      swap1\n      pop\n        /* \"#utility.yul\":334:460   */\n      swap2\n      swap1\n      pop\n      jump\t// out\n        /* \"#utility.yul\":466:562   */\n    tag_248:\n        /* \"#utility.yul\":503:510   */\n      0x00\n        /* \"#utility.yul\":532:556   */\n      tag_310\n        /* \"#utility.yul\":550:555   */\n      dup3\n        /* \"#utility.yul\":532:556   */\n      tag_247\n      jump\t// in\n    tag_310:\n        /* \"#utility.yul\":521:556   */\n      swap1\n      pop\n        /* \"#utility.yul\":466:562   */\n      swap2\n      swap1\n      pop\n      jump\t// out\n        /* \"#utility.yul\":568:690   */\n    tag_249:\n        /* \"#utility.yul\":641:665   */\n      tag_312\n        /* \"#utility.yul\":659:664   */\n      dup2\n        /* \"#utility.yul\":641:665   */\n      tag_248\n      jump\t// in\n    tag_312:\n        /* \"#utility.yul\":634:639   */\n      dup2\n        /* \"#utility.yul\":631:666   */\n      eq\n        /* \"#utility.yul\":621:684   */\n      tag_313\n      jumpi\n        /* \"#utility.yul\":680:681   */\n      0x00\n        /* \"#utility.yul\":677:678   */\n      dup1\n        /* \"#utility.yul\":670:682   */\n      revert\n        /* \"#utility.yul\":621:684   */\n    tag_313:\n        /* \"#utility.yul\":568:690   */\n      pop\n      jump\t// out\n        /* \"#utility.yul\":696:835   */\n    tag_250:\n        /* \"#utility.yul\":742:747   */\n      0x00\n        /* \"#utility.yul\":780:786   */\n      dup2\n        /* \"#utility.yul\":767:787   */\n      calldataload\n        /* \"#utility.yul\":758:787   */\n      swap1\n      pop\n        /* \"#utility.yul\":796:829   */\n      tag_315\n        /* \"#utility.yul\":823:828   */\n      dup2\n        /* \"#utility.yul\":796:829   */\n      tag_249\n      jump\t// in\n    tag_315:\n        /* \"#utility.yul\":696:835   */\n      swap3\n      swap2\n      pop\n      pop\n      jump\t// out\n        /* \"#utility.yul\":841:1170   */\n    tag_29:\n        /* \"#utility.yul\":900:906   */\n      0x00\n        /* \"#utility.yul\":949:951   */\n      0x20\n        /* \"#utility.yul\":937:946   */\n      dup3\n        /* \"#utility.yul\":928:935   */\n      dup5\n        /* \"#utility.yul\":924:947   */\n      sub\n        /* \"#utility.yul\":920:952   */\n      slt\n        /* \"#utility.yul\":917:1036   */\n      iszero\n      tag_317\n      jumpi\n        /* \"#utility.yul\":955:1034   */\n      tag_318\n      tag_245\n      jump\t// in\n    tag_318:\n        /* \"#utility.yul\":917:1036   */\n    tag_317:\n        /* \"#utility.yul\":1075:1076   */\n      0x00\n        /* \"#utility.yul\":1100:1153   */\n      tag_319\n        /* \"#utility.yul\":1145:1152   */\n      dup5\n        /* \"#utility.yul\":1136:1142   */\n      dup3\n        /* \"#utility.yul\":1125:1134   */\n      dup6\n        /* \"#utility.yul\":1121:1143   */\n      add\n        /* \"#utility.yul\":1100:1153   */\n      tag_250\n      jump\t// in\n    tag_319:\n        /* \"#utility.yul\":1090:1153   */\n      swap2\n      pop\n        /* \"#utility.yul\":1046:1163   */\n      pop\n        /* \"#utility.yul\":841:1170   */\n      swap3\n      swap2\n      pop\n      pop\n      jump\t// out\n        /* \"#utility.yul\":1176:1253   */\n    tag_251:\n        /* \"#utility.yul\":1213:1220   */\n      0x00\n        /* \"#utility.yul\":1242:1247   */\n      dup2\n        /* \"#utility.yul\":1231:1247   */\n      swap1\n      pop\n        /* \"#utility.yul\":1176:1253   */\n      swap2\n      swap1\n      pop\n      jump\t// out\n        /* \"#utility.yul\":1259:1377   */\n    tag_252:\n        /* \"#utility.yul\":1346:1370   */\n      tag_322\n        /* \"#utility.yul\":1364:1369   */\n      dup2\n        /* \"#utility.yul\":1346:1370   */\n      tag_251\n      jump\t// in\n    tag_322:\n        /* \"#utility.yul\":1341:1344   */\n      dup3\n        /* \"#utility.yul\":1334:1371   */\n      mstore\n        /* \"#utility.yul\":1259:1377   */\n      pop\n      pop\n      jump\t// out\n        /* \"#utility.yul\":1383:1460   */\n    tag_253:\n        /* \"#utility.yul\":1420:1427   */\n      0x00\n        /* \"#utility.yul\":1449:1454   */\n      dup2\n        /* \"#utility.yul\":1438:1454   */\n      swap1\n      pop\n        /* \"#utility.yul\":1383:1460   */\n      swap2\n      swap1\n      pop\n      jump\t// out\n        /* \"#utility.yul\":1466:1584   */\n    tag_254:\n        /* \"#utility.yul\":1553:1577   */\n      tag_325\n        /* \"#utility.yul\":1571:1576   */\n      dup2\n        /* \"#utility.yul\":1553:1577   */\n      tag_253\n      jump\t// in\n    tag_325:\n        /* \"#utility.yul\":1548:1551   */\n      dup3\n        /* \"#utility.yul\":1541:1578   */\n      mstore\n        /* \"#utility.yul\":1466:1584   */\n      pop\n      pop\n      jump\t// out\n        /* \"#utility.yul\":1590:1680   */\n    tag_255:\n        /* \"#utility.yul\":1624:1631   */\n      0x00\n        /* \"#utility.yul\":1667:1672   */\n      dup2\n        /* \"#utility.yul\":1660:1673   */\n      iszero\n        /* \"#utility.yul\":1653:1674   */\n      iszero\n        /* \"#utility.yul\":1642:1674   */\n      swap1\n      pop\n        /* \"#utility.yul\":1590:1680   */\n      swap2\n      swap1\n      pop\n      jump\t// out\n        /* \"#utility.yul\":1686:1795   */\n    tag_256:\n        /* \"#utility.yul\":1767:1788   */\n      tag_328\n        /* \"#utility.yul\":1782:1787   */\n      dup2\n        /* \"#utility.yul\":1767:1788   */\n      tag_255\n      jump\t// in\n    tag_328:\n        /* \"#utility.yul\":1762:1765   */\n      dup3\n        /* \"#utility.yul\":1755:1789   */\n      mstore\n        /* \"#utility.yul\":1686:1795   */\n      pop\n      pop\n      jump\t// out\n        /* \"#utility.yul\":1801:2453   */\n    tag_32:\n        /* \"#utility.yul\":2000:2004   */\n      0x00\n        /* \"#utility.yul\":2038:2041   */\n      0xa0\n        /* \"#utility.yul\":2027:2036   */\n      dup3\n        /* \"#utility.yul\":2023:2042   */\n      add\n        /* \"#utility.yul\":2015:2042   */\n      swap1\n      pop\n        /* \"#utility.yul\":2052:2123   */\n      tag_330\n        /* \"#utility.yul\":2120:2121   */\n      0x00\n        /* \"#utility.yul\":2109:2118   */\n      dup4\n        /* \"#utility.yul\":2105:2122   */\n      add\n        /* \"#utility.yul\":2096:2102   */\n      dup9\n        /* \"#utility.yul\":2052:2123   */\n      tag_252\n      jump\t// in\n    tag_330:\n        /* \"#utility.yul\":2133:2205   */\n      tag_331\n        /* \"#utility.yul\":2201:2203   */\n      0x20\n        /* \"#utility.yul\":2190:2199   */\n      dup4\n        /* \"#utility.yul\":2186:2204   */\n      add\n        /* \"#utility.yul\":2177:2183   */\n      dup8\n        /* \"#utility.yul\":2133:2205   */\n      tag_252\n      jump\t// in\n    tag_331:\n        /* \"#utility.yul\":2215:2287   */\n      tag_332\n        /* \"#utility.yul\":2283:2285   */\n      0x40\n        /* \"#utility.yul\":2272:2281   */\n      dup4\n        /* \"#utility.yul\":2268:2286   */\n      add\n        /* \"#utility.yul\":2259:2265   */\n      dup7\n        /* \"#utility.yul\":2215:2287   */\n      tag_252\n      jump\t// in\n    tag_332:\n        /* \"#utility.yul\":2297:2369   */\n      tag_333\n        /* \"#utility.yul\":2365:2367   */\n      0x60\n        /* \"#utility.yul\":2354:2363   */\n      dup4\n        /* \"#utility.yul\":2350:2368   */\n      add\n        /* \"#utility.yul\":2341:2347   */\n      dup6\n        /* \"#utility.yul\":2297:2369   */\n      tag_254\n      jump\t// in\n    tag_333:\n        /* \"#utility.yul\":2379:2446   */\n      tag_334\n        /* \"#utility.yul\":2441:2444   */\n      0x80\n        /* \"#utility.yul\":2430:2439   */\n      dup4\n        /* \"#utility.yul\":2426:2445   */\n      add\n        /* \"#utility.yul\":2417:2423   */\n      dup5\n        /* \"#utility.yul\":2379:2446   */\n      tag_256\n      jump\t// in\n    tag_334:\n        /* \"#utility.yul\":1801:2453   */\n      swap7\n      swap6\n      pop\n      pop\n      pop\n      pop\n      pop\n      pop\n      jump\t// out\n        /* \"#utility.yul\":2459:2558   */\n    tag_257:\n        /* \"#utility.yul\":2511:2517   */\n      0x00\n        /* \"#utility.yul\":2545:2550   */\n      dup2\n        /* \"#utility.yul\":2539:2551   */\n      mload\n        /* \"#utility.yul\":2529:2551   */\n      swap1\n      pop\n        /* \"#utility.yul\":2459:2558   */\n      swap2\n      swap1\n      pop\n      jump\t// out\n        /* \"#utility.yul\":2564:2733   */\n    tag_258:\n        /* \"#utility.yul\":2648:2659   */\n      0x00\n        /* \"#utility.yul\":2682:2688   */\n      dup3\n        /* \"#utility.yul\":2677:2680   */\n      dup3\n        /* \"#utility.yul\":2670:2689   */\n      mstore\n        /* \"#utility.yul\":2722:2726   */\n      0x20\n        /* \"#utility.yul\":2717:2720   */\n      dup3\n        /* \"#utility.yul\":2713:2727   */\n      add\n        /* \"#utility.yul\":2698:2727   */\n      swap1\n      pop\n        /* \"#utility.yul\":2564:2733   */\n      swap3\n      swap2\n      pop\n      pop\n      jump\t// out\n        /* \"#utility.yul\":2739:2985   */\n    tag_259:\n        /* \"#utility.yul\":2820:2821   */\n      0x00\n        /* \"#utility.yul\":2830:2943   */\n    tag_338:\n        /* \"#utility.yul\":2844:2850   */\n      dup4\n        /* \"#utility.yul\":2841:2842   */\n      dup2\n        /* \"#utility.yul\":2838:2851   */\n      lt\n        /* \"#utility.yul\":2830:2943   */\n      iszero\n      tag_340\n      jumpi\n        /* \"#utility.yul\":2929:2930   */\n      dup1\n        /* \"#utility.yul\":2924:2927   */\n      dup3\n        /* \"#utility.yul\":2920:2931   */\n      add\n        /* \"#utility.yul\":2914:2932   */\n      mload\n        /* \"#utility.yul\":2910:2911   */\n      dup2\n        /* \"#utility.yul\":2905:2908   */\n      dup5\n        /* \"#utility.yul\":2901:2912   */\n      add\n        /* \"#utility.yul\":2894:2933   */\n      mstore\n        /* \"#utility.yul\":2866:2868   */\n      0x20\n        /* \"#utility.yul\":2863:2864   */\n      dup2\n        /* \"#utility.yul\":2859:2869   */\n      add\n        /* \"#utility.yul\":2854:2869   */\n      swap1\n      pop\n        /* \"#utility.yul\":2830:2943   */\n      jump(tag_338)\n    tag_340:\n        /* \"#utility.yul\":2977:2978   */\n      0x00\n        /* \"#utility.yul\":2968:2974   */\n      dup5\n        /* \"#utility.yul\":2963:2966   */\n      dup5\n        /* \"#utility.yul\":2959:2975   */\n      add\n        /* \"#utility.yul\":2952:2979   */\n      mstore\n        /* \"#utility.yul\":2801:2985   */\n      pop\n        /* \"#utility.yul\":2739:2985   */\n      pop\n      pop\n      pop\n      jump\t// out\n        /* \"#utility.yul\":2991:3093   */\n    tag_260:\n        /* \"#utility.yul\":3032:3038   */\n      0x00\n        /* \"#utility.yul\":3083:3085   */\n      0x1f\n        /* \"#utility.yul\":3079:3086   */\n      not\n        /* \"#utility.yul\":3074:3076   */\n      0x1f\n        /* \"#utility.yul\":3067:3072   */\n      dup4\n        /* \"#utility.yul\":3063:3077   */\n      add\n        /* \"#utility.yul\":3059:3087   */\n      and\n        /* \"#utility.yul\":3049:3087   */\n      swap1\n      pop\n        /* \"#utility.yul\":2991:3093   */\n      swap2\n      swap1\n      pop\n      jump\t// out\n        /* \"#utility.yul\":3099:3476   */\n    tag_261:\n        /* \"#utility.yul\":3187:3190   */\n      0x00\n        /* \"#utility.yul\":3215:3254   */\n      tag_343\n        /* \"#utility.yul\":3248:3253   */\n      dup3\n        /* \"#utility.yul\":3215:3254   */\n      tag_257\n      jump\t// in\n    tag_343:\n        /* \"#utility.yul\":3270:3341   */\n      tag_344\n        /* \"#utility.yul\":3334:3340   */\n      dup2\n        /* \"#utility.yul\":3329:3332   */\n      dup6\n        /* \"#utility.yul\":3270:3341   */\n      tag_258\n      jump\t// in\n    tag_344:\n        /* \"#utility.yul\":3263:3341   */\n      swap4\n      pop\n        /* \"#utility.yul\":3350:3415   */\n      tag_345\n        /* \"#utility.yul\":3408:3414   */\n      dup2\n        /* \"#utility.yul\":3403:3406   */\n      dup6\n        /* \"#utility.yul\":3396:3400   */\n      0x20\n        /* \"#utility.yul\":3389:3394   */\n      dup7\n        /* \"#utility.yul\":3385:3401   */\n      add\n        /* \"#utility.yul\":3350:3415   */\n      tag_259\n      jump\t// in\n    tag_345:\n        /* \"#utility.yul\":3440:3469   */\n      tag_346\n        /* \"#utility.yul\":3462:3468   */\n      dup2\n        /* \"#utility.yul\":3440:3469   */\n      tag_260\n      jump\t// in\n    tag_346:\n        /* \"#utility.yul\":3435:3438   */\n      dup5\n        /* \"#utility.yul\":3431:3470   */\n      add\n        /* \"#utility.yul\":3424:3470   */\n      swap2\n      pop\n        /* \"#utility.yul\":3191:3476   */\n      pop\n        /* \"#utility.yul\":3099:3476   */\n      swap3\n      swap2\n      pop\n      pop\n      jump\t// out\n        /* \"#utility.yul\":3482:3795   */\n    tag_36:\n        /* \"#utility.yul\":3595:3599   */\n      0x00\n        /* \"#utility.yul\":3633:3635   */\n      0x20\n        /* \"#utility.yul\":3622:3631   */\n      dup3\n        /* \"#utility.yul\":3618:3636   */\n      add\n        /* \"#utility.yul\":3610:3636   */\n      swap1\n      pop\n        /* \"#utility.yul\":3682:3691   */\n      dup2\n        /* \"#utility.yul\":3676:3680   */\n      dup2\n        /* \"#utility.yul\":3672:3692   */\n      sub\n        /* \"#utility.yul\":3668:3669   */\n      0x00\n        /* \"#utility.yul\":3657:3666   */\n      dup4\n        /* \"#utility.yul\":3653:3670   */\n      add\n        /* \"#utility.yul\":3646:3693   */\n      mstore\n        /* \"#utility.yul\":3710:3788   */\n      tag_348\n        /* \"#utility.yul\":3783:3787   */\n      dup2\n        /* \"#utility.yul\":3774:3780   */\n      dup5\n        /* \"#utility.yul\":3710:3788   */\n      tag_261\n      jump\t// in\n    tag_348:\n        /* \"#utility.yul\":3702:3788   */\n      swap1\n      pop\n        /* \"#utility.yul\":3482:3795   */\n      swap3\n      swap2\n      pop\n      pop\n      jump\t// out\n        /* \"#utility.yul\":3801:3923   */\n    tag_262:\n        /* \"#utility.yul\":3874:3898   */\n      tag_350\n        /* \"#utility.yul\":3892:3897   */\n      dup2\n        /* \"#utility.yul\":3874:3898   */\n      tag_251\n      jump\t// in\n    tag_350:\n        /* \"#utility.yul\":3867:3872   */\n      dup2\n        /* \"#utility.yul\":3864:3899   */\n      eq\n        /* \"#utility.yul\":3854:3917   */\n      tag_351\n      jumpi\n        /* \"#utility.yul\":3913:3914   */\n      0x00\n        /* \"#utility.yul\":3910:3911   */\n      dup1\n        /* \"#utility.yul\":3903:3915   */\n      revert\n        /* \"#utility.yul\":3854:3917   */\n    tag_351:\n        /* \"#utility.yul\":3801:3923   */\n      pop\n      jump\t// out\n        /* \"#utility.yul\":3929:4068   */\n    tag_263:\n        /* \"#utility.yul\":3975:3980   */\n      0x00\n        /* \"#utility.yul\":4013:4019   */\n      dup2\n        /* \"#utility.yul\":4000:4020   */\n      calldataload\n        /* \"#utility.yul\":3991:4020   */\n      swap1\n      pop\n        /* \"#utility.yul\":4029:4062   */\n      tag_353\n        /* \"#utility.yul\":4056:4061   */\n      dup2\n        /* \"#utility.yul\":4029:4062   */\n      tag_262\n      jump\t// in\n    tag_353:\n        /* \"#utility.yul\":3929:4068   */\n      swap3\n      swap2\n      pop\n      pop\n      jump\t// out\n        /* \"#utility.yul\":4074:4548   */\n    tag_39:\n        /* \"#utility.yul\":4142:4148   */\n      0x00\n        /* \"#utility.yul\":4150:4156   */\n      dup1\n        /* \"#utility.yul\":4199:4201   */\n      0x40\n        /* \"#utility.yul\":4187:4196   */\n      dup4\n        /* \"#utility.yul\":4178:4185   */\n      dup6\n        /* \"#utility.yul\":4174:4197   */\n      sub\n        /* \"#utility.yul\":4170:4202   */\n      slt\n        /* \"#utility.yul\":4167:4286   */\n      iszero\n      tag_355\n      jumpi\n        /* \"#utility.yul\":4205:4284   */\n      tag_356\n      tag_245\n      jump\t// in\n    tag_356:\n        /* \"#utility.yul\":4167:4286   */\n    tag_355:\n        /* \"#utility.yul\":4325:4326   */\n      0x00\n        /* \"#utility.yul\":4350:4403   */\n      tag_357\n        /* \"#utility.yul\":4395:4402   */\n      dup6\n        /* \"#utility.yul\":4386:4392   */\n      dup3\n        /* \"#utility.yul\":4375:4384   */\n      dup7\n        /* \"#utility.yul\":4371:4393   */\n      add\n        /* \"#utility.yul\":4350:4403   */\n      tag_250\n      jump\t// in\n    tag_357:\n        /* \"#utility.yul\":4340:4403   */\n      swap3\n      pop\n        /* \"#utility.yul\":4296:4413   */\n      pop\n        /* \"#utility.yul\":4452:4454   */\n      0x20\n        /* \"#utility.yul\":4478:4531   */\n      tag_358\n        /* \"#utility.yul\":4523:4530   */\n      dup6\n        /* \"#utility.yul\":4514:4520   */\n      dup3\n        /* \"#utility.yul\":4503:4512   */\n      dup7\n        /* \"#utility.yul\":4499:4521   */\n      add\n        /* \"#utility.yul\":4478:4531   */\n      tag_263\n      jump\t// in\n    tag_358:\n        /* \"#utility.yul\":4468:4531   */\n      swap2\n      pop\n        /* \"#utility.yul\":4423:4541   */\n      pop\n        /* \"#utility.yul\":4074:4548   */\n      swap3\n      pop\n      swap3\n      swap1\n      pop\n      jump\t// out\n        /* \"#utility.yul\":4554:4764   */\n    tag_42:\n        /* \"#utility.yul\":4641:4645   */\n      0x00\n        /* \"#utility.yul\":4679:4681   */\n      0x20\n        /* \"#utility.yul\":4668:4677   */\n      dup3\n        /* \"#utility.yul\":4664:4682   */\n      add\n        /* \"#utility.yul\":4656:4682   */\n      swap1\n      pop\n        /* \"#utility.yul\":4692:4757   */\n      tag_360\n        /* \"#utility.yul\":4754:4755   */\n      0x00\n        /* \"#utility.yul\":4743:4752   */\n      dup4\n        /* \"#utility.yul\":4739:4756   */\n      add\n        /* \"#utility.yul\":4730:4736   */\n      dup5\n        /* \"#utility.yul\":4692:4757   */\n      tag_256\n      jump\t// in\n    tag_360:\n        /* \"#utility.yul\":4554:4764   */\n      swap3\n      swap2\n      pop\n      pop\n      jump\t// out\n        /* \"#utility.yul\":4770:4992   */\n    tag_46:\n        /* \"#utility.yul\":4863:4867   */\n      0x00\n        /* \"#utility.yul\":4901:4903   */\n      0x20\n        /* \"#utility.yul\":4890:4899   */\n      dup3\n        /* \"#utility.yul\":4886:4904   */\n      add\n        /* \"#utility.yul\":4878:4904   */\n      swap1\n      pop\n        /* \"#utility.yul\":4914:4985   */\n      tag_362\n        /* \"#utility.yul\":4982:4983   */\n      0x00\n        /* \"#utility.yul\":4971:4980   */\n      dup4\n        /* \"#utility.yul\":4967:4984   */\n      add\n        /* \"#utility.yul\":4958:4964   */\n      dup5\n        /* \"#utility.yul\":4914:4985   */\n      tag_252\n      jump\t// in\n    tag_362:\n        /* \"#utility.yul\":4770:4992   */\n      swap3\n      swap2\n      pop\n      pop\n      jump\t// out\n        /* \"#utility.yul\":4998:5617   */\n    tag_49:\n        /* \"#utility.yul\":5075:5081   */\n      0x00\n        /* \"#utility.yul\":5083:5089   */\n      dup1\n        /* \"#utility.yul\":5091:5097   */\n      0x00\n        /* \"#utility.yul\":5140:5142   */\n      0x60\n        /* \"#utility.yul\":5128:5137   */\n      dup5\n        /* \"#utility.yul\":5119:5126   */\n      dup7\n        /* \"#utility.yul\":5115:5138   */\n      sub\n        /* \"#utility.yul\":5111:5143   */\n      slt\n        /* \"#utility.yul\":5108:5227   */\n      iszero\n      tag_364\n      jumpi\n        /* \"#utility.yul\":5146:5225   */\n      tag_365\n      tag_245\n      jump\t// in\n    tag_365:\n        /* \"#utility.yul\":5108:5227   */\n    tag_364:\n        /* \"#utility.yul\":5266:5267   */\n      0x00\n        /* \"#utility.yul\":5291:5344   */\n      tag_366\n        /* \"#utility.yul\":5336:5343   */\n      dup7\n        /* \"#utility.yul\":5327:5333   */\n      dup3\n        /* \"#utility.yul\":5316:5325   */\n      dup8\n        /* \"#utility.yul\":5312:5334   */\n      add\n        /* \"#utility.yul\":5291:5344   */\n      tag_250\n      jump\t// in\n    tag_366:\n        /* \"#utility.yul\":5281:5344   */\n      swap4\n      pop\n        /* \"#utility.yul\":5237:5354   */\n      pop\n        /* \"#utility.yul\":5393:5395   */\n      0x20\n        /* \"#utility.yul\":5419:5472   */\n      tag_367\n        /* \"#utility.yul\":5464:5471   */\n      dup7\n        /* \"#utility.yul\":5455:5461   */\n      dup3\n        /* \"#utility.yul\":5444:5453   */\n      dup8\n        /* \"#utility.yul\":5440:5462   */\n      add\n        /* \"#utility.yul\":5419:5472   */\n      tag_250\n      jump\t// in\n    tag_367:\n        /* \"#utility.yul\":5409:5472   */\n      swap3\n      pop\n        /* \"#utility.yul\":5364:5482   */\n      pop\n        /* \"#utility.yul\":5521:5523   */\n      0x40\n        /* \"#utility.yul\":5547:5600   */\n      tag_368\n        /* \"#utility.yul\":5592:5599   */\n      dup7\n        /* \"#utility.yul\":5583:5589   */\n      dup3\n        /* \"#utility.yul\":5572:5581   */\n      dup8\n        /* \"#utility.yul\":5568:5590   */\n      add\n        /* \"#utility.yul\":5547:5600   */\n      tag_263\n      jump\t// in\n    tag_368:\n        /* \"#utility.yul\":5537:5600   */\n      swap2\n      pop\n        /* \"#utility.yul\":5492:5610   */\n      pop\n        /* \"#utility.yul\":4998:5617   */\n      swap3\n      pop\n      swap3\n      pop\n      swap3\n      jump\t// out\n        /* \"#utility.yul\":5623:5709   */\n    tag_264:\n        /* \"#utility.yul\":5658:5665   */\n      0x00\n        /* \"#utility.yul\":5698:5702   */\n      0xff\n        /* \"#utility.yul\":5691:5696   */\n      dup3\n        /* \"#utility.yul\":5687:5703   */\n      and\n        /* \"#utility.yul\":5676:5703   */\n      swap1\n      pop\n        /* \"#utility.yul\":5623:5709   */\n      swap2\n      swap1\n      pop\n      jump\t// out\n        /* \"#utility.yul\":5715:5827   */\n    tag_265:\n        /* \"#utility.yul\":5798:5820   */\n      tag_371\n        /* \"#utility.yul\":5814:5819   */\n      dup2\n        /* \"#utility.yul\":5798:5820   */\n      tag_264\n      jump\t// in\n    tag_371:\n        /* \"#utility.yul\":5793:5796   */\n      dup3\n        /* \"#utility.yul\":5786:5821   */\n      mstore\n        /* \"#utility.yul\":5715:5827   */\n      pop\n      pop\n      jump\t// out\n        /* \"#utility.yul\":5833:6047   */\n    tag_55:\n        /* \"#utility.yul\":5922:5926   */\n      0x00\n        /* \"#utility.yul\":5960:5962   */\n      0x20\n        /* \"#utility.yul\":5949:5958   */\n      dup3\n        /* \"#utility.yul\":5945:5963   */\n      add\n        /* \"#utility.yul\":5937:5963   */\n      swap1\n      pop\n        /* \"#utility.yul\":5973:6040   */\n      tag_373\n        /* \"#utility.yul\":6037:6038   */\n      0x00\n        /* \"#utility.yul\":6026:6035   */\n      dup4\n        /* \"#utility.yul\":6022:6039   */\n      add\n        /* \"#utility.yul\":6013:6019   */\n      dup5\n        /* \"#utility.yul\":5973:6040   */\n      tag_265\n      jump\t// in\n    tag_373:\n        /* \"#utility.yul\":5833:6047   */\n      swap3\n      swap2\n      pop\n      pop\n      jump\t// out\n        /* \"#utility.yul\":6053:6527   */\n    tag_71:\n        /* \"#utility.yul\":6121:6127   */\n      0x00\n        /* \"#utility.yul\":6129:6135   */\n      dup1\n        /* \"#utility.yul\":6178:6180   */\n      0x40\n        /* \"#utility.yul\":6166:6175   */\n      dup4\n        /* \"#utility.yul\":6157:6164   */\n      dup6\n        /* \"#utility.yul\":6153:6176   */\n      sub\n        /* \"#utility.yul\":6149:6181   */\n      slt\n        /* \"#utility.yul\":6146:6265   */\n      iszero\n      tag_375\n      jumpi\n        /* \"#utility.yul\":6184:6263   */\n      tag_376\n      tag_245\n      jump\t// in\n    tag_376:\n        /* \"#utility.yul\":6146:6265   */\n    tag_375:\n        /* \"#utility.yul\":6304:6305   */\n      0x00\n        /* \"#utility.yul\":6329:6382   */\n      tag_377\n        /* \"#utility.yul\":6374:6381   */\n      dup6\n        /* \"#utility.yul\":6365:6371   */\n      dup3\n        /* \"#utility.yul\":6354:6363   */\n      dup7\n        /* \"#utility.yul\":6350:6372   */\n      add\n        /* \"#utility.yul\":6329:6382   */\n      tag_250\n      jump\t// in\n    tag_377:\n        /* \"#utility.yul\":6319:6382   */\n      swap3\n      pop\n        /* \"#utility.yul\":6275:6392   */\n      pop\n        /* \"#utility.yul\":6431:6433   */\n      0x20\n        /* \"#utility.yul\":6457:6510   */\n      tag_378\n        /* \"#utility.yul\":6502:6509   */\n      dup6\n        /* \"#utility.yul\":6493:6499   */\n      dup3\n        /* \"#utility.yul\":6482:6491   */\n      dup7\n        /* \"#utility.yul\":6478:6500   */\n      add\n        /* \"#utility.yul\":6457:6510   */\n      tag_250\n      jump\t// in\n    tag_378:\n        /* \"#utility.yul\":6447:6510   */\n      swap2\n      pop\n        /* \"#utility.yul\":6402:6520   */\n      pop\n        /* \"#utility.yul\":6053:6527   */\n      swap3\n      pop\n      swap3\n      swap1\n      pop\n      jump\t// out\n        /* \"#utility.yul\":6533:6655   */\n    tag_266:\n        /* \"#utility.yul\":6606:6630   */\n      tag_380\n        /* \"#utility.yul\":6624:6629   */\n      dup2\n        /* \"#utility.yul\":6606:6630   */\n      tag_253\n      jump\t// in\n    tag_380:\n        /* \"#utility.yul\":6599:6604   */\n      dup2\n        /* \"#utility.yul\":6596:6631   */\n      eq\n        /* \"#utility.yul\":6586:6649   */\n      tag_381\n      jumpi\n        /* \"#utility.yul\":6645:6646   */\n      0x00\n        /* \"#utility.yul\":6642:6643   */\n      dup1\n        /* \"#utility.yul\":6635:6647   */\n      revert\n        /* \"#utility.yul\":6586:6649   */\n    tag_381:\n        /* \"#utility.yul\":6533:6655   */\n      pop\n      jump\t// out\n        /* \"#utility.yul\":6661:6800   */\n    tag_267:\n        /* \"#utility.yul\":6707:6712   */\n      0x00\n        /* \"#utility.yul\":6745:6751   */\n      dup2\n        /* \"#utility.yul\":6732:6752   */\n      calldataload\n        /* \"#utility.yul\":6723:6752   */\n      swap1\n      pop\n        /* \"#utility.yul\":6761:6794   */\n      tag_383\n        /* \"#utility.yul\":6788:6793   */\n      dup2\n        /* \"#utility.yul\":6761:6794   */\n      tag_266\n      jump\t// in\n    tag_383:\n        /* \"#utility.yul\":6661:6800   */\n      swap3\n      swap2\n      pop\n      pop\n      jump\t// out\n        /* \"#utility.yul\":6806:7135   */\n    tag_84:\n        /* \"#utility.yul\":6865:6871   */\n      0x00\n        /* \"#utility.yul\":6914:6916   */\n      0x20\n        /* \"#utility.yul\":6902:6911   */\n      dup3\n        /* \"#utility.yul\":6893:6900   */\n      dup5\n        /* \"#utility.yul\":6889:6912   */\n      sub\n        /* \"#utility.yul\":6885:6917   */\n      slt\n        /* \"#utility.yul\":6882:7001   */\n      iszero\n      tag_385\n      jumpi\n        /* \"#utility.yul\":6920:6999   */\n      tag_386\n      tag_245\n      jump\t// in\n    tag_386:\n        /* \"#utility.yul\":6882:7001   */\n    tag_385:\n        /* \"#utility.yul\":7040:7041   */\n      0x00\n        /* \"#utility.yul\":7065:7118   */\n      tag_387\n        /* \"#utility.yul\":7110:7117   */\n      dup5\n        /* \"#utility.yul\":7101:7107   */\n      dup3\n        /* \"#utility.yul\":7090:7099   */\n      dup6\n        /* \"#utility.yul\":7086:7108   */\n      add\n        /* \"#utility.yul\":7065:7118   */\n      tag_267\n      jump\t// in\n    tag_387:\n        /* \"#utility.yul\":7055:7118   */\n      swap2\n      pop\n        /* \"#utility.yul\":7011:7128   */\n      pop\n        /* \"#utility.yul\":6806:7135   */\n      swap3\n      swap2\n      pop\n      pop\n      jump\t// out\n        /* \"#utility.yul\":7141:7259   */\n    tag_268:\n        /* \"#utility.yul\":7228:7252   */\n      tag_389\n        /* \"#utility.yul\":7246:7251   */\n      dup2\n        /* \"#utility.yul\":7228:7252   */\n      tag_248\n      jump\t// in\n    tag_389:\n        /* \"#utility.yul\":7223:7226   */\n      dup3\n        /* \"#utility.yul\":7216:7253   */\n      mstore\n        /* \"#utility.yul\":7141:7259   */\n      pop\n      pop\n      jump\t// out\n        /* \"#utility.yul\":7265:7487   */\n    tag_108:\n        /* \"#utility.yul\":7358:7362   */\n      0x00\n        /* \"#utility.yul\":7396:7398   */\n      0x20\n        /* \"#utility.yul\":7385:7394   */\n      dup3\n        /* \"#utility.yul\":7381:7399   */\n      add\n        /* \"#utility.yul\":7373:7399   */\n      swap1\n      pop\n        /* \"#utility.yul\":7409:7480   */\n      tag_391\n        /* \"#utility.yul\":7477:7478   */\n      0x00\n        /* \"#utility.yul\":7466:7475   */\n      dup4\n        /* \"#utility.yul\":7462:7479   */\n      add\n        /* \"#utility.yul\":7453:7459   */\n      dup5\n        /* \"#utility.yul\":7409:7480   */\n      tag_268\n      jump\t// in\n    tag_391:\n        /* \"#utility.yul\":7265:7487   */\n      swap3\n      swap2\n      pop\n      pop\n      jump\t// out\n        /* \"#utility.yul\":7493:7673   */\n    tag_269:\n        /* \"#utility.yul\":7541:7618   */\n      0x4e487b7100000000000000000000000000000000000000000000000000000000\n        /* \"#utility.yul\":7538:7539   */\n      0x00\n        /* \"#utility.yul\":7531:7619   */\n      mstore\n        /* \"#utility.yul\":7638:7642   */\n      0x22\n        /* \"#utility.yul\":7635:7636   */\n      0x04\n        /* \"#utility.yul\":7628:7643   */\n      mstore\n        /* \"#utility.yul\":7662:7666   */\n      0x24\n        /* \"#utility.yul\":7659:7660   */\n      0x00\n        /* \"#utility.yul\":7652:7667   */\n      revert\n        /* \"#utility.yul\":7679:7999   */\n    tag_111:\n        /* \"#utility.yul\":7723:7729   */\n      0x00\n        /* \"#utility.yul\":7760:7761   */\n      0x02\n        /* \"#utility.yul\":7754:7758   */\n      dup3\n        /* \"#utility.yul\":7750:7762   */\n      div\n        /* \"#utility.yul\":7740:7762   */\n      swap1\n      pop\n        /* \"#utility.yul\":7807:7808   */\n      0x01\n        /* \"#utility.yul\":7801:7805   */\n      dup3\n        /* \"#utility.yul\":7797:7809   */\n      and\n        /* \"#utility.yul\":7828:7846   */\n      dup1\n        /* \"#utility.yul\":7818:7899   */\n      tag_394\n      jumpi\n        /* \"#utility.yul\":7884:7888   */\n      0x7f\n        /* \"#utility.yul\":7876:7882   */\n      dup3\n        /* \"#utility.yul\":7872:7889   */\n      and\n        /* \"#utility.yul\":7862:7889   */\n      swap2\n      pop\n        /* \"#utility.yul\":7818:7899   */\n    tag_394:\n        /* \"#utility.yul\":7946:7948   */\n      0x20\n        /* \"#utility.yul\":7938:7944   */\n      dup3\n        /* \"#utility.yul\":7935:7949   */\n      lt\n        /* \"#utility.yul\":7915:7933   */\n      dup2\n        /* \"#utility.yul\":7912:7950   */\n      sub\n        /* \"#utility.yul\":7909:7993   */\n      tag_395\n      jumpi\n        /* \"#utility.yul\":7965:7983   */\n      tag_396\n      tag_269\n      jump\t// in\n    tag_396:\n        /* \"#utility.yul\":7909:7993   */\n    tag_395:\n        /* \"#utility.yul\":7730:7999   */\n      pop\n        /* \"#utility.yul\":7679:7999   */\n      swap2\n      swap1\n      pop\n      jump\t// out\n        /* \"#utility.yul\":8005:8181   */\n    tag_270:\n        /* \"#utility.yul\":8145:8173   */\n      0x45524332303a20746f6b656e206973206e6f7420706175736564000000000000\n        /* \"#utility.yul\":8141:8142   */\n      0x00\n        /* \"#utility.yul\":8133:8139   */\n      dup3\n        /* \"#utility.yul\":8129:8143   */\n      add\n        /* \"#utility.yul\":8122:8174   */\n      mstore\n        /* \"#utility.yul\":8005:8181   */\n      pop\n      jump\t// out\n        /* \"#utility.yul\":8187:8553   */\n    tag_271:\n        /* \"#utility.yul\":8329:8332   */\n      0x00\n        /* \"#utility.yul\":8350:8417   */\n      tag_399\n        /* \"#utility.yul\":8414:8416   */\n      0x1a\n        /* \"#utility.yul\":8409:8412   */\n      dup4\n        /* \"#utility.yul\":8350:8417   */\n      tag_258\n      jump\t// in\n    tag_399:\n        /* \"#utility.yul\":8343:8417   */\n      swap2\n      pop\n        /* \"#utility.yul\":8426:8519   */\n      tag_400\n        /* \"#utility.yul\":8515:8518   */\n      dup3\n        /* \"#utility.yul\":8426:8519   */\n      tag_270\n      jump\t// in\n    tag_400:\n        /* \"#utility.yul\":8544:8546   */\n      0x20\n        /* \"#utility.yul\":8539:8542   */\n      dup3\n        /* \"#utility.yul\":8535:8547   */\n      add\n        /* \"#utility.yul\":8528:8547   */\n      swap1\n      pop\n        /* \"#utility.yul\":8187:8553   */\n      swap2\n      swap1\n      pop\n      jump\t// out\n        /* \"#utility.yul\":8559:8978   */\n    tag_123:\n        /* \"#utility.yul\":8725:8729   */\n      0x00\n        /* \"#utility.yul\":8763:8765   */\n      0x20\n        /* \"#utility.yul\":8752:8761   */\n      dup3\n        /* \"#utility.yul\":8748:8766   */\n      add\n        /* \"#utility.yul\":8740:8766   */\n      swap1\n      pop\n        /* \"#utility.yul\":8812:8821   */\n      dup2\n        /* \"#utility.yul\":8806:8810   */\n      dup2\n        /* \"#utility.yul\":8802:8822   */\n      sub\n        /* \"#utility.yul\":8798:8799   */\n      0x00\n        /* \"#utility.yul\":8787:8796   */\n      dup4\n        /* \"#utility.yul\":8783:8800   */\n      add\n        /* \"#utility.yul\":8776:8823   */\n      mstore\n        /* \"#utility.yul\":8840:8971   */\n      tag_402\n        /* \"#utility.yul\":8966:8970   */\n      dup2\n        /* \"#utility.yul\":8840:8971   */\n      tag_271\n      jump\t// in\n    tag_402:\n        /* \"#utility.yul\":8832:8971   */\n      swap1\n      pop\n        /* \"#utility.yul\":8559:8978   */\n      swap2\n      swap1\n      pop\n      jump\t// out\n        /* \"#utility.yul\":8984:9211   */\n    tag_272:\n        /* \"#utility.yul\":9124:9158   */\n      0x45524332303a207472616e7366657220616d6f756e7420657863656564732061\n        /* \"#utility.yul\":9120:9121   */\n      0x00\n        /* \"#utility.yul\":9112:9118   */\n      dup3\n        /* \"#utility.yul\":9108:9122   */\n      add\n        /* \"#utility.yul\":9101:9159   */\n      mstore\n        /* \"#utility.yul\":9193:9203   */\n      0x6c6c6f77616e6365000000000000000000000000000000000000000000000000\n        /* \"#utility.yul\":9188:9190   */\n      0x20\n        /* \"#utility.yul\":9180:9186   */\n      dup3\n        /* \"#utility.yul\":9176:9191   */\n      add\n        /* \"#utility.yul\":9169:9204   */\n      mstore\n        /* \"#utility.yul\":8984:9211   */\n      pop\n      jump\t// out\n        /* \"#utility.yul\":9217:9583   */\n    tag_273:\n        /* \"#utility.yul\":9359:9362   */\n      0x00\n        /* \"#utility.yul\":9380:9447   */\n      tag_405\n        /* \"#utility.yul\":9444:9446   */\n      0x28\n        /* \"#utility.yul\":9439:9442   */\n      dup4\n        /* \"#utility.yul\":9380:9447   */\n      tag_258\n      jump\t// in\n    tag_405:\n        /* \"#utility.yul\":9373:9447   */\n      swap2\n      pop\n        /* \"#utility.yul\":9456:9549   */\n      tag_406\n        /* \"#utility.yul\":9545:9548   */\n      dup3\n        /* \"#utility.yul\":9456:9549   */\n      tag_272\n      jump\t// in\n    tag_406:\n        /* \"#utility.yul\":9574:9576   */\n      0x40\n        /* \"#utility.yul\":9569:9572   */\n      dup3\n        /* \"#utility.yul\":9565:9577   */\n      add\n        /* \"#utility.yul\":9558:9577   */\n      swap1\n      pop\n        /* \"#utility.yul\":9217:9583   */\n      swap2\n      swap1\n      pop\n      jump\t// out\n        /* \"#utility.yul\":9589:10008   */\n    tag_128:\n        /* \"#utility.yul\":9755:9759   */\n      0x00\n        /* \"#utility.yul\":9793:9795   */\n      0x20\n        /* \"#utility.yul\":9782:9791   */\n      dup3\n        /* \"#utility.yul\":9778:9796   */\n      add\n        /* \"#utility.yul\":9770:9796   */\n      swap1\n      pop\n        /* \"#utility.yul\":9842:9851   */\n      dup2\n        /* \"#utility.yul\":9836:9840   */\n      dup2\n        /* \"#utility.yul\":9832:9852   */\n      sub\n        /* \"#utility.yul\":9828:9829   */\n      0x00\n        /* \"#utility.yul\":9817:9826   */\n      dup4\n        /* \"#utility.yul\":9813:9830   */\n      add\n        /* \"#utility.yul\":9806:9853   */\n      mstore\n        /* \"#utility.yul\":9870:10001   */\n      tag_408\n        /* \"#utility.yul\":9996:10000   */\n      dup2\n        /* \"#utility.yul\":9870:10001   */\n      tag_273\n      jump\t// in\n    tag_408:\n        /* \"#utility.yul\":9862:10001   */\n      swap1\n      pop\n        /* \"#utility.yul\":9589:10008   */\n      swap2\n      swap1\n      pop\n      jump\t// out\n        /* \"#utility.yul\":10014:10194   */\n    tag_274:\n        /* \"#utility.yul\":10062:10139   */\n      0x4e487b7100000000000000000000000000000000000000000000000000000000\n        /* \"#utility.yul\":10059:10060   */\n      0x00\n        /* \"#utility.yul\":10052:10140   */\n      mstore\n        /* \"#utility.yul\":10159:10163   */\n      0x11\n        /* \"#utility.yul\":10156:10157   */\n      0x04\n        /* \"#utility.yul\":10149:10164   */\n      mstore\n        /* \"#utility.yul\":10183:10187   */\n      0x24\n        /* \"#utility.yul\":10180:10181   */\n      0x00\n        /* \"#utility.yul\":10173:10188   */\n      revert\n        /* \"#utility.yul\":10200:10391   */\n    tag_137:\n        /* \"#utility.yul\":10240:10243   */\n      0x00\n        /* \"#utility.yul\":10259:10279   */\n      tag_411\n        /* \"#utility.yul\":10277:10278   */\n      dup3\n        /* \"#utility.yul\":10259:10279   */\n      tag_251\n      jump\t// in\n    tag_411:\n        /* \"#utility.yul\":10254:10279   */\n      swap2\n      pop\n        /* \"#utility.yul\":10293:10313   */\n      tag_412\n        /* \"#utility.yul\":10311:10312   */\n      dup4\n        /* \"#utility.yul\":10293:10313   */\n      tag_251\n      jump\t// in\n    tag_412:\n        /* \"#utility.yul\":10288:10313   */\n      swap3\n      pop\n        /* \"#utility.yul\":10336:10337   */\n      dup3\n        /* \"#utility.yul\":10333:10334   */\n      dup3\n        /* \"#utility.yul\":10329:10338   */\n      add\n        /* \"#utility.yul\":10322:10338   */\n      swap1\n      pop\n        /* \"#utility.yul\":10357:10360   */\n      dup1\n        /* \"#utility.yul\":10354:10355   */\n      dup3\n        /* \"#utility.yul\":10351:10361   */\n      gt\n        /* \"#utility.yul\":10348:10384   */\n      iszero\n      tag_413\n      jumpi\n        /* \"#utility.yul\":10364:10382   */\n      tag_414\n      tag_274\n      jump\t// in\n    tag_414:\n        /* \"#utility.yul\":10348:10384   */\n    tag_413:\n        /* \"#utility.yul\":10200:10391   */\n      swap3\n      swap2\n      pop\n      pop\n      jump\t// out\n        /* \"#utility.yul\":10397:10630   */\n    tag_275:\n        /* \"#utility.yul\":10537:10571   */\n      0x45524332303a206f6e6c7920636f72706f726174696f6e2063616e2063616c6c\n        /* \"#utility.yul\":10533:10534   */\n      0x00\n        /* \"#utility.yul\":10525:10531   */\n      dup3\n        /* \"#utility.yul\":10521:10535   */\n      add\n        /* \"#utility.yul\":10514:10572   */\n      mstore\n        /* \"#utility.yul\":10606:10622   */\n      0x20746869732066756e6374696f6e000000000000000000000000000000000000\n        /* \"#utility.yul\":10601:10603   */\n      0x20\n        /* \"#utility.yul\":10593:10599   */\n      dup3\n        /* \"#utility.yul\":10589:10604   */\n      add\n        /* \"#utility.yul\":10582:10623   */\n      mstore\n        /* \"#utility.yul\":10397:10630   */\n      pop\n      jump\t// out\n        /* \"#utility.yul\":10636:11002   */\n    tag_276:\n        /* \"#utility.yul\":10778:10781   */\n      0x00\n        /* \"#utility.yul\":10799:10866   */\n      tag_417\n        /* \"#utility.yul\":10863:10865   */\n      0x2e\n        /* \"#utility.yul\":10858:10861   */\n      dup4\n        /* \"#utility.yul\":10799:10866   */\n      tag_258\n      jump\t// in\n    tag_417:\n        /* \"#utility.yul\":10792:10866   */\n      swap2\n      pop\n        /* \"#utility.yul\":10875:10968   */\n      tag_418\n        /* \"#utility.yul\":10964:10967   */\n      dup3\n        /* \"#utility.yul\":10875:10968   */\n      tag_275\n      jump\t// in\n    tag_418:\n        /* \"#utility.yul\":10993:10995   */\n      0x40\n        /* \"#utility.yul\":10988:10991   */\n      dup3\n        /* \"#utility.yul\":10984:10996   */\n      add\n        /* \"#utility.yul\":10977:10996   */\n      swap1\n      pop\n        /* \"#utility.yul\":10636:11002   */\n      swap2\n      swap1\n      pop\n      jump\t// out\n        /* \"#utility.yul\":11008:11427   */\n    tag_141:\n        /* \"#utility.yul\":11174:11178   */\n      0x00\n        /* \"#utility.yul\":11212:11214   */\n      0x20\n        /* \"#utility.yul\":11201:11210   */\n      dup3\n        /* \"#utility.yul\":11197:11215   */\n      add\n        /* \"#utility.yul\":11189:11215   */\n      swap1\n      pop\n        /* \"#utility.yul\":11261:11270   */\n      dup2\n        /* \"#utility.yul\":11255:11259   */\n      dup2\n        /* \"#utility.yul\":11251:11271   */\n      sub\n        /* \"#utility.yul\":11247:11248   */\n      0x00\n        /* \"#utility.yul\":11236:11245   */\n      dup4\n        /* \"#utility.yul\":11232:11249   */\n      add\n        /* \"#utility.yul\":11225:11272   */\n      mstore\n        /* \"#utility.yul\":11289:11420   */\n      tag_420\n        /* \"#utility.yul\":11415:11419   */\n      dup2\n        /* \"#utility.yul\":11289:11420   */\n      tag_276\n      jump\t// in\n    tag_420:\n        /* \"#utility.yul\":11281:11420   */\n      swap1\n      pop\n        /* \"#utility.yul\":11008:11427   */\n      swap2\n      swap1\n      pop\n      jump\t// out\n        /* \"#utility.yul\":11433:11655   */\n    tag_277:\n        /* \"#utility.yul\":11573:11607   */\n      0x45524332303a206f6e6c7920636f72706f726174696f6e2063616e20756e7061\n        /* \"#utility.yul\":11569:11570   */\n      0x00\n        /* \"#utility.yul\":11561:11567   */\n      dup3\n        /* \"#utility.yul\":11557:11571   */\n      add\n        /* \"#utility.yul\":11550:11608   */\n      mstore\n        /* \"#utility.yul\":11642:11647   */\n      0x7573650000000000000000000000000000000000000000000000000000000000\n        /* \"#utility.yul\":11637:11639   */\n      0x20\n        /* \"#utility.yul\":11629:11635   */\n      dup3\n        /* \"#utility.yul\":11625:11640   */\n      add\n        /* \"#utility.yul\":11618:11648   */\n      mstore\n        /* \"#utility.yul\":11433:11655   */\n      pop\n      jump\t// out\n        /* \"#utility.yul\":11661:12027   */\n    tag_278:\n        /* \"#utility.yul\":11803:11806   */\n      0x00\n        /* \"#utility.yul\":11824:11891   */\n      tag_423\n        /* \"#utility.yul\":11888:11890   */\n      0x23\n        /* \"#utility.yul\":11883:11886   */\n      dup4\n        /* \"#utility.yul\":11824:11891   */\n      tag_258\n      jump\t// in\n    tag_423:\n        /* \"#utility.yul\":11817:11891   */\n      swap2\n      pop\n        /* \"#utility.yul\":11900:11993   */\n      tag_424\n        /* \"#utility.yul\":11989:11992   */\n      dup3\n        /* \"#utility.yul\":11900:11993   */\n      tag_277\n      jump\t// in\n    tag_424:\n        /* \"#utility.yul\":12018:12020   */\n      0x40\n        /* \"#utility.yul\":12013:12016   */\n      dup3\n        /* \"#utility.yul\":12009:12021   */\n      add\n        /* \"#utility.yul\":12002:12021   */\n      swap1\n      pop\n        /* \"#utility.yul\":11661:12027   */\n      swap2\n      swap1\n      pop\n      jump\t// out\n        /* \"#utility.yul\":12033:12452   */\n    tag_145:\n        /* \"#utility.yul\":12199:12203   */\n      0x00\n        /* \"#utility.yul\":12237:12239   */\n      0x20\n        /* \"#utility.yul\":12226:12235   */\n      dup3\n        /* \"#utility.yul\":12222:12240   */\n      add\n        /* \"#utility.yul\":12214:12240   */\n      swap1\n      pop\n        /* \"#utility.yul\":12286:12295   */\n      dup2\n        /* \"#utility.yul\":12280:12284   */\n      dup2\n        /* \"#utility.yul\":12276:12296   */\n      sub\n        /* \"#utility.yul\":12272:12273   */\n      0x00\n        /* \"#utility.yul\":12261:12270   */\n      dup4\n        /* \"#utility.yul\":12257:12274   */\n      add\n        /* \"#utility.yul\":12250:12297   */\n      mstore\n        /* \"#utility.yul\":12314:12445   */\n      tag_426\n        /* \"#utility.yul\":12440:12444   */\n      dup2\n        /* \"#utility.yul\":12314:12445   */\n      tag_278\n      jump\t// in\n    tag_426:\n        /* \"#utility.yul\":12306:12445   */\n      swap1\n      pop\n        /* \"#utility.yul\":12033:12452   */\n      swap2\n      swap1\n      pop\n      jump\t// out\n        /* \"#utility.yul\":12458:12639   */\n    tag_279:\n        /* \"#utility.yul\":12598:12631   */\n      0x41646472657373206e6f74206d61726b656420666f72207265636f7665727900\n        /* \"#utility.yul\":12594:12595   */\n      0x00\n        /* \"#utility.yul\":12586:12592   */\n      dup3\n        /* \"#utility.yul\":12582:12596   */\n      add\n        /* \"#utility.yul\":12575:12632   */\n      mstore\n        /* \"#utility.yul\":12458:12639   */\n      pop\n      jump\t// out\n        /* \"#utility.yul\":12645:13011   */\n    tag_280:\n        /* \"#utility.yul\":12787:12790   */\n      0x00\n        /* \"#utility.yul\":12808:12875   */\n      tag_429\n        /* \"#utility.yul\":12872:12874   */\n      0x1f\n        /* \"#utility.yul\":12867:12870   */\n      dup4\n        /* \"#utility.yul\":12808:12875   */\n      tag_258\n      jump\t// in\n    tag_429:\n        /* \"#utility.yul\":12801:12875   */\n      swap2\n      pop\n        /* \"#utility.yul\":12884:12977   */\n      tag_430\n        /* \"#utility.yul\":12973:12976   */\n      dup3\n        /* \"#utility.yul\":12884:12977   */\n      tag_279\n      jump\t// in\n    tag_430:\n        /* \"#utility.yul\":13002:13004   */\n      0x20\n        /* \"#utility.yul\":12997:13000   */\n      dup3\n        /* \"#utility.yul\":12993:13005   */\n      add\n        /* \"#utility.yul\":12986:13005   */\n      swap1\n      pop\n        /* \"#utility.yul\":12645:13011   */\n      swap2\n      swap1\n      pop\n      jump\t// out\n        /* \"#utility.yul\":13017:13436   */\n    tag_153:\n        /* \"#utility.yul\":13183:13187   */\n      0x00\n        /* \"#utility.yul\":13221:13223   */\n      0x20\n        /* \"#utility.yul\":13210:13219   */\n      dup3\n        /* \"#utility.yul\":13206:13224   */\n      add\n        /* \"#utility.yul\":13198:13224   */\n      swap1\n      pop\n        /* \"#utility.yul\":13270:13279   */\n      dup2\n        /* \"#utility.yul\":13264:13268   */\n      dup2\n        /* \"#utility.yul\":13260:13280   */\n      sub\n        /* \"#utility.yul\":13256:13257   */\n      0x00\n        /* \"#utility.yul\":13245:13254   */\n      dup4\n        /* \"#utility.yul\":13241:13258   */\n      add\n        /* \"#utility.yul\":13234:13281   */\n      mstore\n        /* \"#utility.yul\":13298:13429   */\n      tag_432\n        /* \"#utility.yul\":13424:13428   */\n      dup2\n        /* \"#utility.yul\":13298:13429   */\n      tag_280\n      jump\t// in\n    tag_432:\n        /* \"#utility.yul\":13290:13429   */\n      swap1\n      pop\n        /* \"#utility.yul\":13017:13436   */\n      swap2\n      swap1\n      pop\n      jump\t// out\n        /* \"#utility.yul\":13442:13614   */\n    tag_281:\n        /* \"#utility.yul\":13582:13606   */\n      0x41646472657373206e6f74207265676973746572656400000000000000000000\n        /* \"#utility.yul\":13578:13579   */\n      0x00\n        /* \"#utility.yul\":13570:13576   */\n      dup3\n        /* \"#utility.yul\":13566:13580   */\n      add\n        /* \"#utility.yul\":13559:13607   */\n      mstore\n        /* \"#utility.yul\":13442:13614   */\n      pop\n      jump\t// out\n        /* \"#utility.yul\":13620:13986   */\n    tag_282:\n        /* \"#utility.yul\":13762:13765   */\n      0x00\n        /* \"#utility.yul\":13783:13850   */\n      tag_435\n        /* \"#utility.yul\":13847:13849   */\n      0x16\n        /* \"#utility.yul\":13842:13845   */\n      dup4\n        /* \"#utility.yul\":13783:13850   */\n      tag_258\n      jump\t// in\n    tag_435:\n        /* \"#utility.yul\":13776:13850   */\n      swap2\n      pop\n        /* \"#utility.yul\":13859:13952   */\n      tag_436\n        /* \"#utility.yul\":13948:13951   */\n      dup3\n        /* \"#utility.yul\":13859:13952   */\n      tag_281\n      jump\t// in\n    tag_436:\n        /* \"#utility.yul\":13977:13979   */\n      0x20\n        /* \"#utility.yul\":13972:13975   */\n      dup3\n        /* \"#utility.yul\":13968:13980   */\n      add\n        /* \"#utility.yul\":13961:13980   */\n      swap1\n      pop\n        /* \"#utility.yul\":13620:13986   */\n      swap2\n      swap1\n      pop\n      jump\t// out\n        /* \"#utility.yul\":13992:14411   */\n    tag_160:\n        /* \"#utility.yul\":14158:14162   */\n      0x00\n        /* \"#utility.yul\":14196:14198   */\n      0x20\n        /* \"#utility.yul\":14185:14194   */\n      dup3\n        /* \"#utility.yul\":14181:14199   */\n      add\n        /* \"#utility.yul\":14173:14199   */\n      swap1\n      pop\n        /* \"#utility.yul\":14245:14254   */\n      dup2\n        /* \"#utility.yul\":14239:14243   */\n      dup2\n        /* \"#utility.yul\":14235:14255   */\n      sub\n        /* \"#utility.yul\":14231:14232   */\n      0x00\n        /* \"#utility.yul\":14220:14229   */\n      dup4\n        /* \"#utility.yul\":14216:14233   */\n      add\n        /* \"#utility.yul\":14209:14256   */\n      mstore\n        /* \"#utility.yul\":14273:14404   */\n      tag_438\n        /* \"#utility.yul\":14399:14403   */\n      dup2\n        /* \"#utility.yul\":14273:14404   */\n      tag_282\n      jump\t// in\n    tag_438:\n        /* \"#utility.yul\":14265:14404   */\n      swap1\n      pop\n        /* \"#utility.yul\":13992:14411   */\n      swap2\n      swap1\n      pop\n      jump\t// out\n        /* \"#utility.yul\":14417:14593   */\n    tag_283:\n        /* \"#utility.yul\":14557:14585   */\n      0x5265636f7665727920616c726561647920726571756573746564000000000000\n        /* \"#utility.yul\":14553:14554   */\n      0x00\n        /* \"#utility.yul\":14545:14551   */\n      dup3\n        /* \"#utility.yul\":14541:14555   */\n      add\n        /* \"#utility.yul\":14534:14586   */\n      mstore\n        /* \"#utility.yul\":14417:14593   */\n      pop\n      jump\t// out\n        /* \"#utility.yul\":14599:14965   */\n    tag_284:\n        /* \"#utility.yul\":14741:14744   */\n      0x00\n        /* \"#utility.yul\":14762:14829   */\n      tag_441\n        /* \"#utility.yul\":14826:14828   */\n      0x1a\n        /* \"#utility.yul\":14821:14824   */\n      dup4\n        /* \"#utility.yul\":14762:14829   */\n      tag_258\n      jump\t// in\n    tag_441:\n        /* \"#utility.yul\":14755:14829   */\n      swap2\n      pop\n        /* \"#utility.yul\":14838:14931   */\n      tag_442\n        /* \"#utility.yul\":14927:14930   */\n      dup3\n        /* \"#utility.yul\":14838:14931   */\n      tag_283\n      jump\t// in\n    tag_442:\n        /* \"#utility.yul\":14956:14958   */\n      0x20\n        /* \"#utility.yul\":14951:14954   */\n      dup3\n        /* \"#utility.yul\":14947:14959   */\n      add\n        /* \"#utility.yul\":14940:14959   */\n      swap1\n      pop\n        /* \"#utility.yul\":14599:14965   */\n      swap2\n      swap1\n      pop\n      jump\t// out\n        /* \"#utility.yul\":14971:15390   */\n    tag_163:\n        /* \"#utility.yul\":15137:15141   */\n      0x00\n        /* \"#utility.yul\":15175:15177   */\n      0x20\n        /* \"#utility.yul\":15164:15173   */\n      dup3\n        /* \"#utility.yul\":15160:15178   */\n      add\n        /* \"#utility.yul\":15152:15178   */\n      swap1\n      pop\n        /* \"#utility.yul\":15224:15233   */\n      dup2\n        /* \"#utility.yul\":15218:15222   */\n      dup2\n        /* \"#utility.yul\":15214:15234   */\n      sub\n        /* \"#utility.yul\":15210:15211   */\n      0x00\n        /* \"#utility.yul\":15199:15208   */\n      dup4\n        /* \"#utility.yul\":15195:15212   */\n      add\n        /* \"#utility.yul\":15188:15235   */\n      mstore\n        /* \"#utility.yul\":15252:15383   */\n      tag_444\n        /* \"#utility.yul\":15378:15382   */\n      dup2\n        /* \"#utility.yul\":15252:15383   */\n      tag_284\n      jump\t// in\n    tag_444:\n        /* \"#utility.yul\":15244:15383   */\n      swap1\n      pop\n        /* \"#utility.yul\":14971:15390   */\n      swap2\n      swap1\n      pop\n      jump\t// out\n        /* \"#utility.yul\":15396:15616   */\n    tag_285:\n        /* \"#utility.yul\":15536:15570   */\n      0x45524332303a206f6e6c7920636f72706f726174696f6e2063616e2070617573\n        /* \"#utility.yul\":15532:15533   */\n      0x00\n        /* \"#utility.yul\":15524:15530   */\n      dup3\n        /* \"#utility.yul\":15520:15534   */\n      add\n        /* \"#utility.yul\":15513:15571   */\n      mstore\n        /* \"#utility.yul\":15605:15608   */\n      0x6500000000000000000000000000000000000000000000000000000000000000\n        /* \"#utility.yul\":15600:15602   */\n      0x20\n        /* \"#utility.yul\":15592:15598   */\n      dup3\n        /* \"#utility.yul\":15588:15603   */\n      add\n        /* \"#utility.yul\":15581:15609   */\n      mstore\n        /* \"#utility.yul\":15396:15616   */\n      pop\n      jump\t// out\n        /* \"#utility.yul\":15622:15988   */\n    tag_286:\n        /* \"#utility.yul\":15764:15767   */\n      0x00\n        /* \"#utility.yul\":15785:15852   */\n      tag_447\n        /* \"#utility.yul\":15849:15851   */\n      0x21\n        /* \"#utility.yul\":15844:15847   */\n      dup4\n        /* \"#utility.yul\":15785:15852   */\n      tag_258\n      jump\t// in\n    tag_447:\n        /* \"#utility.yul\":15778:15852   */\n      swap2\n      pop\n        /* \"#utility.yul\":15861:15954   */\n      tag_448\n        /* \"#utility.yul\":15950:15953   */\n      dup3\n        /* \"#utility.yul\":15861:15954   */\n      tag_285\n      jump\t// in\n    tag_448:\n        /* \"#utility.yul\":15979:15981   */\n      0x40\n        /* \"#utility.yul\":15974:15977   */\n      dup3\n        /* \"#utility.yul\":15970:15982   */\n      add\n        /* \"#utility.yul\":15963:15982   */\n      swap1\n      pop\n        /* \"#utility.yul\":15622:15988   */\n      swap2\n      swap1\n      pop\n      jump\t// out\n        /* \"#utility.yul\":15994:16413   */\n    tag_174:\n        /* \"#utility.yul\":16160:16164   */\n      0x00\n        /* \"#utility.yul\":16198:16200   */\n      0x20\n        /* \"#utility.yul\":16187:16196   */\n      dup3\n        /* \"#utility.yul\":16183:16201   */\n      add\n        /* \"#utility.yul\":16175:16201   */\n      swap1\n      pop\n        /* \"#utility.yul\":16247:16256   */\n      dup2\n        /* \"#utility.yul\":16241:16245   */\n      dup2\n        /* \"#utility.yul\":16237:16257   */\n      sub\n        /* \"#utility.yul\":16233:16234   */\n      0x00\n        /* \"#utility.yul\":16222:16231   */\n      dup4\n        /* \"#utility.yul\":16218:16235   */\n      add\n        /* \"#utility.yul\":16211:16258   */\n      mstore\n        /* \"#utility.yul\":16275:16406   */\n      tag_450\n        /* \"#utility.yul\":16401:16405   */\n      dup2\n        /* \"#utility.yul\":16275:16406   */\n      tag_286\n      jump\t// in\n    tag_450:\n        /* \"#utility.yul\":16267:16406   */\n      swap1\n      pop\n        /* \"#utility.yul\":15994:16413   */\n      swap2\n      swap1\n      pop\n      jump\t// out\n        /* \"#utility.yul\":16419:16595   */\n    tag_287:\n        /* \"#utility.yul\":16559:16587   */\n      0x4164647265737320616c72656164792072656769737465726564000000000000\n        /* \"#utility.yul\":16555:16556   */\n      0x00\n        /* \"#utility.yul\":16547:16553   */\n      dup3\n        /* \"#utility.yul\":16543:16557   */\n      add\n        /* \"#utility.yul\":16536:16588   */\n      mstore\n        /* \"#utility.yul\":16419:16595   */\n      pop\n      jump\t// out\n        /* \"#utility.yul\":16601:16967   */\n    tag_288:\n        /* \"#utility.yul\":16743:16746   */\n      0x00\n        /* \"#utility.yul\":16764:16831   */\n      tag_453\n        /* \"#utility.yul\":16828:16830   */\n      0x1a\n        /* \"#utility.yul\":16823:16826   */\n      dup4\n        /* \"#utility.yul\":16764:16831   */\n      tag_258\n      jump\t// in\n    tag_453:\n        /* \"#utility.yul\":16757:16831   */\n      swap2\n      pop\n        /* \"#utility.yul\":16840:16933   */\n      tag_454\n        /* \"#utility.yul\":16929:16932   */\n      dup3\n        /* \"#utility.yul\":16840:16933   */\n      tag_287\n      jump\t// in\n    tag_454:\n        /* \"#utility.yul\":16958:16960   */\n      0x20\n        /* \"#utility.yul\":16953:16956   */\n      dup3\n        /* \"#utility.yul\":16949:16961   */\n      add\n        /* \"#utility.yul\":16942:16961   */\n      swap1\n      pop\n        /* \"#utility.yul\":16601:16967   */\n      swap2\n      swap1\n      pop\n      jump\t// out\n        /* \"#utility.yul\":16973:17392   */\n    tag_178:\n        /* \"#utility.yul\":17139:17143   */\n      0x00\n        /* \"#utility.yul\":17177:17179   */\n      0x20\n        /* \"#utility.yul\":17166:17175   */\n      dup3\n        /* \"#utility.yul\":17162:17180   */\n      add\n        /* \"#utility.yul\":17154:17180   */\n      swap1\n      pop\n        /* \"#utility.yul\":17226:17235   */\n      dup2\n        /* \"#utility.yul\":17220:17224   */\n      dup2\n        /* \"#utility.yul\":17216:17236   */\n      sub\n        /* \"#utility.yul\":17212:17213   */\n      0x00\n        /* \"#utility.yul\":17201:17210   */\n      dup4\n        /* \"#utility.yul\":17197:17214   */\n      add\n        /* \"#utility.yul\":17190:17237   */\n      mstore\n        /* \"#utility.yul\":17254:17385   */\n      tag_456\n        /* \"#utility.yul\":17380:17384   */\n      dup2\n        /* \"#utility.yul\":17254:17385   */\n      tag_288\n      jump\t// in\n    tag_456:\n        /* \"#utility.yul\":17246:17385   */\n      swap1\n      pop\n        /* \"#utility.yul\":16973:17392   */\n      swap2\n      swap1\n      pop\n      jump\t// out\n        /* \"#utility.yul\":17398:17620   */\n    tag_180:\n        /* \"#utility.yul\":17491:17495   */\n      0x00\n        /* \"#utility.yul\":17529:17531   */\n      0x20\n        /* \"#utility.yul\":17518:17527   */\n      dup3\n        /* \"#utility.yul\":17514:17532   */\n      add\n        /* \"#utility.yul\":17506:17532   */\n      swap1\n      pop\n        /* \"#utility.yul\":17542:17613   */\n      tag_458\n        /* \"#utility.yul\":17610:17611   */\n      0x00\n        /* \"#utility.yul\":17599:17608   */\n      dup4\n        /* \"#utility.yul\":17595:17612   */\n      add\n        /* \"#utility.yul\":17586:17592   */\n      dup5\n        /* \"#utility.yul\":17542:17613   */\n      tag_254\n      jump\t// in\n    tag_458:\n        /* \"#utility.yul\":17398:17620   */\n      swap3\n      swap2\n      pop\n      pop\n      jump\t// out\n        /* \"#utility.yul\":17626:17850   */\n    tag_289:\n        /* \"#utility.yul\":17766:17800   */\n      0x45524332303a2064656372656173656420616c6c6f77616e63652062656c6f77\n        /* \"#utility.yul\":17762:17763   */\n      0x00\n        /* \"#utility.yul\":17754:17760   */\n      dup3\n        /* \"#utility.yul\":17750:17764   */\n      add\n        /* \"#utility.yul\":17743:17801   */\n      mstore\n        /* \"#utility.yul\":17835:17842   */\n      0x207a65726f000000000000000000000000000000000000000000000000000000\n        /* \"#utility.yul\":17830:17832   */\n      0x20\n        /* \"#utility.yul\":17822:17828   */\n      dup3\n        /* \"#utility.yul\":17818:17833   */\n      add\n        /* \"#utility.yul\":17811:17843   */\n      mstore\n        /* \"#utility.yul\":17626:17850   */\n      pop\n      jump\t// out\n        /* \"#utility.yul\":17856:18222   */\n    tag_290:\n        /* \"#utility.yul\":17998:18001   */\n      0x00\n        /* \"#utility.yul\":18019:18086   */\n      tag_461\n        /* \"#utility.yul\":18083:18085   */\n      0x25\n        /* \"#utility.yul\":18078:18081   */\n      dup4\n        /* \"#utility.yul\":18019:18086   */\n      tag_258\n      jump\t// in\n    tag_461:\n        /* \"#utility.yul\":18012:18086   */\n      swap2\n      pop\n        /* \"#utility.yul\":18095:18188   */\n      tag_462\n        /* \"#utility.yul\":18184:18187   */\n      dup3\n        /* \"#utility.yul\":18095:18188   */\n      tag_289\n      jump\t// in\n    tag_462:\n        /* \"#utility.yul\":18213:18215   */\n      0x40\n        /* \"#utility.yul\":18208:18211   */\n      dup3\n        /* \"#utility.yul\":18204:18216   */\n      add\n        /* \"#utility.yul\":18197:18216   */\n      swap1\n      pop\n        /* \"#utility.yul\":17856:18222   */\n      swap2\n      swap1\n      pop\n      jump\t// out\n        /* \"#utility.yul\":18228:18647   */\n    tag_191:\n        /* \"#utility.yul\":18394:18398   */\n      0x00\n        /* \"#utility.yul\":18432:18434   */\n      0x20\n        /* \"#utility.yul\":18421:18430   */\n      dup3\n        /* \"#utility.yul\":18417:18435   */\n      add\n        /* \"#utility.yul\":18409:18435   */\n      swap1\n      pop\n        /* \"#utility.yul\":18481:18490   */\n      dup2\n        /* \"#utility.yul\":18475:18479   */\n      dup2\n        /* \"#utility.yul\":18471:18491   */\n      sub\n        /* \"#utility.yul\":18467:18468   */\n      0x00\n        /* \"#utility.yul\":18456:18465   */\n      dup4\n        /* \"#utility.yul\":18452:18469   */\n      add\n        /* \"#utility.yul\":18445:18492   */\n      mstore\n        /* \"#utility.yul\":18509:18640   */\n      tag_464\n        /* \"#utility.yul\":18635:18639   */\n      dup2\n        /* \"#utility.yul\":18509:18640   */\n      tag_290\n      jump\t// in\n    tag_464:\n        /* \"#utility.yul\":18501:18640   */\n      swap1\n      pop\n        /* \"#utility.yul\":18228:18647   */\n      swap2\n      swap1\n      pop\n      jump\t// out\n        /* \"#utility.yul\":18653:18830   */\n    tag_291:\n        /* \"#utility.yul\":18793:18822   */\n      0x546f6b656e2062616c616e6365206973206e6f7420656e6f7567680000000000\n        /* \"#utility.yul\":18789:18790   */\n      0x00\n        /* \"#utility.yul\":18781:18787   */\n      dup3\n        /* \"#utility.yul\":18777:18791   */\n      add\n        /* \"#utility.yul\":18770:18823   */\n      mstore\n        /* \"#utility.yul\":18653:18830   */\n      pop\n      jump\t// out\n        /* \"#utility.yul\":18836:19202   */\n    tag_292:\n        /* \"#utility.yul\":18978:18981   */\n      0x00\n        /* \"#utility.yul\":18999:19066   */\n      tag_467\n        /* \"#utility.yul\":19063:19065   */\n      0x1b\n        /* \"#utility.yul\":19058:19061   */\n      dup4\n        /* \"#utility.yul\":18999:19066   */\n      tag_258\n      jump\t// in\n    tag_467:\n        /* \"#utility.yul\":18992:19066   */\n      swap2\n      pop\n        /* \"#utility.yul\":19075:19168   */\n      tag_468\n        /* \"#utility.yul\":19164:19167   */\n      dup3\n        /* \"#utility.yul\":19075:19168   */\n      tag_291\n      jump\t// in\n    tag_468:\n        /* \"#utility.yul\":19193:19195   */\n      0x20\n        /* \"#utility.yul\":19188:19191   */\n      dup3\n        /* \"#utility.yul\":19184:19196   */\n      add\n        /* \"#utility.yul\":19177:19196   */\n      swap1\n      pop\n        /* \"#utility.yul\":18836:19202   */\n      swap2\n      swap1\n      pop\n      jump\t// out\n        /* \"#utility.yul\":19208:19627   */\n    tag_199:\n        /* \"#utility.yul\":19374:19378   */\n      0x00\n        /* \"#utility.yul\":19412:19414   */\n      0x20\n        /* \"#utility.yul\":19401:19410   */\n      dup3\n        /* \"#utility.yul\":19397:19415   */\n      add\n        /* \"#utility.yul\":19389:19415   */\n      swap1\n      pop\n        /* \"#utility.yul\":19461:19470   */\n      dup2\n        /* \"#utility.yul\":19455:19459   */\n      dup2\n        /* \"#utility.yul\":19451:19471   */\n      sub\n        /* \"#utility.yul\":19447:19448   */\n      0x00\n        /* \"#utility.yul\":19436:19445   */\n      dup4\n        /* \"#utility.yul\":19432:19449   */\n      add\n        /* \"#utility.yul\":19425:19472   */\n      mstore\n        /* \"#utility.yul\":19489:19620   */\n      tag_470\n        /* \"#utility.yul\":19615:19619   */\n      dup2\n        /* \"#utility.yul\":19489:19620   */\n      tag_292\n      jump\t// in\n    tag_470:\n        /* \"#utility.yul\":19481:19620   */\n      swap1\n      pop\n        /* \"#utility.yul\":19208:19627   */\n      swap2\n      swap1\n      pop\n      jump\t// out\n        /* \"#utility.yul\":19633:19813   */\n    tag_293:\n        /* \"#utility.yul\":19681:19758   */\n      0x4e487b7100000000000000000000000000000000000000000000000000000000\n        /* \"#utility.yul\":19678:19679   */\n      0x00\n        /* \"#utility.yul\":19671:19759   */\n      mstore\n        /* \"#utility.yul\":19778:19782   */\n      0x12\n        /* \"#utility.yul\":19775:19776   */\n      0x04\n        /* \"#utility.yul\":19768:19783   */\n      mstore\n        /* \"#utility.yul\":19802:19806   */\n      0x24\n        /* \"#utility.yul\":19799:19800   */\n      0x00\n        /* \"#utility.yul\":19792:19807   */\n      revert\n        /* \"#utility.yul\":19819:20004   */\n    tag_201:\n        /* \"#utility.yul\":19859:19860   */\n      0x00\n        /* \"#utility.yul\":19876:19896   */\n      tag_473\n        /* \"#utility.yul\":19894:19895   */\n      dup3\n        /* \"#utility.yul\":19876:19896   */\n      tag_251\n      jump\t// in\n    tag_473:\n        /* \"#utility.yul\":19871:19896   */\n      swap2\n      pop\n        /* \"#utility.yul\":19910:19930   */\n      tag_474\n        /* \"#utility.yul\":19928:19929   */\n      dup4\n        /* \"#utility.yul\":19910:19930   */\n      tag_251\n      jump\t// in\n    tag_474:\n        /* \"#utility.yul\":19905:19930   */\n      swap3\n      pop\n        /* \"#utility.yul\":19949:19950   */\n      dup3\n        /* \"#utility.yul\":19939:19974   */\n      tag_475\n      jumpi\n        /* \"#utility.yul\":19954:19972   */\n      tag_476\n      tag_293\n      jump\t// in\n    tag_476:\n        /* \"#utility.yul\":19939:19974   */\n    tag_475:\n        /* \"#utility.yul\":19996:19997   */\n      dup3\n        /* \"#utility.yul\":19993:19994   */\n      dup3\n        /* \"#utility.yul\":19989:19998   */\n      div\n        /* \"#utility.yul\":19984:19998   */\n      swap1\n      pop\n        /* \"#utility.yul\":19819:20004   */\n      swap3\n      swap2\n      pop\n      pop\n      jump\t// out\n        /* \"#utility.yul\":20010:20186   */\n    tag_203:\n        /* \"#utility.yul\":20042:20043   */\n      0x00\n        /* \"#utility.yul\":20059:20079   */\n      tag_478\n        /* \"#utility.yul\":20077:20078   */\n      dup3\n        /* \"#utility.yul\":20059:20079   */\n      tag_251\n      jump\t// in\n    tag_478:\n        /* \"#utility.yul\":20054:20079   */\n      swap2\n      pop\n        /* \"#utility.yul\":20093:20113   */\n      tag_479\n        /* \"#utility.yul\":20111:20112   */\n      dup4\n        /* \"#utility.yul\":20093:20113   */\n      tag_251\n      jump\t// in\n    tag_479:\n        /* \"#utility.yul\":20088:20113   */\n      swap3\n      pop\n        /* \"#utility.yul\":20132:20133   */\n      dup3\n        /* \"#utility.yul\":20122:20157   */\n      tag_480\n      jumpi\n        /* \"#utility.yul\":20137:20155   */\n      tag_481\n      tag_293\n      jump\t// in\n    tag_481:\n        /* \"#utility.yul\":20122:20157   */\n    tag_480:\n        /* \"#utility.yul\":20178:20179   */\n      dup3\n        /* \"#utility.yul\":20175:20176   */\n      dup3\n        /* \"#utility.yul\":20171:20180   */\n      mod\n        /* \"#utility.yul\":20166:20180   */\n      swap1\n      pop\n        /* \"#utility.yul\":20010:20186   */\n      swap3\n      swap2\n      pop\n      pop\n      jump\t// out\n        /* \"#utility.yul\":20192:20386   */\n    tag_206:\n        /* \"#utility.yul\":20232:20236   */\n      0x00\n        /* \"#utility.yul\":20252:20272   */\n      tag_483\n        /* \"#utility.yul\":20270:20271   */\n      dup3\n        /* \"#utility.yul\":20252:20272   */\n      tag_251\n      jump\t// in\n    tag_483:\n        /* \"#utility.yul\":20247:20272   */\n      swap2\n      pop\n        /* \"#utility.yul\":20286:20306   */\n      tag_484\n        /* \"#utility.yul\":20304:20305   */\n      dup4\n        /* \"#utility.yul\":20286:20306   */\n      tag_251\n      jump\t// in\n    tag_484:\n        /* \"#utility.yul\":20281:20306   */\n      swap3\n      pop\n        /* \"#utility.yul\":20330:20331   */\n      dup3\n        /* \"#utility.yul\":20327:20328   */\n      dup3\n        /* \"#utility.yul\":20323:20332   */\n      sub\n        /* \"#utility.yul\":20315:20332   */\n      swap1\n      pop\n        /* \"#utility.yul\":20354:20355   */\n      dup2\n        /* \"#utility.yul\":20348:20352   */\n      dup2\n        /* \"#utility.yul\":20345:20356   */\n      gt\n        /* \"#utility.yul\":20342:20379   */\n      iszero\n      tag_485\n      jumpi\n        /* \"#utility.yul\":20359:20377   */\n      tag_486\n      tag_274\n      jump\t// in\n    tag_486:\n        /* \"#utility.yul\":20342:20379   */\n    tag_485:\n        /* \"#utility.yul\":20192:20386   */\n      swap3\n      swap2\n      pop\n      pop\n      jump\t// out\n        /* \"#utility.yul\":20392:20615   */\n    tag_294:\n        /* \"#utility.yul\":20532:20566   */\n      0x45524332303a20617070726f76652066726f6d20746865207a65726f20616464\n        /* \"#utility.yul\":20528:20529   */\n      0x00\n        /* \"#utility.yul\":20520:20526   */\n      dup3\n        /* \"#utility.yul\":20516:20530   */\n      add\n        /* \"#utility.yul\":20509:20567   */\n      mstore\n        /* \"#utility.yul\":20601:20607   */\n      0x7265737300000000000000000000000000000000000000000000000000000000\n        /* \"#utility.yul\":20596:20598   */\n      0x20\n        /* \"#utility.yul\":20588:20594   */\n      dup3\n        /* \"#utility.yul\":20584:20599   */\n      add\n        /* \"#utility.yul\":20577:20608   */\n      mstore\n        /* \"#utility.yul\":20392:20615   */\n      pop\n      jump\t// out\n        /* \"#utility.yul\":20621:20987   */\n    tag_295:\n        /* \"#utility.yul\":20763:20766   */\n      0x00\n        /* \"#utility.yul\":20784:20851   */\n      tag_489\n        /* \"#utility.yul\":20848:20850   */\n      0x24\n        /* \"#utility.yul\":20843:20846   */\n      dup4\n        /* \"#utility.yul\":20784:20851   */\n      tag_258\n      jump\t// in\n    tag_489:\n        /* \"#utility.yul\":20777:20851   */\n      swap2\n      pop\n        /* \"#utility.yul\":20860:20953   */\n      tag_490\n        /* \"#utility.yul\":20949:20952   */\n      dup3\n        /* \"#utility.yul\":20860:20953   */\n      tag_294\n      jump\t// in\n    tag_490:\n        /* \"#utility.yul\":20978:20980   */\n      0x40\n        /* \"#utility.yul\":20973:20976   */\n      dup3\n        /* \"#utility.yul\":20969:20981   */\n      add\n        /* \"#utility.yul\":20962:20981   */\n      swap1\n      pop\n        /* \"#utility.yul\":20621:20987   */\n      swap2\n      swap1\n      pop\n      jump\t// out\n        /* \"#utility.yul\":20993:21412   */\n    tag_226:\n        /* \"#utility.yul\":21159:21163   */\n      0x00\n        /* \"#utility.yul\":21197:21199   */\n      0x20\n        /* \"#utility.yul\":21186:21195   */\n      dup3\n        /* \"#utility.yul\":21182:21200   */\n      add\n        /* \"#utility.yul\":21174:21200   */\n      swap1\n      pop\n        /* \"#utility.yul\":21246:21255   */\n      dup2\n        /* \"#utility.yul\":21240:21244   */\n      dup2\n        /* \"#utility.yul\":21236:21256   */\n      sub\n        /* \"#utility.yul\":21232:21233   */\n      0x00\n        /* \"#utility.yul\":21221:21230   */\n      dup4\n        /* \"#utility.yul\":21217:21234   */\n      add\n        /* \"#utility.yul\":21210:21257   */\n      mstore\n        /* \"#utility.yul\":21274:21405   */\n      tag_492\n        /* \"#utility.yul\":21400:21404   */\n      dup2\n        /* \"#utility.yul\":21274:21405   */\n      tag_295\n      jump\t// in\n    tag_492:\n        /* \"#utility.yul\":21266:21405   */\n      swap1\n      pop\n        /* \"#utility.yul\":20993:21412   */\n      swap2\n      swap1\n      pop\n      jump\t// out\n        /* \"#utility.yul\":21418:21639   */\n    tag_296:\n        /* \"#utility.yul\":21558:21592   */\n      0x45524332303a20617070726f766520746f20746865207a65726f206164647265\n        /* \"#utility.yul\":21554:21555   */\n      0x00\n        /* \"#utility.yul\":21546:21552   */\n      dup3\n        /* \"#utility.yul\":21542:21556   */\n      add\n        /* \"#utility.yul\":21535:21593   */\n      mstore\n        /* \"#utility.yul\":21627:21631   */\n      0x7373000000000000000000000000000000000000000000000000000000000000\n        /* \"#utility.yul\":21622:21624   */\n      0x20\n        /* \"#utility.yul\":21614:21620   */\n      dup3\n        /* \"#utility.yul\":21610:21625   */\n      add\n        /* \"#utility.yul\":21603:21632   */\n      mstore\n        /* \"#utility.yul\":21418:21639   */\n      pop\n      jump\t// out\n        /* \"#utility.yul\":21645:22011   */\n    tag_297:\n        /* \"#utility.yul\":21787:21790   */\n      0x00\n        /* \"#utility.yul\":21808:21875   */\n      tag_495\n        /* \"#utility.yul\":21872:21874   */\n      0x22\n        /* \"#utility.yul\":21867:21870   */\n      dup4\n        /* \"#utility.yul\":21808:21875   */\n      tag_258\n      jump\t// in\n    tag_495:\n        /* \"#utility.yul\":21801:21875   */\n      swap2\n      pop\n        /* \"#utility.yul\":21884:21977   */\n      tag_496\n        /* \"#utility.yul\":21973:21976   */\n      dup3\n        /* \"#utility.yul\":21884:21977   */\n      tag_296\n      jump\t// in\n    tag_496:\n        /* \"#utility.yul\":22002:22004   */\n      0x40\n        /* \"#utility.yul\":21997:22000   */\n      dup3\n        /* \"#utility.yul\":21993:22005   */\n      add\n        /* \"#utility.yul\":21986:22005   */\n      swap1\n      pop\n        /* \"#utility.yul\":21645:22011   */\n      swap2\n      swap1\n      pop\n      jump\t// out\n        /* \"#utility.yul\":22017:22436   */\n    tag_229:\n        /* \"#utility.yul\":22183:22187   */\n      0x00\n        /* \"#utility.yul\":22221:22223   */\n      0x20\n        /* \"#utility.yul\":22210:22219   */\n      dup3\n        /* \"#utility.yul\":22206:22224   */\n      add\n        /* \"#utility.yul\":22198:22224   */\n      swap1\n      pop\n        /* \"#utility.yul\":22270:22279   */\n      dup2\n        /* \"#utility.yul\":22264:22268   */\n      dup2\n        /* \"#utility.yul\":22260:22280   */\n      sub\n        /* \"#utility.yul\":22256:22257   */\n      0x00\n        /* \"#utility.yul\":22245:22254   */\n      dup4\n        /* \"#utility.yul\":22241:22258   */\n      add\n        /* \"#utility.yul\":22234:22281   */\n      mstore\n        /* \"#utility.yul\":22298:22429   */\n      tag_498\n        /* \"#utility.yul\":22424:22428   */\n      dup2\n        /* \"#utility.yul\":22298:22429   */\n      tag_297\n      jump\t// in\n    tag_498:\n        /* \"#utility.yul\":22290:22429   */\n      swap1\n      pop\n        /* \"#utility.yul\":22017:22436   */\n      swap2\n      swap1\n      pop\n      jump\t// out\n        /* \"#utility.yul\":22442:22666   */\n    tag_298:\n        /* \"#utility.yul\":22582:22616   */\n      0x45524332303a207472616e736665722066726f6d20746865207a65726f206164\n        /* \"#utility.yul\":22578:22579   */\n      0x00\n        /* \"#utility.yul\":22570:22576   */\n      dup3\n        /* \"#utility.yul\":22566:22580   */\n      add\n        /* \"#utility.yul\":22559:22617   */\n      mstore\n        /* \"#utility.yul\":22651:22658   */\n      0x6472657373000000000000000000000000000000000000000000000000000000\n        /* \"#utility.yul\":22646:22648   */\n      0x20\n        /* \"#utility.yul\":22638:22644   */\n      dup3\n        /* \"#utility.yul\":22634:22649   */\n      add\n        /* \"#utility.yul\":22627:22659   */\n      mstore\n        /* \"#utility.yul\":22442:22666   */\n      pop\n      jump\t// out\n        /* \"#utility.yul\":22672:23038   */\n    tag_299:\n        /* \"#utility.yul\":22814:22817   */\n      0x00\n        /* \"#utility.yul\":22835:22902   */\n      tag_501\n        /* \"#utility.yul\":22899:22901   */\n      0x25\n        /* \"#utility.yul\":22894:22897   */\n      dup4\n        /* \"#utility.yul\":22835:22902   */\n      tag_258\n      jump\t// in\n    tag_501:\n        /* \"#utility.yul\":22828:22902   */\n      swap2\n      pop\n        /* \"#utility.yul\":22911:23004   */\n      tag_502\n        /* \"#utility.yul\":23000:23003   */\n      dup3\n        /* \"#utility.yul\":22911:23004   */\n      tag_298\n      jump\t// in\n    tag_502:\n        /* \"#utility.yul\":23029:23031   */\n      0x40\n        /* \"#utility.yul\":23024:23027   */\n      dup3\n        /* \"#utility.yul\":23020:23032   */\n      add\n        /* \"#utility.yul\":23013:23032   */\n      swap1\n      pop\n        /* \"#utility.yul\":22672:23038   */\n      swap2\n      swap1\n      pop\n      jump\t// out\n        /* \"#utility.yul\":23044:23463   */\n    tag_234:\n        /* \"#utility.yul\":23210:23214   */\n      0x00\n        /* \"#utility.yul\":23248:23250   */\n      0x20\n        /* \"#utility.yul\":23237:23246   */\n      dup3\n        /* \"#utility.yul\":23233:23251   */\n      add\n        /* \"#utility.yul\":23225:23251   */\n      swap1\n      pop\n        /* \"#utility.yul\":23297:23306   */\n      dup2\n        /* \"#utility.yul\":23291:23295   */\n      dup2\n        /* \"#utility.yul\":23287:23307   */\n      sub\n        /* \"#utility.yul\":23283:23284   */\n      0x00\n        /* \"#utility.yul\":23272:23281   */\n      dup4\n        /* \"#utility.yul\":23268:23285   */\n      add\n        /* \"#utility.yul\":23261:23308   */\n      mstore\n        /* \"#utility.yul\":23325:23456   */\n      tag_504\n        /* \"#utility.yul\":23451:23455   */\n      dup2\n        /* \"#utility.yul\":23325:23456   */\n      tag_299\n      jump\t// in\n    tag_504:\n        /* \"#utility.yul\":23317:23456   */\n      swap1\n      pop\n        /* \"#utility.yul\":23044:23463   */\n      swap2\n      swap1\n      pop\n      jump\t// out\n        /* \"#utility.yul\":23469:23691   */\n    tag_300:\n        /* \"#utility.yul\":23609:23643   */\n      0x45524332303a207472616e7366657220746f20746865207a65726f2061646472\n        /* \"#utility.yul\":23605:23606   */\n      0x00\n        /* \"#utility.yul\":23597:23603   */\n      dup3\n        /* \"#utility.yul\":23593:23607   */\n      add\n        /* \"#utility.yul\":23586:23644   */\n      mstore\n        /* \"#utility.yul\":23678:23683   */\n      0x6573730000000000000000000000000000000000000000000000000000000000\n        /* \"#utility.yul\":23673:23675   */\n      0x20\n        /* \"#utility.yul\":23665:23671   */\n      dup3\n        /* \"#utility.yul\":23661:23676   */\n      add\n        /* \"#utility.yul\":23654:23684   */\n      mstore\n        /* \"#utility.yul\":23469:23691   */\n      pop\n      jump\t// out\n        /* \"#utility.yul\":23697:24063   */\n    tag_301:\n        /* \"#utility.yul\":23839:23842   */\n      0x00\n        /* \"#utility.yul\":23860:23927   */\n      tag_507\n        /* \"#utility.yul\":23924:23926   */\n      0x23\n        /* \"#utility.yul\":23919:23922   */\n      dup4\n        /* \"#utility.yul\":23860:23927   */\n      tag_258\n      jump\t// in\n    tag_507:\n        /* \"#utility.yul\":23853:23927   */\n      swap2\n      pop\n        /* \"#utility.yul\":23936:24029   */\n      tag_508\n        /* \"#utility.yul\":24025:24028   */\n      dup3\n        /* \"#utility.yul\":23936:24029   */\n      tag_300\n      jump\t// in\n    tag_508:\n        /* \"#utility.yul\":24054:24056   */\n      0x40\n        /* \"#utility.yul\":24049:24052   */\n      dup3\n        /* \"#utility.yul\":24045:24057   */\n      add\n        /* \"#utility.yul\":24038:24057   */\n      swap1\n      pop\n        /* \"#utility.yul\":23697:24063   */\n      swap2\n      swap1\n      pop\n      jump\t// out\n        /* \"#utility.yul\":24069:24488   */\n    tag_237:\n        /* \"#utility.yul\":24235:24239   */\n      0x00\n        /* \"#utility.yul\":24273:24275   */\n      0x20\n        /* \"#utility.yul\":24262:24271   */\n      dup3\n        /* \"#utility.yul\":24258:24276   */\n      add\n        /* \"#utility.yul\":24250:24276   */\n      swap1\n      pop\n        /* \"#utility.yul\":24322:24331   */\n      dup2\n        /* \"#utility.yul\":24316:24320   */\n      dup2\n        /* \"#utility.yul\":24312:24332   */\n      sub\n        /* \"#utility.yul\":24308:24309   */\n      0x00\n        /* \"#utility.yul\":24297:24306   */\n      dup4\n        /* \"#utility.yul\":24293:24310   */\n      add\n        /* \"#utility.yul\":24286:24333   */\n      mstore\n        /* \"#utility.yul\":24350:24481   */\n      tag_510\n        /* \"#utility.yul\":24476:24480   */\n      dup2\n        /* \"#utility.yul\":24350:24481   */\n      tag_301\n      jump\t// in\n    tag_510:\n        /* \"#utility.yul\":24342:24481   */\n      swap1\n      pop\n        /* \"#utility.yul\":24069:24488   */\n      swap2\n      swap1\n      pop\n      jump\t// out\n        /* \"#utility.yul\":24494:24719   */\n    tag_302:\n        /* \"#utility.yul\":24634:24668   */\n      0x45524332303a207472616e7366657220616d6f756e7420657863656564732062\n        /* \"#utility.yul\":24630:24631   */\n      0x00\n        /* \"#utility.yul\":24622:24628   */\n      dup3\n        /* \"#utility.yul\":24618:24632   */\n      add\n        /* \"#utility.yul\":24611:24669   */\n      mstore\n        /* \"#utility.yul\":24703:24711   */\n      0x616c616e63650000000000000000000000000000000000000000000000000000\n        /* \"#utility.yul\":24698:24700   */\n      0x20\n        /* \"#utility.yul\":24690:24696   */\n      dup3\n        /* \"#utility.yul\":24686:24701   */\n      add\n        /* \"#utility.yul\":24679:24712   */\n      mstore\n        /* \"#utility.yul\":24494:24719   */\n      pop\n      jump\t// out\n        /* \"#utility.yul\":24725:25091   */\n    tag_303:\n        /* \"#utility.yul\":24867:24870   */\n      0x00\n        /* \"#utility.yul\":24888:24955   */\n      tag_513\n        /* \"#utility.yul\":24952:24954   */\n      0x26\n        /* \"#utility.yul\":24947:24950   */\n      dup4\n        /* \"#utility.yul\":24888:24955   */\n      tag_258\n      jump\t// in\n    tag_513:\n        /* \"#utility.yul\":24881:24955   */\n      swap2\n      pop\n        /* \"#utility.yul\":24964:25057   */\n      tag_514\n        /* \"#utility.yul\":25053:25056   */\n      dup3\n        /* \"#utility.yul\":24964:25057   */\n      tag_302\n      jump\t// in\n    tag_514:\n        /* \"#utility.yul\":25082:25084   */\n      0x40\n        /* \"#utility.yul\":25077:25080   */\n      dup3\n        /* \"#utility.yul\":25073:25085   */\n      add\n        /* \"#utility.yul\":25066:25085   */\n      swap1\n      pop\n        /* \"#utility.yul\":24725:25091   */\n      swap2\n      swap1\n      pop\n      jump\t// out\n        /* \"#utility.yul\":25097:25516   */\n    tag_240:\n        /* \"#utility.yul\":25263:25267   */\n      0x00\n        /* \"#utility.yul\":25301:25303   */\n      0x20\n        /* \"#utility.yul\":25290:25299   */\n      dup3\n        /* \"#utility.yul\":25286:25304   */\n      add\n        /* \"#utility.yul\":25278:25304   */\n      swap1\n      pop\n        /* \"#utility.yul\":25350:25359   */\n      dup2\n        /* \"#utility.yul\":25344:25348   */\n      dup2\n        /* \"#utility.yul\":25340:25360   */\n      sub\n        /* \"#utility.yul\":25336:25337   */\n      0x00\n        /* \"#utility.yul\":25325:25334   */\n      dup4\n        /* \"#utility.yul\":25321:25338   */\n      add\n        /* \"#utility.yul\":25314:25361   */\n      mstore\n        /* \"#utility.yul\":25378:25509   */\n      tag_516\n        /* \"#utility.yul\":25504:25508   */\n      dup2\n        /* \"#utility.yul\":25378:25509   */\n      tag_303\n      jump\t// in\n    tag_516:\n        /* \"#utility.yul\":25370:25509   */\n      swap1\n      pop\n        /* \"#utility.yul\":25097:25516   */\n      swap2\n      swap1\n      pop\n      jump\t// out\n\n    auxdata: 0xa264697066735822122092d17d656916bd1a44980592c67651adc81d3633970c3c81b78d1261f16cb3fc64736f6c63430008120033\n}\n",
				"bytecode": {
					"linkReferences": {},
					"object": "60806040523480156200001157600080fd5b506040516200330e3803806200330e833981810160405281019062000037919062000252565b816004908162000048919062000522565b5080600590816200005a919062000522565b5033600660006101000a81548173ffffffffffffffffffffffffffffffffffffffff021916908373ffffffffffffffffffffffffffffffffffffffff1602179055506000600360006101000a81548160ff021916908315150217905550505062000609565b6000604051905090565b600080fd5b600080fd5b600080fd5b600080fd5b6000601f19601f8301169050919050565b7f4e487b7100000000000000000000000000000000000000000000000000000000600052604160045260246000fd5b6200012882620000dd565b810181811067ffffffffffffffff821117156200014a5762000149620000ee565b5b80604052505050565b60006200015f620000bf565b90506200016d82826200011d565b919050565b600067ffffffffffffffff82111562000190576200018f620000ee565b5b6200019b82620000dd565b9050602081019050919050565b60005b83811015620001c8578082015181840152602081019050620001ab565b60008484015250505050565b6000620001eb620001e58462000172565b62000153565b9050828152602081018484840111156200020a5762000209620000d8565b5b62000217848285620001a8565b509392505050565b600082601f830112620002375762000236620000d3565b5b815162000249848260208601620001d4565b91505092915050565b600080604083850312156200026c576200026b620000c9565b5b600083015167ffffffffffffffff8111156200028d576200028c620000ce565b5b6200029b858286016200021f565b925050602083015167ffffffffffffffff811115620002bf57620002be620000ce565b5b620002cd858286016200021f565b9150509250929050565b600081519050919050565b7f4e487b7100000000000000000000000000000000000000000000000000000000600052602260045260246000fd5b600060028204905060018216806200032a57607f821691505b60208210810362000340576200033f620002e2565b5b50919050565b60008190508160005260206000209050919050565b60006020601f8301049050919050565b600082821b905092915050565b600060088302620003aa7fffffffffffffffffffffffffffffffffffffffffffffffffffffffffffffffff826200036b565b620003b686836200036b565b95508019841693508086168417925050509392505050565b6000819050919050565b6000819050919050565b600062000403620003fd620003f784620003ce565b620003d8565b620003ce565b9050919050565b6000819050919050565b6200041f83620003e2565b620004376200042e826200040a565b84845462000378565b825550505050565b600090565b6200044e6200043f565b6200045b81848462000414565b505050565b5b8181101562000483576200047760008262000444565b60018101905062000461565b5050565b601f821115620004d2576200049c8162000346565b620004a7846200035b565b81016020851015620004b7578190505b620004cf620004c6856200035b565b83018262000460565b50505b505050565b600082821c905092915050565b6000620004f760001984600802620004d7565b1980831691505092915050565b6000620005128383620004e4565b9150826002028217905092915050565b6200052d82620002d7565b67ffffffffffffffff811115620005495762000548620000ee565b5b62000555825462000311565b6200056282828562000487565b600060209050601f8311600181146200059a576000841562000585578287015190505b62000591858262000504565b86555062000601565b601f198416620005aa8662000346565b60005b82811015620005d457848901518255600182019150602085019450602081019050620005ad565b86831015620005f45784890151620005f0601f891682620004e4565b8355505b6001600288020188555050505b505050505050565b612cf580620006196000396000f3fe608060405234801561001057600080fd5b50600436106101375760003560e01c8063648bf774116100b857806395d89b411161007c57806395d89b4114610340578063a457c2d71461035e578063a9059cbb1461038e578063bd6f529e146103be578063dd62ed3e146103ee578063e25c4cf51461041e57610137565b8063648bf774146102b25780636e6ce65f146102ce57806370a08231146102ea5780638456cb591461031a5780638f1de16e1461032457610137565b8063313ce567116100ff578063313ce5671461020c578063395093511461022a5780633f4ba83a1461025a5780634473ad52146102645780635c975abb1461029457610137565b8063038defd71461013c57806306fdde0314610170578063095ea7b31461018e57806318160ddd146101be57806323b872dd146101dc575b600080fd5b61015660048036038101906101519190611f72565b61043c565b604051610167959493929190611fec565b60405180910390f35b61017861047f565b60405161018591906120cf565b60405180910390f35b6101a860048036038101906101a3919061211d565b610511565b6040516101b5919061215d565b60405180910390f35b6101c661052d565b6040516101d39190612178565b60405180910390f35b6101f660048036038101906101f19190612193565b610537565b604051610203919061215d565b60405180910390f35b610214610603565b6040516102219190612202565b60405180910390f35b610244600480360381019061023f919061211d565b61060c565b604051610251919061215d565b60405180910390f35b61026261063c565b005b61027e60048036038101906102799190611f72565b610779565b60405161028b9190612178565b60405180910390f35b61029c6107c4565b6040516102a9919061215d565b60405180910390f35b6102cc60048036038101906102c7919061221d565b6107d7565b005b6102e860048036038101906102e39190611f72565b610d06565b005b61030460048036038101906102ff9190611f72565b610ebb565b6040516103119190612178565b60405180910390f35b610322610f06565b005b61033e60048036038101906103399190612289565b611092565b005b6103486111af565b60405161035591906120cf565b60405180910390f35b6103786004803603810190610373919061211d565b611241565b604051610385919061215d565b60405180910390f35b6103a860048036038101906103a3919061211d565b6112b1565b6040516103b5919061215d565b60405180910390f35b6103d860048036038101906103d39190611f72565b6119d2565b6040516103e59190612178565b60405180910390f35b6104086004803603810190610403919061221d565b611a1d565b6040516104159190612178565b60405180910390f35b610426611aa4565b60405161043391906122c5565b60405180910390f35b60006020528060005260406000206000915090508060000154908060010154908060020154908060030154908060040160009054906101000a900460ff16905085565b60606004805461048e9061230f565b80601f01602080910402602001604051908101604052809291908181526020018280546104ba9061230f565b80156105075780601f106104dc57610100808354040283529160200191610507565b820191906000526020600020905b8154815290600101906020018083116104ea57829003601f168201915b5050505050905090565b600080339050610522818585611aca565b600191505092915050565b6000600254905090565b6000600360009054906101000a900460ff16610588576040517f08c379a000000000000000000000000000000000000000000000000000000000815260040161057f9061238c565b60405180910390fd5b600033905060006105998683611a1d565b9050838110156105de576040517f08c379a00000000000000000000000000000000000000000000000000000000081526004016105d59061241e565b60405180910390fd5b6105eb8683868403611aca565b6105f6868686611c93565b6001925050509392505050565b60006012905090565b6000803390506106318185856106228589611a1d565b61062c919061246d565b611aca565b600191505092915050565b600660009054906101000a900473ffffffffffffffffffffffffffffffffffffffff1673ffffffffffffffffffffffffffffffffffffffff163373ffffffffffffffffffffffffffffffffffffffff16146106cc576040517f08c379a00000000000000000000000000000000000000000000000000000000081526004016106c390612513565b60405180910390fd5b600660009054906101000a900473ffffffffffffffffffffffffffffffffffffffff1673ffffffffffffffffffffffffffffffffffffffff163373ffffffffffffffffffffffffffffffffffffffff161461075c576040517f08c379a0000000000000000000000000000000000000000000000000000000008152600401610753906125a5565b60405180910390fd5b6000600360006101000a81548160ff021916908315150217905550565b60008060008373ffffffffffffffffffffffffffffffffffffffff1673ffffffffffffffffffffffffffffffffffffffff168152602001908152602001600020600101549050919050565b600360009054906101000a900460ff1681565b600660009054906101000a900473ffffffffffffffffffffffffffffffffffffffff1673ffffffffffffffffffffffffffffffffffffffff163373ffffffffffffffffffffffffffffffffffffffff1614610867576040517f08c379a000000000000000000000000000000000000000000000000000000000815260040161085e90612513565b60405180910390fd5b6000808373ffffffffffffffffffffffffffffffffffffffff1673ffffffffffffffffffffffffffffffffffffffff16815260200190815260200160002060040160009054906101000a900460ff166108f5576040517f08c379a00000000000000000000000000000000000000000000000000000000081526004016108ec90612611565b60405180910390fd5b6000808373ffffffffffffffffffffffffffffffffffffffff1673ffffffffffffffffffffffffffffffffffffffff168152602001908152602001600020600001546000808373ffffffffffffffffffffffffffffffffffffffff1673ffffffffffffffffffffffffffffffffffffffff1681526020019081526020016000206000016000828254610987919061246d565b925050819055506000808373ffffffffffffffffffffffffffffffffffffffff1673ffffffffffffffffffffffffffffffffffffffff168152602001908152602001600020600101546000808373ffffffffffffffffffffffffffffffffffffffff1673ffffffffffffffffffffffffffffffffffffffff1681526020019081526020016000206001016000828254610a20919061246d565b925050819055506000808373ffffffffffffffffffffffffffffffffffffffff1673ffffffffffffffffffffffffffffffffffffffff168152602001908152602001600020600201546000808373ffffffffffffffffffffffffffffffffffffffff1673ffffffffffffffffffffffffffffffffffffffff1681526020019081526020016000206002016000828254610ab9919061246d565b925050819055506000808373ffffffffffffffffffffffffffffffffffffffff1673ffffffffffffffffffffffffffffffffffffffff168152602001908152602001600020600301546000808373ffffffffffffffffffffffffffffffffffffffff1673ffffffffffffffffffffffffffffffffffffffff1681526020019081526020016000206003018190555060008060008473ffffffffffffffffffffffffffffffffffffffff1673ffffffffffffffffffffffffffffffffffffffff1681526020019081526020016000206000018190555060008060008473ffffffffffffffffffffffffffffffffffffffff1673ffffffffffffffffffffffffffffffffffffffff1681526020019081526020016000206001018190555060008060008473ffffffffffffffffffffffffffffffffffffffff1673ffffffffffffffffffffffffffffffffffffffff168152602001908152602001600020600201819055506000801b6000808473ffffffffffffffffffffffffffffffffffffffff1673ffffffffffffffffffffffffffffffffffffffff1681526020019081526020016000206003018190555060008060008473ffffffffffffffffffffffffffffffffffffffff1673ffffffffffffffffffffffffffffffffffffffff16815260200190815260200160002060040160006101000a81548160ff0219169083151502179055508173ffffffffffffffffffffffffffffffffffffffff167f5e06a4da1c258ba9bc6142ca9e5b6dfa64e57f7fc4e91a150ba0b3fd301587a060405160405180910390a25050565b6000801b6000808373ffffffffffffffffffffffffffffffffffffffff1673ffffffffffffffffffffffffffffffffffffffff1681526020019081526020016000206003015403610d8c576040517f08c379a0000000000000000000000000000000000000000000000000000000008152600401610d839061267d565b60405180910390fd5b6000808273ffffffffffffffffffffffffffffffffffffffff1673ffffffffffffffffffffffffffffffffffffffff16815260200190815260200160002060040160009054906101000a900460ff1615610e1b576040517f08c379a0000000000000000000000000000000000000000000000000000000008152600401610e12906126e9565b60405180910390fd5b60016000808373ffffffffffffffffffffffffffffffffffffffff1673ffffffffffffffffffffffffffffffffffffffff16815260200190815260200160002060040160006101000a81548160ff0219169083151502179055508073ffffffffffffffffffffffffffffffffffffffff167fadf0efce7d511d3bf9054d210d803d5d49cad8479bc76ede63aefcaee73a646f60405160405180910390a250565b60008060008373ffffffffffffffffffffffffffffffffffffffff1673ffffffffffffffffffffffffffffffffffffffff168152602001908152602001600020600001549050919050565b600660009054906101000a900473ffffffffffffffffffffffffffffffffffffffff1673ffffffffffffffffffffffffffffffffffffffff163373ffffffffffffffffffffffffffffffffffffffff1614610f96576040517f08c379a0000000000000000000000000000000000000000000000000000000008152600401610f8d90612513565b60405180910390fd5b600360009054906101000a900460ff16610fe5576040517f08c379a0000000000000000000000000000000000000000000000000000000008152600401610fdc9061238c565b60405180910390fd5b600660009054906101000a900473ffffffffffffffffffffffffffffffffffffffff1673ffffffffffffffffffffffffffffffffffffffff163373ffffffffffffffffffffffffffffffffffffffff1614611075576040517f08c379a000000000000000000000000000000000000000000000000000000000815260040161106c9061277b565b60405180910390fd5b6001600360006101000a81548160ff021916908315150217905550565b6000801b6000803373ffffffffffffffffffffffffffffffffffffffff1673ffffffffffffffffffffffffffffffffffffffff1681526020019081526020016000206003015414611118576040517f08c379a000000000000000000000000000000000000000000000000000000000815260040161110f906127e7565b60405180910390fd5b806000803373ffffffffffffffffffffffffffffffffffffffff1673ffffffffffffffffffffffffffffffffffffffff168152602001908152602001600020600301819055503373ffffffffffffffffffffffffffffffffffffffff167fb8142d42f05d95abf0a6570799774d59276e49ea32a04d9a4ec316ea4a6886bc826040516111a49190612807565b60405180910390a250565b6060600580546111be9061230f565b80601f01602080910402602001604051908101604052809291908181526020018280546111ea9061230f565b80156112375780601f1061120c57610100808354040283529160200191611237565b820191906000526020600020905b81548152906001019060200180831161121a57829003601f168201915b5050505050905090565b60008033905060006112538286611a1d565b905083811015611298576040517f08c379a000000000000000000000000000000000000000000000000000000000815260040161128f90612894565b60405180910390fd5b6112a58286868403611aca565b60019250505092915050565b6000600360009054906101000a900460ff16611302576040517f08c379a00000000000000000000000000000000000000000000000000000000081526004016112f99061238c565b60405180910390fd5b6000803373ffffffffffffffffffffffffffffffffffffffff1673ffffffffffffffffffffffffffffffffffffffff16815260200190815260200160002060000154821115611386576040517f08c379a000000000000000000000000000000000000000000000000000000000815260040161137d90612900565b60405180910390fd5b6000670de0b6b3a76400008361139c919061294f565b90506000670de0b6b3a7640000846113b49190612980565b90506000803373ffffffffffffffffffffffffffffffffffffffff1673ffffffffffffffffffffffffffffffffffffffff168152602001908152602001600020600201548111156115b65760016000803373ffffffffffffffffffffffffffffffffffffffff1673ffffffffffffffffffffffffffffffffffffffff168152602001908152602001600020600101600082825461145191906129b1565b925050819055506001600080600660009054906101000a900473ffffffffffffffffffffffffffffffffffffffff1673ffffffffffffffffffffffffffffffffffffffff1673ffffffffffffffffffffffffffffffffffffffff16815260200190815260200160002060010160008282546114cc919061246d565b92505081905550670de0b6b3a76400006000803373ffffffffffffffffffffffffffffffffffffffff1673ffffffffffffffffffffffffffffffffffffffff168152602001908152602001600020600201600082825461152c919061246d565b92505081905550670de0b6b3a7640000600080600660009054906101000a900473ffffffffffffffffffffffffffffffffffffffff1673ffffffffffffffffffffffffffffffffffffffff1673ffffffffffffffffffffffffffffffffffffffff16815260200190815260200160002060020160008282546115ae91906129b1565b925050819055505b816000803373ffffffffffffffffffffffffffffffffffffffff1673ffffffffffffffffffffffffffffffffffffffff168152602001908152602001600020600101600082825461160791906129b1565b92505081905550806000803373ffffffffffffffffffffffffffffffffffffffff1673ffffffffffffffffffffffffffffffffffffffff168152602001908152602001600020600201600082825461165f91906129b1565b92505081905550836000803373ffffffffffffffffffffffffffffffffffffffff1673ffffffffffffffffffffffffffffffffffffffff16815260200190815260200160002060000160008282546116b791906129b1565b925050819055506000808673ffffffffffffffffffffffffffffffffffffffff1673ffffffffffffffffffffffffffffffffffffffff168152602001908152602001600020600201548110156118be5760016000808773ffffffffffffffffffffffffffffffffffffffff1673ffffffffffffffffffffffffffffffffffffffff1681526020019081526020016000206001016000828254611759919061246d565b925050819055506001600080600660009054906101000a900473ffffffffffffffffffffffffffffffffffffffff1673ffffffffffffffffffffffffffffffffffffffff1673ffffffffffffffffffffffffffffffffffffffff16815260200190815260200160002060010160008282546117d491906129b1565b92505081905550670de0b6b3a76400006000808773ffffffffffffffffffffffffffffffffffffffff1673ffffffffffffffffffffffffffffffffffffffff168152602001908152602001600020600201600082825461183491906129b1565b92505081905550670de0b6b3a7640000600080600660009054906101000a900473ffffffffffffffffffffffffffffffffffffffff1673ffffffffffffffffffffffffffffffffffffffff1673ffffffffffffffffffffffffffffffffffffffff16815260200190815260200160002060020160008282546118b6919061246d565b925050819055505b816000808773ffffffffffffffffffffffffffffffffffffffff1673ffffffffffffffffffffffffffffffffffffffff168152602001908152602001600020600101600082825461190f919061246d565b92505081905550806000808773ffffffffffffffffffffffffffffffffffffffff1673ffffffffffffffffffffffffffffffffffffffff1681526020019081526020016000206002016000828254611967919061246d565b92505081905550836000808773ffffffffffffffffffffffffffffffffffffffff1673ffffffffffffffffffffffffffffffffffffffff16815260200190815260200160002060000160008282546119bf919061246d565b9250508190555060019250505092915050565b60008060008373ffffffffffffffffffffffffffffffffffffffff1673ffffffffffffffffffffffffffffffffffffffff168152602001908152602001600020600201549050919050565b6000600160008473ffffffffffffffffffffffffffffffffffffffff1673ffffffffffffffffffffffffffffffffffffffff16815260200190815260200160002060008373ffffffffffffffffffffffffffffffffffffffff1673ffffffffffffffffffffffffffffffffffffffff16815260200190815260200160002054905092915050565b600660009054906101000a900473ffffffffffffffffffffffffffffffffffffffff1681565b600073ffffffffffffffffffffffffffffffffffffffff168373ffffffffffffffffffffffffffffffffffffffff1603611b39576040517f08c379a0000000000000000000000000000000000000000000000000000000008152600401611b3090612a57565b60405180910390fd5b600073ffffffffffffffffffffffffffffffffffffffff168273ffffffffffffffffffffffffffffffffffffffff1603611ba8576040517f08c379a0000000000000000000000000000000000000000000000000000000008152600401611b9f90612ae9565b60405180910390fd5b80600160008573ffffffffffffffffffffffffffffffffffffffff1673ffffffffffffffffffffffffffffffffffffffff16815260200190815260200160002060008473ffffffffffffffffffffffffffffffffffffffff1673ffffffffffffffffffffffffffffffffffffffff168152602001908152602001600020819055508173ffffffffffffffffffffffffffffffffffffffff168373ffffffffffffffffffffffffffffffffffffffff167f8c5be1e5ebec7d5bd14f71427d1e84f3dd0314c0f7b2291e5b200ac8c7c3b92583604051611c869190612178565b60405180910390a3505050565b600073ffffffffffffffffffffffffffffffffffffffff168373ffffffffffffffffffffffffffffffffffffffff1603611d02576040517f08c379a0000000000000000000000000000000000000000000000000000000008152600401611cf990612b7b565b60405180910390fd5b600073ffffffffffffffffffffffffffffffffffffffff168273ffffffffffffffffffffffffffffffffffffffff1603611d71576040517f08c379a0000000000000000000000000000000000000000000000000000000008152600401611d6890612c0d565b60405180910390fd5b6000808473ffffffffffffffffffffffffffffffffffffffff1673ffffffffffffffffffffffffffffffffffffffff16815260200190815260200160002060000154811115611df5576040517f08c379a0000000000000000000000000000000000000000000000000000000008152600401611dec90612c9f565b60405180910390fd5b806000808573ffffffffffffffffffffffffffffffffffffffff1673ffffffffffffffffffffffffffffffffffffffff1681526020019081526020016000206000016000828254611e4691906129b1565b92505081905550806000808473ffffffffffffffffffffffffffffffffffffffff1673ffffffffffffffffffffffffffffffffffffffff1681526020019081526020016000206000016000828254611e9e919061246d565b925050819055508173ffffffffffffffffffffffffffffffffffffffff168373ffffffffffffffffffffffffffffffffffffffff167fddf252ad1be2c89b69c2b068fc378daa952ba7f163c4a11628f55a4df523b3ef83604051611f029190612178565b60405180910390a3505050565b600080fd5b600073ffffffffffffffffffffffffffffffffffffffff82169050919050565b6000611f3f82611f14565b9050919050565b611f4f81611f34565b8114611f5a57600080fd5b50565b600081359050611f6c81611f46565b92915050565b600060208284031215611f8857611f87611f0f565b5b6000611f9684828501611f5d565b91505092915050565b6000819050919050565b611fb281611f9f565b82525050565b6000819050919050565b611fcb81611fb8565b82525050565b60008115159050919050565b611fe681611fd1565b82525050565b600060a0820190506120016000830188611fa9565b61200e6020830187611fa9565b61201b6040830186611fa9565b6120286060830185611fc2565b6120356080830184611fdd565b9695505050505050565b600081519050919050565b600082825260208201905092915050565b60005b8381101561207957808201518184015260208101905061205e565b60008484015250505050565b6000601f19601f8301169050919050565b60006120a18261203f565b6120ab818561204a565b93506120bb81856020860161205b565b6120c481612085565b840191505092915050565b600060208201905081810360008301526120e98184612096565b905092915050565b6120fa81611f9f565b811461210557600080fd5b50565b600081359050612117816120f1565b92915050565b6000806040838503121561213457612133611f0f565b5b600061214285828601611f5d565b925050602061215385828601612108565b9150509250929050565b60006020820190506121726000830184611fdd565b92915050565b600060208201905061218d6000830184611fa9565b92915050565b6000806000606084860312156121ac576121ab611f0f565b5b60006121ba86828701611f5d565b93505060206121cb86828701611f5d565b92505060406121dc86828701612108565b9150509250925092565b600060ff82169050919050565b6121fc816121e6565b82525050565b600060208201905061221760008301846121f3565b92915050565b6000806040838503121561223457612233611f0f565b5b600061224285828601611f5d565b925050602061225385828601611f5d565b9150509250929050565b61226681611fb8565b811461227157600080fd5b50565b6000813590506122838161225d565b92915050565b60006020828403121561229f5761229e611f0f565b5b60006122ad84828501612274565b91505092915050565b6122bf81611f34565b82525050565b60006020820190506122da60008301846122b6565b92915050565b7f4e487b7100000000000000000000000000000000000000000000000000000000600052602260045260246000fd5b6000600282049050600182168061232757607f821691505b60208210810361233a576123396122e0565b5b50919050565b7f45524332303a20746f6b656e206973206e6f7420706175736564000000000000600082015250565b6000612376601a8361204a565b915061238182612340565b602082019050919050565b600060208201905081810360008301526123a581612369565b9050919050565b7f45524332303a207472616e7366657220616d6f756e742065786365656473206160008201527f6c6c6f77616e6365000000000000000000000000000000000000000000000000602082015250565b600061240860288361204a565b9150612413826123ac565b604082019050919050565b60006020820190508181036000830152612437816123fb565b9050919050565b7f4e487b7100000000000000000000000000000000000000000000000000000000600052601160045260246000fd5b600061247882611f9f565b915061248383611f9f565b925082820190508082111561249b5761249a61243e565b5b92915050565b7f45524332303a206f6e6c7920636f72706f726174696f6e2063616e2063616c6c60008201527f20746869732066756e6374696f6e000000000000000000000000000000000000602082015250565b60006124fd602e8361204a565b9150612508826124a1565b604082019050919050565b6000602082019050818103600083015261252c816124f0565b9050919050565b7f45524332303a206f6e6c7920636f72706f726174696f6e2063616e20756e706160008201527f7573650000000000000000000000000000000000000000000000000000000000602082015250565b600061258f60238361204a565b915061259a82612533565b604082019050919050565b600060208201905081810360008301526125be81612582565b9050919050565b7f41646472657373206e6f74206d61726b656420666f72207265636f7665727900600082015250565b60006125fb601f8361204a565b9150612606826125c5565b602082019050919050565b6000602082019050818103600083015261262a816125ee565b9050919050565b7f41646472657373206e6f74207265676973746572656400000000000000000000600082015250565b600061266760168361204a565b915061267282612631565b602082019050919050565b600060208201905081810360008301526126968161265a565b9050919050565b7f5265636f7665727920616c726561647920726571756573746564000000000000600082015250565b60006126d3601a8361204a565b91506126de8261269d565b602082019050919050565b60006020820190508181036000830152612702816126c6565b9050919050565b7f45524332303a206f6e6c7920636f72706f726174696f6e2063616e207061757360008201527f6500000000000000000000000000000000000000000000000000000000000000602082015250565b600061276560218361204a565b915061277082612709565b604082019050919050565b6000602082019050818103600083015261279481612758565b9050919050565b7f4164647265737320616c72656164792072656769737465726564000000000000600082015250565b60006127d1601a8361204a565b91506127dc8261279b565b602082019050919050565b60006020820190508181036000830152612800816127c4565b9050919050565b600060208201905061281c6000830184611fc2565b92915050565b7f45524332303a2064656372656173656420616c6c6f77616e63652062656c6f7760008201527f207a65726f000000000000000000000000000000000000000000000000000000602082015250565b600061287e60258361204a565b915061288982612822565b604082019050919050565b600060208201905081810360008301526128ad81612871565b9050919050565b7f546f6b656e2062616c616e6365206973206e6f7420656e6f7567680000000000600082015250565b60006128ea601b8361204a565b91506128f5826128b4565b602082019050919050565b60006020820190508181036000830152612919816128dd565b9050919050565b7f4e487b7100000000000000000000000000000000000000000000000000000000600052601260045260246000fd5b600061295a82611f9f565b915061296583611f9f565b92508261297557612974612920565b5b828204905092915050565b600061298b82611f9f565b915061299683611f9f565b9250826129a6576129a5612920565b5b828206905092915050565b60006129bc82611f9f565b91506129c783611f9f565b92508282039050818111156129df576129de61243e565b5b92915050565b7f45524332303a20617070726f76652066726f6d20746865207a65726f2061646460008201527f7265737300000000000000000000000000000000000000000000000000000000602082015250565b6000612a4160248361204a565b9150612a4c826129e5565b604082019050919050565b60006020820190508181036000830152612a7081612a34565b9050919050565b7f45524332303a20617070726f766520746f20746865207a65726f20616464726560008201527f7373000000000000000000000000000000000000000000000000000000000000602082015250565b6000612ad360228361204a565b9150612ade82612a77565b604082019050919050565b60006020820190508181036000830152612b0281612ac6565b9050919050565b7f45524332303a207472616e736665722066726f6d20746865207a65726f20616460008201527f6472657373000000000000000000000000000000000000000000000000000000602082015250565b6000612b6560258361204a565b9150612b7082612b09565b604082019050919050565b60006020820190508181036000830152612b9481612b58565b9050919050565b7f45524332303a207472616e7366657220746f20746865207a65726f206164647260008201527f6573730000000000000000000000000000000000000000000000000000000000602082015250565b6000612bf760238361204a565b9150612c0282612b9b565b604082019050919050565b60006020820190508181036000830152612c2681612bea565b9050919050565b7f45524332303a207472616e7366657220616d6f756e742065786365656473206260008201527f616c616e63650000000000000000000000000000000000000000000000000000602082015250565b6000612c8960268361204a565b9150612c9482612c2d565b604082019050919050565b60006020820190508181036000830152612cb881612c7c565b905091905056fea264697066735822122092d17d656916bd1a44980592c67651adc81d3633970c3c81b78d1261f16cb3fc64736f6c63430008120033",
					"opcodes": "PUSH1 0x80 PUSH1 0x40 MSTORE CALLVALUE DUP1 ISZERO PUSH3 0x11 JUMPI PUSH1 0x0 DUP1 REVERT JUMPDEST POP PUSH1 0x40 MLOAD PUSH3 0x330E CODESIZE SUB DUP1 PUSH3 0x330E DUP4 CODECOPY DUP2 DUP2 ADD PUSH1 0x40 MSTORE DUP2 ADD SWAP1 PUSH3 0x37 SWAP2 SWAP1 PUSH3 0x252 JUMP JUMPDEST DUP2 PUSH1 0x4 SWAP1 DUP2 PUSH3 0x48 SWAP2 SWAP1 PUSH3 0x522 JUMP JUMPDEST POP DUP1 PUSH1 0x5 SWAP1 DUP2 PUSH3 0x5A SWAP2 SWAP1 PUSH3 0x522 JUMP JUMPDEST POP CALLER PUSH1 0x6 PUSH1 0x0 PUSH2 0x100 EXP DUP2 SLOAD DUP2 PUSH20 0xFFFFFFFFFFFFFFFFFFFFFFFFFFFFFFFFFFFFFFFF MUL NOT AND SWAP1 DUP4 PUSH20 0xFFFFFFFFFFFFFFFFFFFFFFFFFFFFFFFFFFFFFFFF AND MUL OR SWAP1 SSTORE POP PUSH1 0x0 PUSH1 0x3 PUSH1 0x0 PUSH2 0x100 EXP DUP2 SLOAD DUP2 PUSH1 0xFF MUL NOT AND SWAP1 DUP4 ISZERO ISZERO MUL OR SWAP1 SSTORE POP POP POP PUSH3 0x609 JUMP JUMPDEST PUSH1 0x0 PUSH1 0x40 MLOAD SWAP1 POP SWAP1 JUMP JUMPDEST PUSH1 0x0 DUP1 REVERT JUMPDEST PUSH1 0x0 DUP1 REVERT JUMPDEST PUSH1 0x0 DUP1 REVERT JUMPDEST PUSH1 0x0 DUP1 REVERT JUMPDEST PUSH1 0x0 PUSH1 0x1F NOT PUSH1 0x1F DUP4 ADD AND SWAP1 POP SWAP2 SWAP1 POP JUMP JUMPDEST PUSH32 0x4E487B7100000000000000000000000000000000000000000000000000000000 PUSH1 0x0 MSTORE PUSH1 0x41 PUSH1 0x4 MSTORE PUSH1 0x24 PUSH1 0x0 REVERT JUMPDEST PUSH3 0x128 DUP3 PUSH3 0xDD JUMP JUMPDEST DUP2 ADD DUP2 DUP2 LT PUSH8 0xFFFFFFFFFFFFFFFF DUP3 GT OR ISZERO PUSH3 0x14A JUMPI PUSH3 0x149 PUSH3 0xEE JUMP JUMPDEST JUMPDEST DUP1 PUSH1 0x40 MSTORE POP POP POP JUMP JUMPDEST PUSH1 0x0 PUSH3 0x15F PUSH3 0xBF JUMP JUMPDEST SWAP1 POP PUSH3 0x16D DUP3 DUP3 PUSH3 0x11D JUMP JUMPDEST SWAP2 SWAP1 POP JUMP JUMPDEST PUSH1 0x0 PUSH8 0xFFFFFFFFFFFFFFFF DUP3 GT ISZERO PUSH3 0x190 JUMPI PUSH3 0x18F PUSH3 0xEE JUMP JUMPDEST JUMPDEST PUSH3 0x19B DUP3 PUSH3 0xDD JUMP JUMPDEST SWAP1 POP PUSH1 0x20 DUP2 ADD SWAP1 POP SWAP2 SWAP1 POP JUMP JUMPDEST PUSH1 0x0 JUMPDEST DUP4 DUP2 LT ISZERO PUSH3 0x1C8 JUMPI DUP1 DUP3 ADD MLOAD DUP2 DUP5 ADD MSTORE PUSH1 0x20 DUP2 ADD SWAP1 POP PUSH3 0x1AB JUMP JUMPDEST PUSH1 0x0 DUP5 DUP5 ADD MSTORE POP POP POP POP JUMP JUMPDEST PUSH1 0x0 PUSH3 0x1EB PUSH3 0x1E5 DUP5 PUSH3 0x172 JUMP JUMPDEST PUSH3 0x153 JUMP JUMPDEST SWAP1 POP DUP3 DUP2 MSTORE PUSH1 0x20 DUP2 ADD DUP5 DUP5 DUP5 ADD GT ISZERO PUSH3 0x20A JUMPI PUSH3 0x209 PUSH3 0xD8 JUMP JUMPDEST JUMPDEST PUSH3 0x217 DUP5 DUP3 DUP6 PUSH3 0x1A8 JUMP JUMPDEST POP SWAP4 SWAP3 POP POP POP JUMP JUMPDEST PUSH1 0x0 DUP3 PUSH1 0x1F DUP4 ADD SLT PUSH3 0x237 JUMPI PUSH3 0x236 PUSH3 0xD3 JUMP JUMPDEST JUMPDEST DUP2 MLOAD PUSH3 0x249 DUP5 DUP3 PUSH1 0x20 DUP7 ADD PUSH3 0x1D4 JUMP JUMPDEST SWAP2 POP POP SWAP3 SWAP2 POP POP JUMP JUMPDEST PUSH1 0x0 DUP1 PUSH1 0x40 DUP4 DUP6 SUB SLT ISZERO PUSH3 0x26C JUMPI PUSH3 0x26B PUSH3 0xC9 JUMP JUMPDEST JUMPDEST PUSH1 0x0 DUP4 ADD MLOAD PUSH8 0xFFFFFFFFFFFFFFFF DUP2 GT ISZERO PUSH3 0x28D JUMPI PUSH3 0x28C PUSH3 0xCE JUMP JUMPDEST JUMPDEST PUSH3 0x29B DUP6 DUP3 DUP7 ADD PUSH3 0x21F JUMP JUMPDEST SWAP3 POP POP PUSH1 0x20 DUP4 ADD MLOAD PUSH8 0xFFFFFFFFFFFFFFFF DUP2 GT ISZERO PUSH3 0x2BF JUMPI PUSH3 0x2BE PUSH3 0xCE JUMP JUMPDEST JUMPDEST PUSH3 0x2CD DUP6 DUP3 DUP7 ADD PUSH3 0x21F JUMP JUMPDEST SWAP2 POP POP SWAP3 POP SWAP3 SWAP1 POP JUMP JUMPDEST PUSH1 0x0 DUP2 MLOAD SWAP1 POP SWAP2 SWAP1 POP JUMP JUMPDEST PUSH32 0x4E487B7100000000000000000000000000000000000000000000000000000000 PUSH1 0x0 MSTORE PUSH1 0x22 PUSH1 0x4 MSTORE PUSH1 0x24 PUSH1 0x0 REVERT JUMPDEST PUSH1 0x0 PUSH1 0x2 DUP3 DIV SWAP1 POP PUSH1 0x1 DUP3 AND DUP1 PUSH3 0x32A JUMPI PUSH1 0x7F DUP3 AND SWAP2 POP JUMPDEST PUSH1 0x20 DUP3 LT DUP2 SUB PUSH3 0x340 JUMPI PUSH3 0x33F PUSH3 0x2E2 JUMP JUMPDEST JUMPDEST POP SWAP2 SWAP1 POP JUMP JUMPDEST PUSH1 0x0 DUP2 SWAP1 POP DUP2 PUSH1 0x0 MSTORE PUSH1 0x20 PUSH1 0x0 KECCAK256 SWAP1 POP SWAP2 SWAP1 POP JUMP JUMPDEST PUSH1 0x0 PUSH1 0x20 PUSH1 0x1F DUP4 ADD DIV SWAP1 POP SWAP2 SWAP1 POP JUMP JUMPDEST PUSH1 0x0 DUP3 DUP3 SHL SWAP1 POP SWAP3 SWAP2 POP POP JUMP JUMPDEST PUSH1 0x0 PUSH1 0x8 DUP4 MUL PUSH3 0x3AA PUSH32 0xFFFFFFFFFFFFFFFFFFFFFFFFFFFFFFFFFFFFFFFFFFFFFFFFFFFFFFFFFFFFFFFF DUP3 PUSH3 0x36B JUMP JUMPDEST PUSH3 0x3B6 DUP7 DUP4 PUSH3 0x36B JUMP JUMPDEST SWAP6 POP DUP1 NOT DUP5 AND SWAP4 POP DUP1 DUP7 AND DUP5 OR SWAP3 POP POP POP SWAP4 SWAP3 POP POP POP JUMP JUMPDEST PUSH1 0x0 DUP2 SWAP1 POP SWAP2 SWAP1 POP JUMP JUMPDEST PUSH1 0x0 DUP2 SWAP1 POP SWAP2 SWAP1 POP JUMP JUMPDEST PUSH1 0x0 PUSH3 0x403 PUSH3 0x3FD PUSH3 0x3F7 DUP5 PUSH3 0x3CE JUMP JUMPDEST PUSH3 0x3D8 JUMP JUMPDEST PUSH3 0x3CE JUMP JUMPDEST SWAP1 POP SWAP2 SWAP1 POP JUMP JUMPDEST PUSH1 0x0 DUP2 SWAP1 POP SWAP2 SWAP1 POP JUMP JUMPDEST PUSH3 0x41F DUP4 PUSH3 0x3E2 JUMP JUMPDEST PUSH3 0x437 PUSH3 0x42E DUP3 PUSH3 0x40A JUMP JUMPDEST DUP5 DUP5 SLOAD PUSH3 0x378 JUMP JUMPDEST DUP3 SSTORE POP POP POP POP JUMP JUMPDEST PUSH1 0x0 SWAP1 JUMP JUMPDEST PUSH3 0x44E PUSH3 0x43F JUMP JUMPDEST PUSH3 0x45B DUP2 DUP5 DUP5 PUSH3 0x414 JUMP JUMPDEST POP POP POP JUMP JUMPDEST JUMPDEST DUP2 DUP2 LT ISZERO PUSH3 0x483 JUMPI PUSH3 0x477 PUSH1 0x0 DUP3 PUSH3 0x444 JUMP JUMPDEST PUSH1 0x1 DUP2 ADD SWAP1 POP PUSH3 0x461 JUMP JUMPDEST POP POP JUMP JUMPDEST PUSH1 0x1F DUP3 GT ISZERO PUSH3 0x4D2 JUMPI PUSH3 0x49C DUP2 PUSH3 0x346 JUMP JUMPDEST PUSH3 0x4A7 DUP5 PUSH3 0x35B JUMP JUMPDEST DUP2 ADD PUSH1 0x20 DUP6 LT ISZERO PUSH3 0x4B7 JUMPI DUP2 SWAP1 POP JUMPDEST PUSH3 0x4CF PUSH3 0x4C6 DUP6 PUSH3 0x35B JUMP JUMPDEST DUP4 ADD DUP3 PUSH3 0x460 JUMP JUMPDEST POP POP JUMPDEST POP POP POP JUMP JUMPDEST PUSH1 0x0 DUP3 DUP3 SHR SWAP1 POP SWAP3 SWAP2 POP POP JUMP JUMPDEST PUSH1 0x0 PUSH3 0x4F7 PUSH1 0x0 NOT DUP5 PUSH1 0x8 MUL PUSH3 0x4D7 JUMP JUMPDEST NOT DUP1 DUP4 AND SWAP2 POP POP SWAP3 SWAP2 POP POP JUMP JUMPDEST PUSH1 0x0 PUSH3 0x512 DUP4 DUP4 PUSH3 0x4E4 JUMP JUMPDEST SWAP2 POP DUP3 PUSH1 0x2 MUL DUP3 OR SWAP1 POP SWAP3 SWAP2 POP POP JUMP JUMPDEST PUSH3 0x52D DUP3 PUSH3 0x2D7 JUMP JUMPDEST PUSH8 0xFFFFFFFFFFFFFFFF DUP2 GT ISZERO PUSH3 0x549 JUMPI PUSH3 0x548 PUSH3 0xEE JUMP JUMPDEST JUMPDEST PUSH3 0x555 DUP3 SLOAD PUSH3 0x311 JUMP JUMPDEST PUSH3 0x562 DUP3 DUP3 DUP6 PUSH3 0x487 JUMP JUMPDEST PUSH1 0x0 PUSH1 0x20 SWAP1 POP PUSH1 0x1F DUP4 GT PUSH1 0x1 DUP2 EQ PUSH3 0x59A JUMPI PUSH1 0x0 DUP5 ISZERO PUSH3 0x585 JUMPI DUP3 DUP8 ADD MLOAD SWAP1 POP JUMPDEST PUSH3 0x591 DUP6 DUP3 PUSH3 0x504 JUMP JUMPDEST DUP7 SSTORE POP PUSH3 0x601 JUMP JUMPDEST PUSH1 0x1F NOT DUP5 AND PUSH3 0x5AA DUP7 PUSH3 0x346 JUMP JUMPDEST PUSH1 0x0 JUMPDEST DUP3 DUP2 LT ISZERO PUSH3 0x5D4 JUMPI DUP5 DUP10 ADD MLOAD DUP3 SSTORE PUSH1 0x1 DUP3 ADD SWAP2 POP PUSH1 0x20 DUP6 ADD SWAP5 POP PUSH1 0x20 DUP2 ADD SWAP1 POP PUSH3 0x5AD JUMP JUMPDEST DUP7 DUP4 LT ISZERO PUSH3 0x5F4 JUMPI DUP5 DUP10 ADD MLOAD PUSH3 0x5F0 PUSH1 0x1F DUP10 AND DUP3 PUSH3 0x4E4 JUMP JUMPDEST DUP4 SSTORE POP JUMPDEST PUSH1 0x1 PUSH1 0x2 DUP9 MUL ADD DUP9 SSTORE POP POP POP JUMPDEST POP POP POP POP POP POP JUMP JUMPDEST PUSH2 0x2CF5 DUP1 PUSH3 0x619 PUSH1 0x0 CODECOPY PUSH1 0x0 RETURN INVALID PUSH1 0x80 PUSH1 0x40 MSTORE CALLVALUE DUP1 ISZERO PUSH2 0x10 JUMPI PUSH1 0x0 DUP1 REVERT JUMPDEST POP PUSH1 0x4 CALLDATASIZE LT PUSH2 0x137 JUMPI PUSH1 0x0 CALLDATALOAD PUSH1 0xE0 SHR DUP1 PUSH4 0x648BF774 GT PUSH2 0xB8 JUMPI DUP1 PUSH4 0x95D89B41 GT PUSH2 0x7C JUMPI DUP1 PUSH4 0x95D89B41 EQ PUSH2 0x340 JUMPI DUP1 PUSH4 0xA457C2D7 EQ PUSH2 0x35E JUMPI DUP1 PUSH4 0xA9059CBB EQ PUSH2 0x38E JUMPI DUP1 PUSH4 0xBD6F529E EQ PUSH2 0x3BE JUMPI DUP1 PUSH4 0xDD62ED3E EQ PUSH2 0x3EE JUMPI DUP1 PUSH4 0xE25C4CF5 EQ PUSH2 0x41E JUMPI PUSH2 0x137 JUMP JUMPDEST DUP1 PUSH4 0x648BF774 EQ PUSH2 0x2B2 JUMPI DUP1 PUSH4 0x6E6CE65F EQ PUSH2 0x2CE JUMPI DUP1 PUSH4 0x70A08231 EQ PUSH2 0x2EA JUMPI DUP1 PUSH4 0x8456CB59 EQ PUSH2 0x31A JUMPI DUP1 PUSH4 0x8F1DE16E EQ PUSH2 0x324 JUMPI PUSH2 0x137 JUMP JUMPDEST DUP1 PUSH4 0x313CE567 GT PUSH2 0xFF JUMPI DUP1 PUSH4 0x313CE567 EQ PUSH2 0x20C JUMPI DUP1 PUSH4 0x39509351 EQ PUSH2 0x22A JUMPI DUP1 PUSH4 0x3F4BA83A EQ PUSH2 0x25A JUMPI DUP1 PUSH4 0x4473AD52 EQ PUSH2 0x264 JUMPI DUP1 PUSH4 0x5C975ABB EQ PUSH2 0x294 JUMPI PUSH2 0x137 JUMP JUMPDEST DUP1 PUSH4 0x38DEFD7 EQ PUSH2 0x13C JUMPI DUP1 PUSH4 0x6FDDE03 EQ PUSH2 0x170 JUMPI DUP1 PUSH4 0x95EA7B3 EQ PUSH2 0x18E JUMPI DUP1 PUSH4 0x18160DDD EQ PUSH2 0x1BE JUMPI DUP1 PUSH4 0x23B872DD EQ PUSH2 0x1DC JUMPI JUMPDEST PUSH1 0x0 DUP1 REVERT JUMPDEST PUSH2 0x156 PUSH1 0x4 DUP1 CALLDATASIZE SUB DUP2 ADD SWAP1 PUSH2 0x151 SWAP2 SWAP1 PUSH2 0x1F72 JUMP JUMPDEST PUSH2 0x43C JUMP JUMPDEST PUSH1 0x40 MLOAD PUSH2 0x167 SWAP6 SWAP5 SWAP4 SWAP3 SWAP2 SWAP1 PUSH2 0x1FEC JUMP JUMPDEST PUSH1 0x40 MLOAD DUP1 SWAP2 SUB SWAP1 RETURN JUMPDEST PUSH2 0x178 PUSH2 0x47F JUMP JUMPDEST PUSH1 0x40 MLOAD PUSH2 0x185 SWAP2 SWAP1 PUSH2 0x20CF JUMP JUMPDEST PUSH1 0x40 MLOAD DUP1 SWAP2 SUB SWAP1 RETURN JUMPDEST PUSH2 0x1A8 PUSH1 0x4 DUP1 CALLDATASIZE SUB DUP2 ADD SWAP1 PUSH2 0x1A3 SWAP2 SWAP1 PUSH2 0x211D JUMP JUMPDEST PUSH2 0x511 JUMP JUMPDEST PUSH1 0x40 MLOAD PUSH2 0x1B5 SWAP2 SWAP1 PUSH2 0x215D JUMP JUMPDEST PUSH1 0x40 MLOAD DUP1 SWAP2 SUB SWAP1 RETURN JUMPDEST PUSH2 0x1C6 PUSH2 0x52D JUMP JUMPDEST PUSH1 0x40 MLOAD PUSH2 0x1D3 SWAP2 SWAP1 PUSH2 0x2178 JUMP JUMPDEST PUSH1 0x40 MLOAD DUP1 SWAP2 SUB SWAP1 RETURN JUMPDEST PUSH2 0x1F6 PUSH1 0x4 DUP1 CALLDATASIZE SUB DUP2 ADD SWAP1 PUSH2 0x1F1 SWAP2 SWAP1 PUSH2 0x2193 JUMP JUMPDEST PUSH2 0x537 JUMP JUMPDEST PUSH1 0x40 MLOAD PUSH2 0x203 SWAP2 SWAP1 PUSH2 0x215D JUMP JUMPDEST PUSH1 0x40 MLOAD DUP1 SWAP2 SUB SWAP1 RETURN JUMPDEST PUSH2 0x214 PUSH2 0x603 JUMP JUMPDEST PUSH1 0x40 MLOAD PUSH2 0x221 SWAP2 SWAP1 PUSH2 0x2202 JUMP JUMPDEST PUSH1 0x40 MLOAD DUP1 SWAP2 SUB SWAP1 RETURN JUMPDEST PUSH2 0x244 PUSH1 0x4 DUP1 CALLDATASIZE SUB DUP2 ADD SWAP1 PUSH2 0x23F SWAP2 SWAP1 PUSH2 0x211D JUMP JUMPDEST PUSH2 0x60C JUMP JUMPDEST PUSH1 0x40 MLOAD PUSH2 0x251 SWAP2 SWAP1 PUSH2 0x215D JUMP JUMPDEST PUSH1 0x40 MLOAD DUP1 SWAP2 SUB SWAP1 RETURN JUMPDEST PUSH2 0x262 PUSH2 0x63C JUMP JUMPDEST STOP JUMPDEST PUSH2 0x27E PUSH1 0x4 DUP1 CALLDATASIZE SUB DUP2 ADD SWAP1 PUSH2 0x279 SWAP2 SWAP1 PUSH2 0x1F72 JUMP JUMPDEST PUSH2 0x779 JUMP JUMPDEST PUSH1 0x40 MLOAD PUSH2 0x28B SWAP2 SWAP1 PUSH2 0x2178 JUMP JUMPDEST PUSH1 0x40 MLOAD DUP1 SWAP2 SUB SWAP1 RETURN JUMPDEST PUSH2 0x29C PUSH2 0x7C4 JUMP JUMPDEST PUSH1 0x40 MLOAD PUSH2 0x2A9 SWAP2 SWAP1 PUSH2 0x215D JUMP JUMPDEST PUSH1 0x40 MLOAD DUP1 SWAP2 SUB SWAP1 RETURN JUMPDEST PUSH2 0x2CC PUSH1 0x4 DUP1 CALLDATASIZE SUB DUP2 ADD SWAP1 PUSH2 0x2C7 SWAP2 SWAP1 PUSH2 0x221D JUMP JUMPDEST PUSH2 0x7D7 JUMP JUMPDEST STOP JUMPDEST PUSH2 0x2E8 PUSH1 0x4 DUP1 CALLDATASIZE SUB DUP2 ADD SWAP1 PUSH2 0x2E3 SWAP2 SWAP1 PUSH2 0x1F72 JUMP JUMPDEST PUSH2 0xD06 JUMP JUMPDEST STOP JUMPDEST PUSH2 0x304 PUSH1 0x4 DUP1 CALLDATASIZE SUB DUP2 ADD SWAP1 PUSH2 0x2FF SWAP2 SWAP1 PUSH2 0x1F72 JUMP JUMPDEST PUSH2 0xEBB JUMP JUMPDEST PUSH1 0x40 MLOAD PUSH2 0x311 SWAP2 SWAP1 PUSH2 0x2178 JUMP JUMPDEST PUSH1 0x40 MLOAD DUP1 SWAP2 SUB SWAP1 RETURN JUMPDEST PUSH2 0x322 PUSH2 0xF06 JUMP JUMPDEST STOP JUMPDEST PUSH2 0x33E PUSH1 0x4 DUP1 CALLDATASIZE SUB DUP2 ADD SWAP1 PUSH2 0x339 SWAP2 SWAP1 PUSH2 0x2289 JUMP JUMPDEST PUSH2 0x1092 JUMP JUMPDEST STOP JUMPDEST PUSH2 0x348 PUSH2 0x11AF JUMP JUMPDEST PUSH1 0x40 MLOAD PUSH2 0x355 SWAP2 SWAP1 PUSH2 0x20CF JUMP JUMPDEST PUSH1 0x40 MLOAD DUP1 SWAP2 SUB SWAP1 RETURN JUMPDEST PUSH2 0x378 PUSH1 0x4 DUP1 CALLDATASIZE SUB DUP2 ADD SWAP1 PUSH2 0x373 SWAP2 SWAP1 PUSH2 0x211D JUMP JUMPDEST PUSH2 0x1241 JUMP JUMPDEST PUSH1 0x40 MLOAD PUSH2 0x385 SWAP2 SWAP1 PUSH2 0x215D JUMP JUMPDEST PUSH1 0x40 MLOAD DUP1 SWAP2 SUB SWAP1 RETURN JUMPDEST PUSH2 0x3A8 PUSH1 0x4 DUP1 CALLDATASIZE SUB DUP2 ADD SWAP1 PUSH2 0x3A3 SWAP2 SWAP1 PUSH2 0x211D JUMP JUMPDEST PUSH2 0x12B1 JUMP JUMPDEST PUSH1 0x40 MLOAD PUSH2 0x3B5 SWAP2 SWAP1 PUSH2 0x215D JUMP JUMPDEST PUSH1 0x40 MLOAD DUP1 SWAP2 SUB SWAP1 RETURN JUMPDEST PUSH2 0x3D8 PUSH1 0x4 DUP1 CALLDATASIZE SUB DUP2 ADD SWAP1 PUSH2 0x3D3 SWAP2 SWAP1 PUSH2 0x1F72 JUMP JUMPDEST PUSH2 0x19D2 JUMP JUMPDEST PUSH1 0x40 MLOAD PUSH2 0x3E5 SWAP2 SWAP1 PUSH2 0x2178 JUMP JUMPDEST PUSH1 0x40 MLOAD DUP1 SWAP2 SUB SWAP1 RETURN JUMPDEST PUSH2 0x408 PUSH1 0x4 DUP1 CALLDATASIZE SUB DUP2 ADD SWAP1 PUSH2 0x403 SWAP2 SWAP1 PUSH2 0x221D JUMP JUMPDEST PUSH2 0x1A1D JUMP JUMPDEST PUSH1 0x40 MLOAD PUSH2 0x415 SWAP2 SWAP1 PUSH2 0x2178 JUMP JUMPDEST PUSH1 0x40 MLOAD DUP1 SWAP2 SUB SWAP1 RETURN JUMPDEST PUSH2 0x426 PUSH2 0x1AA4 JUMP JUMPDEST PUSH1 0x40 MLOAD PUSH2 0x433 SWAP2 SWAP1 PUSH2 0x22C5 JUMP JUMPDEST PUSH1 0x40 MLOAD DUP1 SWAP2 SUB SWAP1 RETURN JUMPDEST PUSH1 0x0 PUSH1 0x20 MSTORE DUP1 PUSH1 0x0 MSTORE PUSH1 0x40 PUSH1 0x0 KECCAK256 PUSH1 0x0 SWAP2 POP SWAP1 POP DUP1 PUSH1 0x0 ADD SLOAD SWAP1 DUP1 PUSH1 0x1 ADD SLOAD SWAP1 DUP1 PUSH1 0x2 ADD SLOAD SWAP1 DUP1 PUSH1 0x3 ADD SLOAD SWAP1 DUP1 PUSH1 0x4 ADD PUSH1 0x0 SWAP1 SLOAD SWAP1 PUSH2 0x100 EXP SWAP1 DIV PUSH1 0xFF AND SWAP1 POP DUP6 JUMP JUMPDEST PUSH1 0x60 PUSH1 0x4 DUP1 SLOAD PUSH2 0x48E SWAP1 PUSH2 0x230F JUMP JUMPDEST DUP1 PUSH1 0x1F ADD PUSH1 0x20 DUP1 SWAP2 DIV MUL PUSH1 0x20 ADD PUSH1 0x40 MLOAD SWAP1 DUP2 ADD PUSH1 0x40 MSTORE DUP1 SWAP3 SWAP2 SWAP1 DUP2 DUP2 MSTORE PUSH1 0x20 ADD DUP3 DUP1 SLOAD PUSH2 0x4BA SWAP1 PUSH2 0x230F JUMP JUMPDEST DUP1 ISZERO PUSH2 0x507 JUMPI DUP1 PUSH1 0x1F LT PUSH2 0x4DC JUMPI PUSH2 0x100 DUP1 DUP4 SLOAD DIV MUL DUP4 MSTORE SWAP2 PUSH1 0x20 ADD SWAP2 PUSH2 0x507 JUMP JUMPDEST DUP3 ADD SWAP2 SWAP1 PUSH1 0x0 MSTORE PUSH1 0x20 PUSH1 0x0 KECCAK256 SWAP1 JUMPDEST DUP2 SLOAD DUP2 MSTORE SWAP1 PUSH1 0x1 ADD SWAP1 PUSH1 0x20 ADD DUP1 DUP4 GT PUSH2 0x4EA JUMPI DUP3 SWAP1 SUB PUSH1 0x1F AND DUP3 ADD SWAP2 JUMPDEST POP POP POP POP POP SWAP1 POP SWAP1 JUMP JUMPDEST PUSH1 0x0 DUP1 CALLER SWAP1 POP PUSH2 0x522 DUP2 DUP6 DUP6 PUSH2 0x1ACA JUMP JUMPDEST PUSH1 0x1 SWAP2 POP POP SWAP3 SWAP2 POP POP JUMP JUMPDEST PUSH1 0x0 PUSH1 0x2 SLOAD SWAP1 POP SWAP1 JUMP JUMPDEST PUSH1 0x0 PUSH1 0x3 PUSH1 0x0 SWAP1 SLOAD SWAP1 PUSH2 0x100 EXP SWAP1 DIV PUSH1 0xFF AND PUSH2 0x588 JUMPI PUSH1 0x40 MLOAD PUSH32 0x8C379A000000000000000000000000000000000000000000000000000000000 DUP2 MSTORE PUSH1 0x4 ADD PUSH2 0x57F SWAP1 PUSH2 0x238C JUMP JUMPDEST PUSH1 0x40 MLOAD DUP1 SWAP2 SUB SWAP1 REVERT JUMPDEST PUSH1 0x0 CALLER SWAP1 POP PUSH1 0x0 PUSH2 0x599 DUP7 DUP4 PUSH2 0x1A1D JUMP JUMPDEST SWAP1 POP DUP4 DUP2 LT ISZERO PUSH2 0x5DE JUMPI PUSH1 0x40 MLOAD PUSH32 0x8C379A000000000000000000000000000000000000000000000000000000000 DUP2 MSTORE PUSH1 0x4 ADD PUSH2 0x5D5 SWAP1 PUSH2 0x241E JUMP JUMPDEST PUSH1 0x40 MLOAD DUP1 SWAP2 SUB SWAP1 REVERT JUMPDEST PUSH2 0x5EB DUP7 DUP4 DUP7 DUP5 SUB PUSH2 0x1ACA JUMP JUMPDEST PUSH2 0x5F6 DUP7 DUP7 DUP7 PUSH2 0x1C93 JUMP JUMPDEST PUSH1 0x1 SWAP3 POP POP POP SWAP4 SWAP3 POP POP POP JUMP JUMPDEST PUSH1 0x0 PUSH1 0x12 SWAP1 POP SWAP1 JUMP JUMPDEST PUSH1 0x0 DUP1 CALLER SWAP1 POP PUSH2 0x631 DUP2 DUP6 DUP6 PUSH2 0x622 DUP6 DUP10 PUSH2 0x1A1D JUMP JUMPDEST PUSH2 0x62C SWAP2 SWAP1 PUSH2 0x246D JUMP JUMPDEST PUSH2 0x1ACA JUMP JUMPDEST PUSH1 0x1 SWAP2 POP POP SWAP3 SWAP2 POP POP JUMP JUMPDEST PUSH1 0x6 PUSH1 0x0 SWAP1 SLOAD SWAP1 PUSH2 0x100 EXP SWAP1 DIV PUSH20 0xFFFFFFFFFFFFFFFFFFFFFFFFFFFFFFFFFFFFFFFF AND PUSH20 0xFFFFFFFFFFFFFFFFFFFFFFFFFFFFFFFFFFFFFFFF AND CALLER PUSH20 0xFFFFFFFFFFFFFFFFFFFFFFFFFFFFFFFFFFFFFFFF AND EQ PUSH2 0x6CC JUMPI PUSH1 0x40 MLOAD PUSH32 0x8C379A000000000000000000000000000000000000000000000000000000000 DUP2 MSTORE PUSH1 0x4 ADD PUSH2 0x6C3 SWAP1 PUSH2 0x2513 JUMP JUMPDEST PUSH1 0x40 MLOAD DUP1 SWAP2 SUB SWAP1 REVERT JUMPDEST PUSH1 0x6 PUSH1 0x0 SWAP1 SLOAD SWAP1 PUSH2 0x100 EXP SWAP1 DIV PUSH20 0xFFFFFFFFFFFFFFFFFFFFFFFFFFFFFFFFFFFFFFFF AND PUSH20 0xFFFFFFFFFFFFFFFFFFFFFFFFFFFFFFFFFFFFFFFF AND CALLER PUSH20 0xFFFFFFFFFFFFFFFFFFFFFFFFFFFFFFFFFFFFFFFF AND EQ PUSH2 0x75C JUMPI PUSH1 0x40 MLOAD PUSH32 0x8C379A000000000000000000000000000000000000000000000000000000000 DUP2 MSTORE PUSH1 0x4 ADD PUSH2 0x753 SWAP1 PUSH2 0x25A5 JUMP JUMPDEST PUSH1 0x40 MLOAD DUP1 SWAP2 SUB SWAP1 REVERT JUMPDEST PUSH1 0x0 PUSH1 0x3 PUSH1 0x0 PUSH2 0x100 EXP DUP2 SLOAD DUP2 PUSH1 0xFF MUL NOT AND SWAP1 DUP4 ISZERO ISZERO MUL OR SWAP1 SSTORE POP JUMP JUMPDEST PUSH1 0x0 DUP1 PUSH1 0x0 DUP4 PUSH20 0xFFFFFFFFFFFFFFFFFFFFFFFFFFFFFFFFFFFFFFFF AND PUSH20 0xFFFFFFFFFFFFFFFFFFFFFFFFFFFFFFFFFFFFFFFF AND DUP2 MSTORE PUSH1 0x20 ADD SWAP1 DUP2 MSTORE PUSH1 0x20 ADD PUSH1 0x0 KECCAK256 PUSH1 0x1 ADD SLOAD SWAP1 POP SWAP2 SWAP1 POP JUMP JUMPDEST PUSH1 0x3 PUSH1 0x0 SWAP1 SLOAD SWAP1 PUSH2 0x100 EXP SWAP1 DIV PUSH1 0xFF AND DUP2 JUMP JUMPDEST PUSH1 0x6 PUSH1 0x0 SWAP1 SLOAD SWAP1 PUSH2 0x100 EXP SWAP1 DIV PUSH20 0xFFFFFFFFFFFFFFFFFFFFFFFFFFFFFFFFFFFFFFFF AND PUSH20 0xFFFFFFFFFFFFFFFFFFFFFFFFFFFFFFFFFFFFFFFF AND CALLER PUSH20 0xFFFFFFFFFFFFFFFFFFFFFFFFFFFFFFFFFFFFFFFF AND EQ PUSH2 0x867 JUMPI PUSH1 0x40 MLOAD PUSH32 0x8C379A000000000000000000000000000000000000000000000000000000000 DUP2 MSTORE PUSH1 0x4 ADD PUSH2 0x85E SWAP1 PUSH2 0x2513 JUMP JUMPDEST PUSH1 0x40 MLOAD DUP1 SWAP2 SUB SWAP1 REVERT JUMPDEST PUSH1 0x0 DUP1 DUP4 PUSH20 0xFFFFFFFFFFFFFFFFFFFFFFFFFFFFFFFFFFFFFFFF AND PUSH20 0xFFFFFFFFFFFFFFFFFFFFFFFFFFFFFFFFFFFFFFFF AND DUP2 MSTORE PUSH1 0x20 ADD SWAP1 DUP2 MSTORE PUSH1 0x20 ADD PUSH1 0x0 KECCAK256 PUSH1 0x4 ADD PUSH1 0x0 SWAP1 SLOAD SWAP1 PUSH2 0x100 EXP SWAP1 DIV PUSH1 0xFF AND PUSH2 0x8F5 JUMPI PUSH1 0x40 MLOAD PUSH32 0x8C379A000000000000000000000000000000000000000000000000000000000 DUP2 MSTORE PUSH1 0x4 ADD PUSH2 0x8EC SWAP1 PUSH2 0x2611 JUMP JUMPDEST PUSH1 0x40 MLOAD DUP1 SWAP2 SUB SWAP1 REVERT JUMPDEST PUSH1 0x0 DUP1 DUP4 PUSH20 0xFFFFFFFFFFFFFFFFFFFFFFFFFFFFFFFFFFFFFFFF AND PUSH20 0xFFFFFFFFFFFFFFFFFFFFFFFFFFFFFFFFFFFFFFFF AND DUP2 MSTORE PUSH1 0x20 ADD SWAP1 DUP2 MSTORE PUSH1 0x20 ADD PUSH1 0x0 KECCAK256 PUSH1 0x0 ADD SLOAD PUSH1 0x0 DUP1 DUP4 PUSH20 0xFFFFFFFFFFFFFFFFFFFFFFFFFFFFFFFFFFFFFFFF AND PUSH20 0xFFFFFFFFFFFFFFFFFFFFFFFFFFFFFFFFFFFFFFFF AND DUP2 MSTORE PUSH1 0x20 ADD SWAP1 DUP2 MSTORE PUSH1 0x20 ADD PUSH1 0x0 KECCAK256 PUSH1 0x0 ADD PUSH1 0x0 DUP3 DUP3 SLOAD PUSH2 0x987 SWAP2 SWAP1 PUSH2 0x246D JUMP JUMPDEST SWAP3 POP POP DUP2 SWAP1 SSTORE POP PUSH1 0x0 DUP1 DUP4 PUSH20 0xFFFFFFFFFFFFFFFFFFFFFFFFFFFFFFFFFFFFFFFF AND PUSH20 0xFFFFFFFFFFFFFFFFFFFFFFFFFFFFFFFFFFFFFFFF AND DUP2 MSTORE PUSH1 0x20 ADD SWAP1 DUP2 MSTORE PUSH1 0x20 ADD PUSH1 0x0 KECCAK256 PUSH1 0x1 ADD SLOAD PUSH1 0x0 DUP1 DUP4 PUSH20 0xFFFFFFFFFFFFFFFFFFFFFFFFFFFFFFFFFFFFFFFF AND PUSH20 0xFFFFFFFFFFFFFFFFFFFFFFFFFFFFFFFFFFFFFFFF AND DUP2 MSTORE PUSH1 0x20 ADD SWAP1 DUP2 MSTORE PUSH1 0x20 ADD PUSH1 0x0 KECCAK256 PUSH1 0x1 ADD PUSH1 0x0 DUP3 DUP3 SLOAD PUSH2 0xA20 SWAP2 SWAP1 PUSH2 0x246D JUMP JUMPDEST SWAP3 POP POP DUP2 SWAP1 SSTORE POP PUSH1 0x0 DUP1 DUP4 PUSH20 0xFFFFFFFFFFFFFFFFFFFFFFFFFFFFFFFFFFFFFFFF AND PUSH20 0xFFFFFFFFFFFFFFFFFFFFFFFFFFFFFFFFFFFFFFFF AND DUP2 MSTORE PUSH1 0x20 ADD SWAP1 DUP2 MSTORE PUSH1 0x20 ADD PUSH1 0x0 KECCAK256 PUSH1 0x2 ADD SLOAD PUSH1 0x0 DUP1 DUP4 PUSH20 0xFFFFFFFFFFFFFFFFFFFFFFFFFFFFFFFFFFFFFFFF AND PUSH20 0xFFFFFFFFFFFFFFFFFFFFFFFFFFFFFFFFFFFFFFFF AND DUP2 MSTORE PUSH1 0x20 ADD SWAP1 DUP2 MSTORE PUSH1 0x20 ADD PUSH1 0x0 KECCAK256 PUSH1 0x2 ADD PUSH1 0x0 DUP3 DUP3 SLOAD PUSH2 0xAB9 SWAP2 SWAP1 PUSH2 0x246D JUMP JUMPDEST SWAP3 POP POP DUP2 SWAP1 SSTORE POP PUSH1 0x0 DUP1 DUP4 PUSH20 0xFFFFFFFFFFFFFFFFFFFFFFFFFFFFFFFFFFFFFFFF AND PUSH20 0xFFFFFFFFFFFFFFFFFFFFFFFFFFFFFFFFFFFFFFFF AND DUP2 MSTORE PUSH1 0x20 ADD SWAP1 DUP2 MSTORE PUSH1 0x20 ADD PUSH1 0x0 KECCAK256 PUSH1 0x3 ADD SLOAD PUSH1 0x0 DUP1 DUP4 PUSH20 0xFFFFFFFFFFFFFFFFFFFFFFFFFFFFFFFFFFFFFFFF AND PUSH20 0xFFFFFFFFFFFFFFFFFFFFFFFFFFFFFFFFFFFFFFFF AND DUP2 MSTORE PUSH1 0x20 ADD SWAP1 DUP2 MSTORE PUSH1 0x20 ADD PUSH1 0x0 KECCAK256 PUSH1 0x3 ADD DUP2 SWAP1 SSTORE POP PUSH1 0x0 DUP1 PUSH1 0x0 DUP5 PUSH20 0xFFFFFFFFFFFFFFFFFFFFFFFFFFFFFFFFFFFFFFFF AND PUSH20 0xFFFFFFFFFFFFFFFFFFFFFFFFFFFFFFFFFFFFFFFF AND DUP2 MSTORE PUSH1 0x20 ADD SWAP1 DUP2 MSTORE PUSH1 0x20 ADD PUSH1 0x0 KECCAK256 PUSH1 0x0 ADD DUP2 SWAP1 SSTORE POP PUSH1 0x0 DUP1 PUSH1 0x0 DUP5 PUSH20 0xFFFFFFFFFFFFFFFFFFFFFFFFFFFFFFFFFFFFFFFF AND PUSH20 0xFFFFFFFFFFFFFFFFFFFFFFFFFFFFFFFFFFFFFFFF AND DUP2 MSTORE PUSH1 0x20 ADD SWAP1 DUP2 MSTORE PUSH1 0x20 ADD PUSH1 0x0 KECCAK256 PUSH1 0x1 ADD DUP2 SWAP1 SSTORE POP PUSH1 0x0 DUP1 PUSH1 0x0 DUP5 PUSH20 0xFFFFFFFFFFFFFFFFFFFFFFFFFFFFFFFFFFFFFFFF AND PUSH20 0xFFFFFFFFFFFFFFFFFFFFFFFFFFFFFFFFFFFFFFFF AND DUP2 MSTORE PUSH1 0x20 ADD SWAP1 DUP2 MSTORE PUSH1 0x20 ADD PUSH1 0x0 KECCAK256 PUSH1 0x2 ADD DUP2 SWAP1 SSTORE POP PUSH1 0x0 DUP1 SHL PUSH1 0x0 DUP1 DUP5 PUSH20 0xFFFFFFFFFFFFFFFFFFFFFFFFFFFFFFFFFFFFFFFF AND PUSH20 0xFFFFFFFFFFFFFFFFFFFFFFFFFFFFFFFFFFFFFFFF AND DUP2 MSTORE PUSH1 0x20 ADD SWAP1 DUP2 MSTORE PUSH1 0x20 ADD PUSH1 0x0 KECCAK256 PUSH1 0x3 ADD DUP2 SWAP1 SSTORE POP PUSH1 0x0 DUP1 PUSH1 0x0 DUP5 PUSH20 0xFFFFFFFFFFFFFFFFFFFFFFFFFFFFFFFFFFFFFFFF AND PUSH20 0xFFFFFFFFFFFFFFFFFFFFFFFFFFFFFFFFFFFFFFFF AND DUP2 MSTORE PUSH1 0x20 ADD SWAP1 DUP2 MSTORE PUSH1 0x20 ADD PUSH1 0x0 KECCAK256 PUSH1 0x4 ADD PUSH1 0x0 PUSH2 0x100 EXP DUP2 SLOAD DUP2 PUSH1 0xFF MUL NOT AND SWAP1 DUP4 ISZERO ISZERO MUL OR SWAP1 SSTORE POP DUP2 PUSH20 0xFFFFFFFFFFFFFFFFFFFFFFFFFFFFFFFFFFFFFFFF AND PUSH32 0x5E06A4DA1C258BA9BC6142CA9E5B6DFA64E57F7FC4E91A150BA0B3FD301587A0 PUSH1 0x40 MLOAD PUSH1 0x40 MLOAD DUP1 SWAP2 SUB SWAP1 LOG2 POP POP JUMP JUMPDEST PUSH1 0x0 DUP1 SHL PUSH1 0x0 DUP1 DUP4 PUSH20 0xFFFFFFFFFFFFFFFFFFFFFFFFFFFFFFFFFFFFFFFF AND PUSH20 0xFFFFFFFFFFFFFFFFFFFFFFFFFFFFFFFFFFFFFFFF AND DUP2 MSTORE PUSH1 0x20 ADD SWAP1 DUP2 MSTORE PUSH1 0x20 ADD PUSH1 0x0 KECCAK256 PUSH1 0x3 ADD SLOAD SUB PUSH2 0xD8C JUMPI PUSH1 0x40 MLOAD PUSH32 0x8C379A000000000000000000000000000000000000000000000000000000000 DUP2 MSTORE PUSH1 0x4 ADD PUSH2 0xD83 SWAP1 PUSH2 0x267D JUMP JUMPDEST PUSH1 0x40 MLOAD DUP1 SWAP2 SUB SWAP1 REVERT JUMPDEST PUSH1 0x0 DUP1 DUP3 PUSH20 0xFFFFFFFFFFFFFFFFFFFFFFFFFFFFFFFFFFFFFFFF AND PUSH20 0xFFFFFFFFFFFFFFFFFFFFFFFFFFFFFFFFFFFFFFFF AND DUP2 MSTORE PUSH1 0x20 ADD SWAP1 DUP2 MSTORE PUSH1 0x20 ADD PUSH1 0x0 KECCAK256 PUSH1 0x4 ADD PUSH1 0x0 SWAP1 SLOAD SWAP1 PUSH2 0x100 EXP SWAP1 DIV PUSH1 0xFF AND ISZERO PUSH2 0xE1B JUMPI PUSH1 0x40 MLOAD PUSH32 0x8C379A000000000000000000000000000000000000000000000000000000000 DUP2 MSTORE PUSH1 0x4 ADD PUSH2 0xE12 SWAP1 PUSH2 0x26E9 JUMP JUMPDEST PUSH1 0x40 MLOAD DUP1 SWAP2 SUB SWAP1 REVERT JUMPDEST PUSH1 0x1 PUSH1 0x0 DUP1 DUP4 PUSH20 0xFFFFFFFFFFFFFFFFFFFFFFFFFFFFFFFFFFFFFFFF AND PUSH20 0xFFFFFFFFFFFFFFFFFFFFFFFFFFFFFFFFFFFFFFFF AND DUP2 MSTORE PUSH1 0x20 ADD SWAP1 DUP2 MSTORE PUSH1 0x20 ADD PUSH1 0x0 KECCAK256 PUSH1 0x4 ADD PUSH1 0x0 PUSH2 0x100 EXP DUP2 SLOAD DUP2 PUSH1 0xFF MUL NOT AND SWAP1 DUP4 ISZERO ISZERO MUL OR SWAP1 SSTORE POP DUP1 PUSH20 0xFFFFFFFFFFFFFFFFFFFFFFFFFFFFFFFFFFFFFFFF AND PUSH32 0xADF0EFCE7D511D3BF9054D210D803D5D49CAD8479BC76EDE63AEFCAEE73A646F PUSH1 0x40 MLOAD PUSH1 0x40 MLOAD DUP1 SWAP2 SUB SWAP1 LOG2 POP JUMP JUMPDEST PUSH1 0x0 DUP1 PUSH1 0x0 DUP4 PUSH20 0xFFFFFFFFFFFFFFFFFFFFFFFFFFFFFFFFFFFFFFFF AND PUSH20 0xFFFFFFFFFFFFFFFFFFFFFFFFFFFFFFFFFFFFFFFF AND DUP2 MSTORE PUSH1 0x20 ADD SWAP1 DUP2 MSTORE PUSH1 0x20 ADD PUSH1 0x0 KECCAK256 PUSH1 0x0 ADD SLOAD SWAP1 POP SWAP2 SWAP1 POP JUMP JUMPDEST PUSH1 0x6 PUSH1 0x0 SWAP1 SLOAD SWAP1 PUSH2 0x100 EXP SWAP1 DIV PUSH20 0xFFFFFFFFFFFFFFFFFFFFFFFFFFFFFFFFFFFFFFFF AND PUSH20 0xFFFFFFFFFFFFFFFFFFFFFFFFFFFFFFFFFFFFFFFF AND CALLER PUSH20 0xFFFFFFFFFFFFFFFFFFFFFFFFFFFFFFFFFFFFFFFF AND EQ PUSH2 0xF96 JUMPI PUSH1 0x40 MLOAD PUSH32 0x8C379A000000000000000000000000000000000000000000000000000000000 DUP2 MSTORE PUSH1 0x4 ADD PUSH2 0xF8D SWAP1 PUSH2 0x2513 JUMP JUMPDEST PUSH1 0x40 MLOAD DUP1 SWAP2 SUB SWAP1 REVERT JUMPDEST PUSH1 0x3 PUSH1 0x0 SWAP1 SLOAD SWAP1 PUSH2 0x100 EXP SWAP1 DIV PUSH1 0xFF AND PUSH2 0xFE5 JUMPI PUSH1 0x40 MLOAD PUSH32 0x8C379A000000000000000000000000000000000000000000000000000000000 DUP2 MSTORE PUSH1 0x4 ADD PUSH2 0xFDC SWAP1 PUSH2 0x238C JUMP JUMPDEST PUSH1 0x40 MLOAD DUP1 SWAP2 SUB SWAP1 REVERT JUMPDEST PUSH1 0x6 PUSH1 0x0 SWAP1 SLOAD SWAP1 PUSH2 0x100 EXP SWAP1 DIV PUSH20 0xFFFFFFFFFFFFFFFFFFFFFFFFFFFFFFFFFFFFFFFF AND PUSH20 0xFFFFFFFFFFFFFFFFFFFFFFFFFFFFFFFFFFFFFFFF AND CALLER PUSH20 0xFFFFFFFFFFFFFFFFFFFFFFFFFFFFFFFFFFFFFFFF AND EQ PUSH2 0x1075 JUMPI PUSH1 0x40 MLOAD PUSH32 0x8C379A000000000000000000000000000000000000000000000000000000000 DUP2 MSTORE PUSH1 0x4 ADD PUSH2 0x106C SWAP1 PUSH2 0x277B JUMP JUMPDEST PUSH1 0x40 MLOAD DUP1 SWAP2 SUB SWAP1 REVERT JUMPDEST PUSH1 0x1 PUSH1 0x3 PUSH1 0x0 PUSH2 0x100 EXP DUP2 SLOAD DUP2 PUSH1 0xFF MUL NOT AND SWAP1 DUP4 ISZERO ISZERO MUL OR SWAP1 SSTORE POP JUMP JUMPDEST PUSH1 0x0 DUP1 SHL PUSH1 0x0 DUP1 CALLER PUSH20 0xFFFFFFFFFFFFFFFFFFFFFFFFFFFFFFFFFFFFFFFF AND PUSH20 0xFFFFFFFFFFFFFFFFFFFFFFFFFFFFFFFFFFFFFFFF AND DUP2 MSTORE PUSH1 0x20 ADD SWAP1 DUP2 MSTORE PUSH1 0x20 ADD PUSH1 0x0 KECCAK256 PUSH1 0x3 ADD SLOAD EQ PUSH2 0x1118 JUMPI PUSH1 0x40 MLOAD PUSH32 0x8C379A000000000000000000000000000000000000000000000000000000000 DUP2 MSTORE PUSH1 0x4 ADD PUSH2 0x110F SWAP1 PUSH2 0x27E7 JUMP JUMPDEST PUSH1 0x40 MLOAD DUP1 SWAP2 SUB SWAP1 REVERT JUMPDEST DUP1 PUSH1 0x0 DUP1 CALLER PUSH20 0xFFFFFFFFFFFFFFFFFFFFFFFFFFFFFFFFFFFFFFFF AND PUSH20 0xFFFFFFFFFFFFFFFFFFFFFFFFFFFFFFFFFFFFFFFF AND DUP2 MSTORE PUSH1 0x20 ADD SWAP1 DUP2 MSTORE PUSH1 0x20 ADD PUSH1 0x0 KECCAK256 PUSH1 0x3 ADD DUP2 SWAP1 SSTORE POP CALLER PUSH20 0xFFFFFFFFFFFFFFFFFFFFFFFFFFFFFFFFFFFFFFFF AND PUSH32 0xB8142D42F05D95ABF0A6570799774D59276E49EA32A04D9A4EC316EA4A6886BC DUP3 PUSH1 0x40 MLOAD PUSH2 0x11A4 SWAP2 SWAP1 PUSH2 0x2807 JUMP JUMPDEST PUSH1 0x40 MLOAD DUP1 SWAP2 SUB SWAP1 LOG2 POP JUMP JUMPDEST PUSH1 0x60 PUSH1 0x5 DUP1 SLOAD PUSH2 0x11BE SWAP1 PUSH2 0x230F JUMP JUMPDEST DUP1 PUSH1 0x1F ADD PUSH1 0x20 DUP1 SWAP2 DIV MUL PUSH1 0x20 ADD PUSH1 0x40 MLOAD SWAP1 DUP2 ADD PUSH1 0x40 MSTORE DUP1 SWAP3 SWAP2 SWAP1 DUP2 DUP2 MSTORE PUSH1 0x20 ADD DUP3 DUP1 SLOAD PUSH2 0x11EA SWAP1 PUSH2 0x230F JUMP JUMPDEST DUP1 ISZERO PUSH2 0x1237 JUMPI DUP1 PUSH1 0x1F LT PUSH2 0x120C JUMPI PUSH2 0x100 DUP1 DUP4 SLOAD DIV MUL DUP4 MSTORE SWAP2 PUSH1 0x20 ADD SWAP2 PUSH2 0x1237 JUMP JUMPDEST DUP3 ADD SWAP2 SWAP1 PUSH1 0x0 MSTORE PUSH1 0x20 PUSH1 0x0 KECCAK256 SWAP1 JUMPDEST DUP2 SLOAD DUP2 MSTORE SWAP1 PUSH1 0x1 ADD SWAP1 PUSH1 0x20 ADD DUP1 DUP4 GT PUSH2 0x121A JUMPI DUP3 SWAP1 SUB PUSH1 0x1F AND DUP3 ADD SWAP2 JUMPDEST POP POP POP POP POP SWAP1 POP SWAP1 JUMP JUMPDEST PUSH1 0x0 DUP1 CALLER SWAP1 POP PUSH1 0x0 PUSH2 0x1253 DUP3 DUP7 PUSH2 0x1A1D JUMP JUMPDEST SWAP1 POP DUP4 DUP2 LT ISZERO PUSH2 0x1298 JUMPI PUSH1 0x40 MLOAD PUSH32 0x8C379A000000000000000000000000000000000000000000000000000000000 DUP2 MSTORE PUSH1 0x4 ADD PUSH2 0x128F SWAP1 PUSH2 0x2894 JUMP JUMPDEST PUSH1 0x40 MLOAD DUP1 SWAP2 SUB SWAP1 REVERT JUMPDEST PUSH2 0x12A5 DUP3 DUP7 DUP7 DUP5 SUB PUSH2 0x1ACA JUMP JUMPDEST PUSH1 0x1 SWAP3 POP POP POP SWAP3 SWAP2 POP POP JUMP JUMPDEST PUSH1 0x0 PUSH1 0x3 PUSH1 0x0 SWAP1 SLOAD SWAP1 PUSH2 0x100 EXP SWAP1 DIV PUSH1 0xFF AND PUSH2 0x1302 JUMPI PUSH1 0x40 MLOAD PUSH32 0x8C379A000000000000000000000000000000000000000000000000000000000 DUP2 MSTORE PUSH1 0x4 ADD PUSH2 0x12F9 SWAP1 PUSH2 0x238C JUMP JUMPDEST PUSH1 0x40 MLOAD DUP1 SWAP2 SUB SWAP1 REVERT JUMPDEST PUSH1 0x0 DUP1 CALLER PUSH20 0xFFFFFFFFFFFFFFFFFFFFFFFFFFFFFFFFFFFFFFFF AND PUSH20 0xFFFFFFFFFFFFFFFFFFFFFFFFFFFFFFFFFFFFFFFF AND DUP2 MSTORE PUSH1 0x20 ADD SWAP1 DUP2 MSTORE PUSH1 0x20 ADD PUSH1 0x0 KECCAK256 PUSH1 0x0 ADD SLOAD DUP3 GT ISZERO PUSH2 0x1386 JUMPI PUSH1 0x40 MLOAD PUSH32 0x8C379A000000000000000000000000000000000000000000000000000000000 DUP2 MSTORE PUSH1 0x4 ADD PUSH2 0x137D SWAP1 PUSH2 0x2900 JUMP JUMPDEST PUSH1 0x40 MLOAD DUP1 SWAP2 SUB SWAP1 REVERT JUMPDEST PUSH1 0x0 PUSH8 0xDE0B6B3A7640000 DUP4 PUSH2 0x139C SWAP2 SWAP1 PUSH2 0x294F JUMP JUMPDEST SWAP1 POP PUSH1 0x0 PUSH8 0xDE0B6B3A7640000 DUP5 PUSH2 0x13B4 SWAP2 SWAP1 PUSH2 0x2980 JUMP JUMPDEST SWAP1 POP PUSH1 0x0 DUP1 CALLER PUSH20 0xFFFFFFFFFFFFFFFFFFFFFFFFFFFFFFFFFFFFFFFF AND PUSH20 0xFFFFFFFFFFFFFFFFFFFFFFFFFFFFFFFFFFFFFFFF AND DUP2 MSTORE PUSH1 0x20 ADD SWAP1 DUP2 MSTORE PUSH1 0x20 ADD PUSH1 0x0 KECCAK256 PUSH1 0x2 ADD SLOAD DUP2 GT ISZERO PUSH2 0x15B6 JUMPI PUSH1 0x1 PUSH1 0x0 DUP1 CALLER PUSH20 0xFFFFFFFFFFFFFFFFFFFFFFFFFFFFFFFFFFFFFFFF AND PUSH20 0xFFFFFFFFFFFFFFFFFFFFFFFFFFFFFFFFFFFFFFFF AND DUP2 MSTORE PUSH1 0x20 ADD SWAP1 DUP2 MSTORE PUSH1 0x20 ADD PUSH1 0x0 KECCAK256 PUSH1 0x1 ADD PUSH1 0x0 DUP3 DUP3 SLOAD PUSH2 0x1451 SWAP2 SWAP1 PUSH2 0x29B1 JUMP JUMPDEST SWAP3 POP POP DUP2 SWAP1 SSTORE POP PUSH1 0x1 PUSH1 0x0 DUP1 PUSH1 0x6 PUSH1 0x0 SWAP1 SLOAD SWAP1 PUSH2 0x100 EXP SWAP1 DIV PUSH20 0xFFFFFFFFFFFFFFFFFFFFFFFFFFFFFFFFFFFFFFFF AND PUSH20 0xFFFFFFFFFFFFFFFFFFFFFFFFFFFFFFFFFFFFFFFF AND PUSH20 0xFFFFFFFFFFFFFFFFFFFFFFFFFFFFFFFFFFFFFFFF AND DUP2 MSTORE PUSH1 0x20 ADD SWAP1 DUP2 MSTORE PUSH1 0x20 ADD PUSH1 0x0 KECCAK256 PUSH1 0x1 ADD PUSH1 0x0 DUP3 DUP3 SLOAD PUSH2 0x14CC SWAP2 SWAP1 PUSH2 0x246D JUMP JUMPDEST SWAP3 POP POP DUP2 SWAP1 SSTORE POP PUSH8 0xDE0B6B3A7640000 PUSH1 0x0 DUP1 CALLER PUSH20 0xFFFFFFFFFFFFFFFFFFFFFFFFFFFFFFFFFFFFFFFF AND PUSH20 0xFFFFFFFFFFFFFFFFFFFFFFFFFFFFFFFFFFFFFFFF AND DUP2 MSTORE PUSH1 0x20 ADD SWAP1 DUP2 MSTORE PUSH1 0x20 ADD PUSH1 0x0 KECCAK256 PUSH1 0x2 ADD PUSH1 0x0 DUP3 DUP3 SLOAD PUSH2 0x152C SWAP2 SWAP1 PUSH2 0x246D JUMP JUMPDEST SWAP3 POP POP DUP2 SWAP1 SSTORE POP PUSH8 0xDE0B6B3A7640000 PUSH1 0x0 DUP1 PUSH1 0x6 PUSH1 0x0 SWAP1 SLOAD SWAP1 PUSH2 0x100 EXP SWAP1 DIV PUSH20 0xFFFFFFFFFFFFFFFFFFFFFFFFFFFFFFFFFFFFFFFF AND PUSH20 0xFFFFFFFFFFFFFFFFFFFFFFFFFFFFFFFFFFFFFFFF AND PUSH20 0xFFFFFFFFFFFFFFFFFFFFFFFFFFFFFFFFFFFFFFFF AND DUP2 MSTORE PUSH1 0x20 ADD SWAP1 DUP2 MSTORE PUSH1 0x20 ADD PUSH1 0x0 KECCAK256 PUSH1 0x2 ADD PUSH1 0x0 DUP3 DUP3 SLOAD PUSH2 0x15AE SWAP2 SWAP1 PUSH2 0x29B1 JUMP JUMPDEST SWAP3 POP POP DUP2 SWAP1 SSTORE POP JUMPDEST DUP2 PUSH1 0x0 DUP1 CALLER PUSH20 0xFFFFFFFFFFFFFFFFFFFFFFFFFFFFFFFFFFFFFFFF AND PUSH20 0xFFFFFFFFFFFFFFFFFFFFFFFFFFFFFFFFFFFFFFFF AND DUP2 MSTORE PUSH1 0x20 ADD SWAP1 DUP2 MSTORE PUSH1 0x20 ADD PUSH1 0x0 KECCAK256 PUSH1 0x1 ADD PUSH1 0x0 DUP3 DUP3 SLOAD PUSH2 0x1607 SWAP2 SWAP1 PUSH2 0x29B1 JUMP JUMPDEST SWAP3 POP POP DUP2 SWAP1 SSTORE POP DUP1 PUSH1 0x0 DUP1 CALLER PUSH20 0xFFFFFFFFFFFFFFFFFFFFFFFFFFFFFFFFFFFFFFFF AND PUSH20 0xFFFFFFFFFFFFFFFFFFFFFFFFFFFFFFFFFFFFFFFF AND DUP2 MSTORE PUSH1 0x20 ADD SWAP1 DUP2 MSTORE PUSH1 0x20 ADD PUSH1 0x0 KECCAK256 PUSH1 0x2 ADD PUSH1 0x0 DUP3 DUP3 SLOAD PUSH2 0x165F SWAP2 SWAP1 PUSH2 0x29B1 JUMP JUMPDEST SWAP3 POP POP DUP2 SWAP1 SSTORE POP DUP4 PUSH1 0x0 DUP1 CALLER PUSH20 0xFFFFFFFFFFFFFFFFFFFFFFFFFFFFFFFFFFFFFFFF AND PUSH20 0xFFFFFFFFFFFFFFFFFFFFFFFFFFFFFFFFFFFFFFFF AND DUP2 MSTORE PUSH1 0x20 ADD SWAP1 DUP2 MSTORE PUSH1 0x20 ADD PUSH1 0x0 KECCAK256 PUSH1 0x0 ADD PUSH1 0x0 DUP3 DUP3 SLOAD PUSH2 0x16B7 SWAP2 SWAP1 PUSH2 0x29B1 JUMP JUMPDEST SWAP3 POP POP DUP2 SWAP1 SSTORE POP PUSH1 0x0 DUP1 DUP7 PUSH20 0xFFFFFFFFFFFFFFFFFFFFFFFFFFFFFFFFFFFFFFFF AND PUSH20 0xFFFFFFFFFFFFFFFFFFFFFFFFFFFFFFFFFFFFFFFF AND DUP2 MSTORE PUSH1 0x20 ADD SWAP1 DUP2 MSTORE PUSH1 0x20 ADD PUSH1 0x0 KECCAK256 PUSH1 0x2 ADD SLOAD DUP2 LT ISZERO PUSH2 0x18BE JUMPI PUSH1 0x1 PUSH1 0x0 DUP1 DUP8 PUSH20 0xFFFFFFFFFFFFFFFFFFFFFFFFFFFFFFFFFFFFFFFF AND PUSH20 0xFFFFFFFFFFFFFFFFFFFFFFFFFFFFFFFFFFFFFFFF AND DUP2 MSTORE PUSH1 0x20 ADD SWAP1 DUP2 MSTORE PUSH1 0x20 ADD PUSH1 0x0 KECCAK256 PUSH1 0x1 ADD PUSH1 0x0 DUP3 DUP3 SLOAD PUSH2 0x1759 SWAP2 SWAP1 PUSH2 0x246D JUMP JUMPDEST SWAP3 POP POP DUP2 SWAP1 SSTORE POP PUSH1 0x1 PUSH1 0x0 DUP1 PUSH1 0x6 PUSH1 0x0 SWAP1 SLOAD SWAP1 PUSH2 0x100 EXP SWAP1 DIV PUSH20 0xFFFFFFFFFFFFFFFFFFFFFFFFFFFFFFFFFFFFFFFF AND PUSH20 0xFFFFFFFFFFFFFFFFFFFFFFFFFFFFFFFFFFFFFFFF AND PUSH20 0xFFFFFFFFFFFFFFFFFFFFFFFFFFFFFFFFFFFFFFFF AND DUP2 MSTORE PUSH1 0x20 ADD SWAP1 DUP2 MSTORE PUSH1 0x20 ADD PUSH1 0x0 KECCAK256 PUSH1 0x1 ADD PUSH1 0x0 DUP3 DUP3 SLOAD PUSH2 0x17D4 SWAP2 SWAP1 PUSH2 0x29B1 JUMP JUMPDEST SWAP3 POP POP DUP2 SWAP1 SSTORE POP PUSH8 0xDE0B6B3A7640000 PUSH1 0x0 DUP1 DUP8 PUSH20 0xFFFFFFFFFFFFFFFFFFFFFFFFFFFFFFFFFFFFFFFF AND PUSH20 0xFFFFFFFFFFFFFFFFFFFFFFFFFFFFFFFFFFFFFFFF AND DUP2 MSTORE PUSH1 0x20 ADD SWAP1 DUP2 MSTORE PUSH1 0x20 ADD PUSH1 0x0 KECCAK256 PUSH1 0x2 ADD PUSH1 0x0 DUP3 DUP3 SLOAD PUSH2 0x1834 SWAP2 SWAP1 PUSH2 0x29B1 JUMP JUMPDEST SWAP3 POP POP DUP2 SWAP1 SSTORE POP PUSH8 0xDE0B6B3A7640000 PUSH1 0x0 DUP1 PUSH1 0x6 PUSH1 0x0 SWAP1 SLOAD SWAP1 PUSH2 0x100 EXP SWAP1 DIV PUSH20 0xFFFFFFFFFFFFFFFFFFFFFFFFFFFFFFFFFFFFFFFF AND PUSH20 0xFFFFFFFFFFFFFFFFFFFFFFFFFFFFFFFFFFFFFFFF AND PUSH20 0xFFFFFFFFFFFFFFFFFFFFFFFFFFFFFFFFFFFFFFFF AND DUP2 MSTORE PUSH1 0x20 ADD SWAP1 DUP2 MSTORE PUSH1 0x20 ADD PUSH1 0x0 KECCAK256 PUSH1 0x2 ADD PUSH1 0x0 DUP3 DUP3 SLOAD PUSH2 0x18B6 SWAP2 SWAP1 PUSH2 0x246D JUMP JUMPDEST SWAP3 POP POP DUP2 SWAP1 SSTORE POP JUMPDEST DUP2 PUSH1 0x0 DUP1 DUP8 PUSH20 0xFFFFFFFFFFFFFFFFFFFFFFFFFFFFFFFFFFFFFFFF AND PUSH20 0xFFFFFFFFFFFFFFFFFFFFFFFFFFFFFFFFFFFFFFFF AND DUP2 MSTORE PUSH1 0x20 ADD SWAP1 DUP2 MSTORE PUSH1 0x20 ADD PUSH1 0x0 KECCAK256 PUSH1 0x1 ADD PUSH1 0x0 DUP3 DUP3 SLOAD PUSH2 0x190F SWAP2 SWAP1 PUSH2 0x246D JUMP JUMPDEST SWAP3 POP POP DUP2 SWAP1 SSTORE POP DUP1 PUSH1 0x0 DUP1 DUP8 PUSH20 0xFFFFFFFFFFFFFFFFFFFFFFFFFFFFFFFFFFFFFFFF AND PUSH20 0xFFFFFFFFFFFFFFFFFFFFFFFFFFFFFFFFFFFFFFFF AND DUP2 MSTORE PUSH1 0x20 ADD SWAP1 DUP2 MSTORE PUSH1 0x20 ADD PUSH1 0x0 KECCAK256 PUSH1 0x2 ADD PUSH1 0x0 DUP3 DUP3 SLOAD PUSH2 0x1967 SWAP2 SWAP1 PUSH2 0x246D JUMP JUMPDEST SWAP3 POP POP DUP2 SWAP1 SSTORE POP DUP4 PUSH1 0x0 DUP1 DUP8 PUSH20 0xFFFFFFFFFFFFFFFFFFFFFFFFFFFFFFFFFFFFFFFF AND PUSH20 0xFFFFFFFFFFFFFFFFFFFFFFFFFFFFFFFFFFFFFFFF AND DUP2 MSTORE PUSH1 0x20 ADD SWAP1 DUP2 MSTORE PUSH1 0x20 ADD PUSH1 0x0 KECCAK256 PUSH1 0x0 ADD PUSH1 0x0 DUP3 DUP3 SLOAD PUSH2 0x19BF SWAP2 SWAP1 PUSH2 0x246D JUMP JUMPDEST SWAP3 POP POP DUP2 SWAP1 SSTORE POP PUSH1 0x1 SWAP3 POP POP POP SWAP3 SWAP2 POP POP JUMP JUMPDEST PUSH1 0x0 DUP1 PUSH1 0x0 DUP4 PUSH20 0xFFFFFFFFFFFFFFFFFFFFFFFFFFFFFFFFFFFFFFFF AND PUSH20 0xFFFFFFFFFFFFFFFFFFFFFFFFFFFFFFFFFFFFFFFF AND DUP2 MSTORE PUSH1 0x20 ADD SWAP1 DUP2 MSTORE PUSH1 0x20 ADD PUSH1 0x0 KECCAK256 PUSH1 0x2 ADD SLOAD SWAP1 POP SWAP2 SWAP1 POP JUMP JUMPDEST PUSH1 0x0 PUSH1 0x1 PUSH1 0x0 DUP5 PUSH20 0xFFFFFFFFFFFFFFFFFFFFFFFFFFFFFFFFFFFFFFFF AND PUSH20 0xFFFFFFFFFFFFFFFFFFFFFFFFFFFFFFFFFFFFFFFF AND DUP2 MSTORE PUSH1 0x20 ADD SWAP1 DUP2 MSTORE PUSH1 0x20 ADD PUSH1 0x0 KECCAK256 PUSH1 0x0 DUP4 PUSH20 0xFFFFFFFFFFFFFFFFFFFFFFFFFFFFFFFFFFFFFFFF AND PUSH20 0xFFFFFFFFFFFFFFFFFFFFFFFFFFFFFFFFFFFFFFFF AND DUP2 MSTORE PUSH1 0x20 ADD SWAP1 DUP2 MSTORE PUSH1 0x20 ADD PUSH1 0x0 KECCAK256 SLOAD SWAP1 POP SWAP3 SWAP2 POP POP JUMP JUMPDEST PUSH1 0x6 PUSH1 0x0 SWAP1 SLOAD SWAP1 PUSH2 0x100 EXP SWAP1 DIV PUSH20 0xFFFFFFFFFFFFFFFFFFFFFFFFFFFFFFFFFFFFFFFF AND DUP2 JUMP JUMPDEST PUSH1 0x0 PUSH20 0xFFFFFFFFFFFFFFFFFFFFFFFFFFFFFFFFFFFFFFFF AND DUP4 PUSH20 0xFFFFFFFFFFFFFFFFFFFFFFFFFFFFFFFFFFFFFFFF AND SUB PUSH2 0x1B39 JUMPI PUSH1 0x40 MLOAD PUSH32 0x8C379A000000000000000000000000000000000000000000000000000000000 DUP2 MSTORE PUSH1 0x4 ADD PUSH2 0x1B30 SWAP1 PUSH2 0x2A57 JUMP JUMPDEST PUSH1 0x40 MLOAD DUP1 SWAP2 SUB SWAP1 REVERT JUMPDEST PUSH1 0x0 PUSH20 0xFFFFFFFFFFFFFFFFFFFFFFFFFFFFFFFFFFFFFFFF AND DUP3 PUSH20 0xFFFFFFFFFFFFFFFFFFFFFFFFFFFFFFFFFFFFFFFF AND SUB PUSH2 0x1BA8 JUMPI PUSH1 0x40 MLOAD PUSH32 0x8C379A000000000000000000000000000000000000000000000000000000000 DUP2 MSTORE PUSH1 0x4 ADD PUSH2 0x1B9F SWAP1 PUSH2 0x2AE9 JUMP JUMPDEST PUSH1 0x40 MLOAD DUP1 SWAP2 SUB SWAP1 REVERT JUMPDEST DUP1 PUSH1 0x1 PUSH1 0x0 DUP6 PUSH20 0xFFFFFFFFFFFFFFFFFFFFFFFFFFFFFFFFFFFFFFFF AND PUSH20 0xFFFFFFFFFFFFFFFFFFFFFFFFFFFFFFFFFFFFFFFF AND DUP2 MSTORE PUSH1 0x20 ADD SWAP1 DUP2 MSTORE PUSH1 0x20 ADD PUSH1 0x0 KECCAK256 PUSH1 0x0 DUP5 PUSH20 0xFFFFFFFFFFFFFFFFFFFFFFFFFFFFFFFFFFFFFFFF AND PUSH20 0xFFFFFFFFFFFFFFFFFFFFFFFFFFFFFFFFFFFFFFFF AND DUP2 MSTORE PUSH1 0x20 ADD SWAP1 DUP2 MSTORE PUSH1 0x20 ADD PUSH1 0x0 KECCAK256 DUP2 SWAP1 SSTORE POP DUP2 PUSH20 0xFFFFFFFFFFFFFFFFFFFFFFFFFFFFFFFFFFFFFFFF AND DUP4 PUSH20 0xFFFFFFFFFFFFFFFFFFFFFFFFFFFFFFFFFFFFFFFF AND PUSH32 0x8C5BE1E5EBEC7D5BD14F71427D1E84F3DD0314C0F7B2291E5B200AC8C7C3B925 DUP4 PUSH1 0x40 MLOAD PUSH2 0x1C86 SWAP2 SWAP1 PUSH2 0x2178 JUMP JUMPDEST PUSH1 0x40 MLOAD DUP1 SWAP2 SUB SWAP1 LOG3 POP POP POP JUMP JUMPDEST PUSH1 0x0 PUSH20 0xFFFFFFFFFFFFFFFFFFFFFFFFFFFFFFFFFFFFFFFF AND DUP4 PUSH20 0xFFFFFFFFFFFFFFFFFFFFFFFFFFFFFFFFFFFFFFFF AND SUB PUSH2 0x1D02 JUMPI PUSH1 0x40 MLOAD PUSH32 0x8C379A000000000000000000000000000000000000000000000000000000000 DUP2 MSTORE PUSH1 0x4 ADD PUSH2 0x1CF9 SWAP1 PUSH2 0x2B7B JUMP JUMPDEST PUSH1 0x40 MLOAD DUP1 SWAP2 SUB SWAP1 REVERT JUMPDEST PUSH1 0x0 PUSH20 0xFFFFFFFFFFFFFFFFFFFFFFFFFFFFFFFFFFFFFFFF AND DUP3 PUSH20 0xFFFFFFFFFFFFFFFFFFFFFFFFFFFFFFFFFFFFFFFF AND SUB PUSH2 0x1D71 JUMPI PUSH1 0x40 MLOAD PUSH32 0x8C379A000000000000000000000000000000000000000000000000000000000 DUP2 MSTORE PUSH1 0x4 ADD PUSH2 0x1D68 SWAP1 PUSH2 0x2C0D JUMP JUMPDEST PUSH1 0x40 MLOAD DUP1 SWAP2 SUB SWAP1 REVERT JUMPDEST PUSH1 0x0 DUP1 DUP5 PUSH20 0xFFFFFFFFFFFFFFFFFFFFFFFFFFFFFFFFFFFFFFFF AND PUSH20 0xFFFFFFFFFFFFFFFFFFFFFFFFFFFFFFFFFFFFFFFF AND DUP2 MSTORE PUSH1 0x20 ADD SWAP1 DUP2 MSTORE PUSH1 0x20 ADD PUSH1 0x0 KECCAK256 PUSH1 0x0 ADD SLOAD DUP2 GT ISZERO PUSH2 0x1DF5 JUMPI PUSH1 0x40 MLOAD PUSH32 0x8C379A000000000000000000000000000000000000000000000000000000000 DUP2 MSTORE PUSH1 0x4 ADD PUSH2 0x1DEC SWAP1 PUSH2 0x2C9F JUMP JUMPDEST PUSH1 0x40 MLOAD DUP1 SWAP2 SUB SWAP1 REVERT JUMPDEST DUP1 PUSH1 0x0 DUP1 DUP6 PUSH20 0xFFFFFFFFFFFFFFFFFFFFFFFFFFFFFFFFFFFFFFFF AND PUSH20 0xFFFFFFFFFFFFFFFFFFFFFFFFFFFFFFFFFFFFFFFF AND DUP2 MSTORE PUSH1 0x20 ADD SWAP1 DUP2 MSTORE PUSH1 0x20 ADD PUSH1 0x0 KECCAK256 PUSH1 0x0 ADD PUSH1 0x0 DUP3 DUP3 SLOAD PUSH2 0x1E46 SWAP2 SWAP1 PUSH2 0x29B1 JUMP JUMPDEST SWAP3 POP POP DUP2 SWAP1 SSTORE POP DUP1 PUSH1 0x0 DUP1 DUP5 PUSH20 0xFFFFFFFFFFFFFFFFFFFFFFFFFFFFFFFFFFFFFFFF AND PUSH20 0xFFFFFFFFFFFFFFFFFFFFFFFFFFFFFFFFFFFFFFFF AND DUP2 MSTORE PUSH1 0x20 ADD SWAP1 DUP2 MSTORE PUSH1 0x20 ADD PUSH1 0x0 KECCAK256 PUSH1 0x0 ADD PUSH1 0x0 DUP3 DUP3 SLOAD PUSH2 0x1E9E SWAP2 SWAP1 PUSH2 0x246D JUMP JUMPDEST SWAP3 POP POP DUP2 SWAP1 SSTORE POP DUP2 PUSH20 0xFFFFFFFFFFFFFFFFFFFFFFFFFFFFFFFFFFFFFFFF AND DUP4 PUSH20 0xFFFFFFFFFFFFFFFFFFFFFFFFFFFFFFFFFFFFFFFF AND PUSH32 0xDDF252AD1BE2C89B69C2B068FC378DAA952BA7F163C4A11628F55A4DF523B3EF DUP4 PUSH1 0x40 MLOAD PUSH2 0x1F02 SWAP2 SWAP1 PUSH2 0x2178 JUMP JUMPDEST PUSH1 0x40 MLOAD DUP1 SWAP2 SUB SWAP1 LOG3 POP POP POP JUMP JUMPDEST PUSH1 0x0 DUP1 REVERT JUMPDEST PUSH1 0x0 PUSH20 0xFFFFFFFFFFFFFFFFFFFFFFFFFFFFFFFFFFFFFFFF DUP3 AND SWAP1 POP SWAP2 SWAP1 POP JUMP JUMPDEST PUSH1 0x0 PUSH2 0x1F3F DUP3 PUSH2 0x1F14 JUMP JUMPDEST SWAP1 POP SWAP2 SWAP1 POP JUMP JUMPDEST PUSH2 0x1F4F DUP2 PUSH2 0x1F34 JUMP JUMPDEST DUP2 EQ PUSH2 0x1F5A JUMPI PUSH1 0x0 DUP1 REVERT JUMPDEST POP JUMP JUMPDEST PUSH1 0x0 DUP2 CALLDATALOAD SWAP1 POP PUSH2 0x1F6C DUP2 PUSH2 0x1F46 JUMP JUMPDEST SWAP3 SWAP2 POP POP JUMP JUMPDEST PUSH1 0x0 PUSH1 0x20 DUP3 DUP5 SUB SLT ISZERO PUSH2 0x1F88 JUMPI PUSH2 0x1F87 PUSH2 0x1F0F JUMP JUMPDEST JUMPDEST PUSH1 0x0 PUSH2 0x1F96 DUP5 DUP3 DUP6 ADD PUSH2 0x1F5D JUMP JUMPDEST SWAP2 POP POP SWAP3 SWAP2 POP POP JUMP JUMPDEST PUSH1 0x0 DUP2 SWAP1 POP SWAP2 SWAP1 POP JUMP JUMPDEST PUSH2 0x1FB2 DUP2 PUSH2 0x1F9F JUMP JUMPDEST DUP3 MSTORE POP POP JUMP JUMPDEST PUSH1 0x0 DUP2 SWAP1 POP SWAP2 SWAP1 POP JUMP JUMPDEST PUSH2 0x1FCB DUP2 PUSH2 0x1FB8 JUMP JUMPDEST DUP3 MSTORE POP POP JUMP JUMPDEST PUSH1 0x0 DUP2 ISZERO ISZERO SWAP1 POP SWAP2 SWAP1 POP JUMP JUMPDEST PUSH2 0x1FE6 DUP2 PUSH2 0x1FD1 JUMP JUMPDEST DUP3 MSTORE POP POP JUMP JUMPDEST PUSH1 0x0 PUSH1 0xA0 DUP3 ADD SWAP1 POP PUSH2 0x2001 PUSH1 0x0 DUP4 ADD DUP9 PUSH2 0x1FA9 JUMP JUMPDEST PUSH2 0x200E PUSH1 0x20 DUP4 ADD DUP8 PUSH2 0x1FA9 JUMP JUMPDEST PUSH2 0x201B PUSH1 0x40 DUP4 ADD DUP7 PUSH2 0x1FA9 JUMP JUMPDEST PUSH2 0x2028 PUSH1 0x60 DUP4 ADD DUP6 PUSH2 0x1FC2 JUMP JUMPDEST PUSH2 0x2035 PUSH1 0x80 DUP4 ADD DUP5 PUSH2 0x1FDD JUMP JUMPDEST SWAP7 SWAP6 POP POP POP POP POP POP JUMP JUMPDEST PUSH1 0x0 DUP2 MLOAD SWAP1 POP SWAP2 SWAP1 POP JUMP JUMPDEST PUSH1 0x0 DUP3 DUP3 MSTORE PUSH1 0x20 DUP3 ADD SWAP1 POP SWAP3 SWAP2 POP POP JUMP JUMPDEST PUSH1 0x0 JUMPDEST DUP4 DUP2 LT ISZERO PUSH2 0x2079 JUMPI DUP1 DUP3 ADD MLOAD DUP2 DUP5 ADD MSTORE PUSH1 0x20 DUP2 ADD SWAP1 POP PUSH2 0x205E JUMP JUMPDEST PUSH1 0x0 DUP5 DUP5 ADD MSTORE POP POP POP POP JUMP JUMPDEST PUSH1 0x0 PUSH1 0x1F NOT PUSH1 0x1F DUP4 ADD AND SWAP1 POP SWAP2 SWAP1 POP JUMP JUMPDEST PUSH1 0x0 PUSH2 0x20A1 DUP3 PUSH2 0x203F JUMP JUMPDEST PUSH2 0x20AB DUP2 DUP6 PUSH2 0x204A JUMP JUMPDEST SWAP4 POP PUSH2 0x20BB DUP2 DUP6 PUSH1 0x20 DUP7 ADD PUSH2 0x205B JUMP JUMPDEST PUSH2 0x20C4 DUP2 PUSH2 0x2085 JUMP JUMPDEST DUP5 ADD SWAP2 POP POP SWAP3 SWAP2 POP POP JUMP JUMPDEST PUSH1 0x0 PUSH1 0x20 DUP3 ADD SWAP1 POP DUP2 DUP2 SUB PUSH1 0x0 DUP4 ADD MSTORE PUSH2 0x20E9 DUP2 DUP5 PUSH2 0x2096 JUMP JUMPDEST SWAP1 POP SWAP3 SWAP2 POP POP JUMP JUMPDEST PUSH2 0x20FA DUP2 PUSH2 0x1F9F JUMP JUMPDEST DUP2 EQ PUSH2 0x2105 JUMPI PUSH1 0x0 DUP1 REVERT JUMPDEST POP JUMP JUMPDEST PUSH1 0x0 DUP2 CALLDATALOAD SWAP1 POP PUSH2 0x2117 DUP2 PUSH2 0x20F1 JUMP JUMPDEST SWAP3 SWAP2 POP POP JUMP JUMPDEST PUSH1 0x0 DUP1 PUSH1 0x40 DUP4 DUP6 SUB SLT ISZERO PUSH2 0x2134 JUMPI PUSH2 0x2133 PUSH2 0x1F0F JUMP JUMPDEST JUMPDEST PUSH1 0x0 PUSH2 0x2142 DUP6 DUP3 DUP7 ADD PUSH2 0x1F5D JUMP JUMPDEST SWAP3 POP POP PUSH1 0x20 PUSH2 0x2153 DUP6 DUP3 DUP7 ADD PUSH2 0x2108 JUMP JUMPDEST SWAP2 POP POP SWAP3 POP SWAP3 SWAP1 POP JUMP JUMPDEST PUSH1 0x0 PUSH1 0x20 DUP3 ADD SWAP1 POP PUSH2 0x2172 PUSH1 0x0 DUP4 ADD DUP5 PUSH2 0x1FDD JUMP JUMPDEST SWAP3 SWAP2 POP POP JUMP JUMPDEST PUSH1 0x0 PUSH1 0x20 DUP3 ADD SWAP1 POP PUSH2 0x218D PUSH1 0x0 DUP4 ADD DUP5 PUSH2 0x1FA9 JUMP JUMPDEST SWAP3 SWAP2 POP POP JUMP JUMPDEST PUSH1 0x0 DUP1 PUSH1 0x0 PUSH1 0x60 DUP5 DUP7 SUB SLT ISZERO PUSH2 0x21AC JUMPI PUSH2 0x21AB PUSH2 0x1F0F JUMP JUMPDEST JUMPDEST PUSH1 0x0 PUSH2 0x21BA DUP7 DUP3 DUP8 ADD PUSH2 0x1F5D JUMP JUMPDEST SWAP4 POP POP PUSH1 0x20 PUSH2 0x21CB DUP7 DUP3 DUP8 ADD PUSH2 0x1F5D JUMP JUMPDEST SWAP3 POP POP PUSH1 0x40 PUSH2 0x21DC DUP7 DUP3 DUP8 ADD PUSH2 0x2108 JUMP JUMPDEST SWAP2 POP POP SWAP3 POP SWAP3 POP SWAP3 JUMP JUMPDEST PUSH1 0x0 PUSH1 0xFF DUP3 AND SWAP1 POP SWAP2 SWAP1 POP JUMP JUMPDEST PUSH2 0x21FC DUP2 PUSH2 0x21E6 JUMP JUMPDEST DUP3 MSTORE POP POP JUMP JUMPDEST PUSH1 0x0 PUSH1 0x20 DUP3 ADD SWAP1 POP PUSH2 0x2217 PUSH1 0x0 DUP4 ADD DUP5 PUSH2 0x21F3 JUMP JUMPDEST SWAP3 SWAP2 POP POP JUMP JUMPDEST PUSH1 0x0 DUP1 PUSH1 0x40 DUP4 DUP6 SUB SLT ISZERO PUSH2 0x2234 JUMPI PUSH2 0x2233 PUSH2 0x1F0F JUMP JUMPDEST JUMPDEST PUSH1 0x0 PUSH2 0x2242 DUP6 DUP3 DUP7 ADD PUSH2 0x1F5D JUMP JUMPDEST SWAP3 POP POP PUSH1 0x20 PUSH2 0x2253 DUP6 DUP3 DUP7 ADD PUSH2 0x1F5D JUMP JUMPDEST SWAP2 POP POP SWAP3 POP SWAP3 SWAP1 POP JUMP JUMPDEST PUSH2 0x2266 DUP2 PUSH2 0x1FB8 JUMP JUMPDEST DUP2 EQ PUSH2 0x2271 JUMPI PUSH1 0x0 DUP1 REVERT JUMPDEST POP JUMP JUMPDEST PUSH1 0x0 DUP2 CALLDATALOAD SWAP1 POP PUSH2 0x2283 DUP2 PUSH2 0x225D JUMP JUMPDEST SWAP3 SWAP2 POP POP JUMP JUMPDEST PUSH1 0x0 PUSH1 0x20 DUP3 DUP5 SUB SLT ISZERO PUSH2 0x229F JUMPI PUSH2 0x229E PUSH2 0x1F0F JUMP JUMPDEST JUMPDEST PUSH1 0x0 PUSH2 0x22AD DUP5 DUP3 DUP6 ADD PUSH2 0x2274 JUMP JUMPDEST SWAP2 POP POP SWAP3 SWAP2 POP POP JUMP JUMPDEST PUSH2 0x22BF DUP2 PUSH2 0x1F34 JUMP JUMPDEST DUP3 MSTORE POP POP JUMP JUMPDEST PUSH1 0x0 PUSH1 0x20 DUP3 ADD SWAP1 POP PUSH2 0x22DA PUSH1 0x0 DUP4 ADD DUP5 PUSH2 0x22B6 JUMP JUMPDEST SWAP3 SWAP2 POP POP JUMP JUMPDEST PUSH32 0x4E487B7100000000000000000000000000000000000000000000000000000000 PUSH1 0x0 MSTORE PUSH1 0x22 PUSH1 0x4 MSTORE PUSH1 0x24 PUSH1 0x0 REVERT JUMPDEST PUSH1 0x0 PUSH1 0x2 DUP3 DIV SWAP1 POP PUSH1 0x1 DUP3 AND DUP1 PUSH2 0x2327 JUMPI PUSH1 0x7F DUP3 AND SWAP2 POP JUMPDEST PUSH1 0x20 DUP3 LT DUP2 SUB PUSH2 0x233A JUMPI PUSH2 0x2339 PUSH2 0x22E0 JUMP JUMPDEST JUMPDEST POP SWAP2 SWAP1 POP JUMP JUMPDEST PUSH32 0x45524332303A20746F6B656E206973206E6F7420706175736564000000000000 PUSH1 0x0 DUP3 ADD MSTORE POP JUMP JUMPDEST PUSH1 0x0 PUSH2 0x2376 PUSH1 0x1A DUP4 PUSH2 0x204A JUMP JUMPDEST SWAP2 POP PUSH2 0x2381 DUP3 PUSH2 0x2340 JUMP JUMPDEST PUSH1 0x20 DUP3 ADD SWAP1 POP SWAP2 SWAP1 POP JUMP JUMPDEST PUSH1 0x0 PUSH1 0x20 DUP3 ADD SWAP1 POP DUP2 DUP2 SUB PUSH1 0x0 DUP4 ADD MSTORE PUSH2 0x23A5 DUP2 PUSH2 0x2369 JUMP JUMPDEST SWAP1 POP SWAP2 SWAP1 POP JUMP JUMPDEST PUSH32 0x45524332303A207472616E7366657220616D6F756E7420657863656564732061 PUSH1 0x0 DUP3 ADD MSTORE PUSH32 0x6C6C6F77616E6365000000000000000000000000000000000000000000000000 PUSH1 0x20 DUP3 ADD MSTORE POP JUMP JUMPDEST PUSH1 0x0 PUSH2 0x2408 PUSH1 0x28 DUP4 PUSH2 0x204A JUMP JUMPDEST SWAP2 POP PUSH2 0x2413 DUP3 PUSH2 0x23AC JUMP JUMPDEST PUSH1 0x40 DUP3 ADD SWAP1 POP SWAP2 SWAP1 POP JUMP JUMPDEST PUSH1 0x0 PUSH1 0x20 DUP3 ADD SWAP1 POP DUP2 DUP2 SUB PUSH1 0x0 DUP4 ADD MSTORE PUSH2 0x2437 DUP2 PUSH2 0x23FB JUMP JUMPDEST SWAP1 POP SWAP2 SWAP1 POP JUMP JUMPDEST PUSH32 0x4E487B7100000000000000000000000000000000000000000000000000000000 PUSH1 0x0 MSTORE PUSH1 0x11 PUSH1 0x4 MSTORE PUSH1 0x24 PUSH1 0x0 REVERT JUMPDEST PUSH1 0x0 PUSH2 0x2478 DUP3 PUSH2 0x1F9F JUMP JUMPDEST SWAP2 POP PUSH2 0x2483 DUP4 PUSH2 0x1F9F JUMP JUMPDEST SWAP3 POP DUP3 DUP3 ADD SWAP1 POP DUP1 DUP3 GT ISZERO PUSH2 0x249B JUMPI PUSH2 0x249A PUSH2 0x243E JUMP JUMPDEST JUMPDEST SWAP3 SWAP2 POP POP JUMP JUMPDEST PUSH32 0x45524332303A206F6E6C7920636F72706F726174696F6E2063616E2063616C6C PUSH1 0x0 DUP3 ADD MSTORE PUSH32 0x20746869732066756E6374696F6E000000000000000000000000000000000000 PUSH1 0x20 DUP3 ADD MSTORE POP JUMP JUMPDEST PUSH1 0x0 PUSH2 0x24FD PUSH1 0x2E DUP4 PUSH2 0x204A JUMP JUMPDEST SWAP2 POP PUSH2 0x2508 DUP3 PUSH2 0x24A1 JUMP JUMPDEST PUSH1 0x40 DUP3 ADD SWAP1 POP SWAP2 SWAP1 POP JUMP JUMPDEST PUSH1 0x0 PUSH1 0x20 DUP3 ADD SWAP1 POP DUP2 DUP2 SUB PUSH1 0x0 DUP4 ADD MSTORE PUSH2 0x252C DUP2 PUSH2 0x24F0 JUMP JUMPDEST SWAP1 POP SWAP2 SWAP1 POP JUMP JUMPDEST PUSH32 0x45524332303A206F6E6C7920636F72706F726174696F6E2063616E20756E7061 PUSH1 0x0 DUP3 ADD MSTORE PUSH32 0x7573650000000000000000000000000000000000000000000000000000000000 PUSH1 0x20 DUP3 ADD MSTORE POP JUMP JUMPDEST PUSH1 0x0 PUSH2 0x258F PUSH1 0x23 DUP4 PUSH2 0x204A JUMP JUMPDEST SWAP2 POP PUSH2 0x259A DUP3 PUSH2 0x2533 JUMP JUMPDEST PUSH1 0x40 DUP3 ADD SWAP1 POP SWAP2 SWAP1 POP JUMP JUMPDEST PUSH1 0x0 PUSH1 0x20 DUP3 ADD SWAP1 POP DUP2 DUP2 SUB PUSH1 0x0 DUP4 ADD MSTORE PUSH2 0x25BE DUP2 PUSH2 0x2582 JUMP JUMPDEST SWAP1 POP SWAP2 SWAP1 POP JUMP JUMPDEST PUSH32 0x41646472657373206E6F74206D61726B656420666F72207265636F7665727900 PUSH1 0x0 DUP3 ADD MSTORE POP JUMP JUMPDEST PUSH1 0x0 PUSH2 0x25FB PUSH1 0x1F DUP4 PUSH2 0x204A JUMP JUMPDEST SWAP2 POP PUSH2 0x2606 DUP3 PUSH2 0x25C5 JUMP JUMPDEST PUSH1 0x20 DUP3 ADD SWAP1 POP SWAP2 SWAP1 POP JUMP JUMPDEST PUSH1 0x0 PUSH1 0x20 DUP3 ADD SWAP1 POP DUP2 DUP2 SUB PUSH1 0x0 DUP4 ADD MSTORE PUSH2 0x262A DUP2 PUSH2 0x25EE JUMP JUMPDEST SWAP1 POP SWAP2 SWAP1 POP JUMP JUMPDEST PUSH32 0x41646472657373206E6F74207265676973746572656400000000000000000000 PUSH1 0x0 DUP3 ADD MSTORE POP JUMP JUMPDEST PUSH1 0x0 PUSH2 0x2667 PUSH1 0x16 DUP4 PUSH2 0x204A JUMP JUMPDEST SWAP2 POP PUSH2 0x2672 DUP3 PUSH2 0x2631 JUMP JUMPDEST PUSH1 0x20 DUP3 ADD SWAP1 POP SWAP2 SWAP1 POP JUMP JUMPDEST PUSH1 0x0 PUSH1 0x20 DUP3 ADD SWAP1 POP DUP2 DUP2 SUB PUSH1 0x0 DUP4 ADD MSTORE PUSH2 0x2696 DUP2 PUSH2 0x265A JUMP JUMPDEST SWAP1 POP SWAP2 SWAP1 POP JUMP JUMPDEST PUSH32 0x5265636F7665727920616C726561647920726571756573746564000000000000 PUSH1 0x0 DUP3 ADD MSTORE POP JUMP JUMPDEST PUSH1 0x0 PUSH2 0x26D3 PUSH1 0x1A DUP4 PUSH2 0x204A JUMP JUMPDEST SWAP2 POP PUSH2 0x26DE DUP3 PUSH2 0x269D JUMP JUMPDEST PUSH1 0x20 DUP3 ADD SWAP1 POP SWAP2 SWAP1 POP JUMP JUMPDEST PUSH1 0x0 PUSH1 0x20 DUP3 ADD SWAP1 POP DUP2 DUP2 SUB PUSH1 0x0 DUP4 ADD MSTORE PUSH2 0x2702 DUP2 PUSH2 0x26C6 JUMP JUMPDEST SWAP1 POP SWAP2 SWAP1 POP JUMP JUMPDEST PUSH32 0x45524332303A206F6E6C7920636F72706F726174696F6E2063616E2070617573 PUSH1 0x0 DUP3 ADD MSTORE PUSH32 0x6500000000000000000000000000000000000000000000000000000000000000 PUSH1 0x20 DUP3 ADD MSTORE POP JUMP JUMPDEST PUSH1 0x0 PUSH2 0x2765 PUSH1 0x21 DUP4 PUSH2 0x204A JUMP JUMPDEST SWAP2 POP PUSH2 0x2770 DUP3 PUSH2 0x2709 JUMP JUMPDEST PUSH1 0x40 DUP3 ADD SWAP1 POP SWAP2 SWAP1 POP JUMP JUMPDEST PUSH1 0x0 PUSH1 0x20 DUP3 ADD SWAP1 POP DUP2 DUP2 SUB PUSH1 0x0 DUP4 ADD MSTORE PUSH2 0x2794 DUP2 PUSH2 0x2758 JUMP JUMPDEST SWAP1 POP SWAP2 SWAP1 POP JUMP JUMPDEST PUSH32 0x4164647265737320616C72656164792072656769737465726564000000000000 PUSH1 0x0 DUP3 ADD MSTORE POP JUMP JUMPDEST PUSH1 0x0 PUSH2 0x27D1 PUSH1 0x1A DUP4 PUSH2 0x204A JUMP JUMPDEST SWAP2 POP PUSH2 0x27DC DUP3 PUSH2 0x279B JUMP JUMPDEST PUSH1 0x20 DUP3 ADD SWAP1 POP SWAP2 SWAP1 POP JUMP JUMPDEST PUSH1 0x0 PUSH1 0x20 DUP3 ADD SWAP1 POP DUP2 DUP2 SUB PUSH1 0x0 DUP4 ADD MSTORE PUSH2 0x2800 DUP2 PUSH2 0x27C4 JUMP JUMPDEST SWAP1 POP SWAP2 SWAP1 POP JUMP JUMPDEST PUSH1 0x0 PUSH1 0x20 DUP3 ADD SWAP1 POP PUSH2 0x281C PUSH1 0x0 DUP4 ADD DUP5 PUSH2 0x1FC2 JUMP JUMPDEST SWAP3 SWAP2 POP POP JUMP JUMPDEST PUSH32 0x45524332303A2064656372656173656420616C6C6F77616E63652062656C6F77 PUSH1 0x0 DUP3 ADD MSTORE PUSH32 0x207A65726F000000000000000000000000000000000000000000000000000000 PUSH1 0x20 DUP3 ADD MSTORE POP JUMP JUMPDEST PUSH1 0x0 PUSH2 0x287E PUSH1 0x25 DUP4 PUSH2 0x204A JUMP JUMPDEST SWAP2 POP PUSH2 0x2889 DUP3 PUSH2 0x2822 JUMP JUMPDEST PUSH1 0x40 DUP3 ADD SWAP1 POP SWAP2 SWAP1 POP JUMP JUMPDEST PUSH1 0x0 PUSH1 0x20 DUP3 ADD SWAP1 POP DUP2 DUP2 SUB PUSH1 0x0 DUP4 ADD MSTORE PUSH2 0x28AD DUP2 PUSH2 0x2871 JUMP JUMPDEST SWAP1 POP SWAP2 SWAP1 POP JUMP JUMPDEST PUSH32 0x546F6B656E2062616C616E6365206973206E6F7420656E6F7567680000000000 PUSH1 0x0 DUP3 ADD MSTORE POP JUMP JUMPDEST PUSH1 0x0 PUSH2 0x28EA PUSH1 0x1B DUP4 PUSH2 0x204A JUMP JUMPDEST SWAP2 POP PUSH2 0x28F5 DUP3 PUSH2 0x28B4 JUMP JUMPDEST PUSH1 0x20 DUP3 ADD SWAP1 POP SWAP2 SWAP1 POP JUMP JUMPDEST PUSH1 0x0 PUSH1 0x20 DUP3 ADD SWAP1 POP DUP2 DUP2 SUB PUSH1 0x0 DUP4 ADD MSTORE PUSH2 0x2919 DUP2 PUSH2 0x28DD JUMP JUMPDEST SWAP1 POP SWAP2 SWAP1 POP JUMP JUMPDEST PUSH32 0x4E487B7100000000000000000000000000000000000000000000000000000000 PUSH1 0x0 MSTORE PUSH1 0x12 PUSH1 0x4 MSTORE PUSH1 0x24 PUSH1 0x0 REVERT JUMPDEST PUSH1 0x0 PUSH2 0x295A DUP3 PUSH2 0x1F9F JUMP JUMPDEST SWAP2 POP PUSH2 0x2965 DUP4 PUSH2 0x1F9F JUMP JUMPDEST SWAP3 POP DUP3 PUSH2 0x2975 JUMPI PUSH2 0x2974 PUSH2 0x2920 JUMP JUMPDEST JUMPDEST DUP3 DUP3 DIV SWAP1 POP SWAP3 SWAP2 POP POP JUMP JUMPDEST PUSH1 0x0 PUSH2 0x298B DUP3 PUSH2 0x1F9F JUMP JUMPDEST SWAP2 POP PUSH2 0x2996 DUP4 PUSH2 0x1F9F JUMP JUMPDEST SWAP3 POP DUP3 PUSH2 0x29A6 JUMPI PUSH2 0x29A5 PUSH2 0x2920 JUMP JUMPDEST JUMPDEST DUP3 DUP3 MOD SWAP1 POP SWAP3 SWAP2 POP POP JUMP JUMPDEST PUSH1 0x0 PUSH2 0x29BC DUP3 PUSH2 0x1F9F JUMP JUMPDEST SWAP2 POP PUSH2 0x29C7 DUP4 PUSH2 0x1F9F JUMP JUMPDEST SWAP3 POP DUP3 DUP3 SUB SWAP1 POP DUP2 DUP2 GT ISZERO PUSH2 0x29DF JUMPI PUSH2 0x29DE PUSH2 0x243E JUMP JUMPDEST JUMPDEST SWAP3 SWAP2 POP POP JUMP JUMPDEST PUSH32 0x45524332303A20617070726F76652066726F6D20746865207A65726F20616464 PUSH1 0x0 DUP3 ADD MSTORE PUSH32 0x7265737300000000000000000000000000000000000000000000000000000000 PUSH1 0x20 DUP3 ADD MSTORE POP JUMP JUMPDEST PUSH1 0x0 PUSH2 0x2A41 PUSH1 0x24 DUP4 PUSH2 0x204A JUMP JUMPDEST SWAP2 POP PUSH2 0x2A4C DUP3 PUSH2 0x29E5 JUMP JUMPDEST PUSH1 0x40 DUP3 ADD SWAP1 POP SWAP2 SWAP1 POP JUMP JUMPDEST PUSH1 0x0 PUSH1 0x20 DUP3 ADD SWAP1 POP DUP2 DUP2 SUB PUSH1 0x0 DUP4 ADD MSTORE PUSH2 0x2A70 DUP2 PUSH2 0x2A34 JUMP JUMPDEST SWAP1 POP SWAP2 SWAP1 POP JUMP JUMPDEST PUSH32 0x45524332303A20617070726F766520746F20746865207A65726F206164647265 PUSH1 0x0 DUP3 ADD MSTORE PUSH32 0x7373000000000000000000000000000000000000000000000000000000000000 PUSH1 0x20 DUP3 ADD MSTORE POP JUMP JUMPDEST PUSH1 0x0 PUSH2 0x2AD3 PUSH1 0x22 DUP4 PUSH2 0x204A JUMP JUMPDEST SWAP2 POP PUSH2 0x2ADE DUP3 PUSH2 0x2A77 JUMP JUMPDEST PUSH1 0x40 DUP3 ADD SWAP1 POP SWAP2 SWAP1 POP JUMP JUMPDEST PUSH1 0x0 PUSH1 0x20 DUP3 ADD SWAP1 POP DUP2 DUP2 SUB PUSH1 0x0 DUP4 ADD MSTORE PUSH2 0x2B02 DUP2 PUSH2 0x2AC6 JUMP JUMPDEST SWAP1 POP SWAP2 SWAP1 POP JUMP JUMPDEST PUSH32 0x45524332303A207472616E736665722066726F6D20746865207A65726F206164 PUSH1 0x0 DUP3 ADD MSTORE PUSH32 0x6472657373000000000000000000000000000000000000000000000000000000 PUSH1 0x20 DUP3 ADD MSTORE POP JUMP JUMPDEST PUSH1 0x0 PUSH2 0x2B65 PUSH1 0x25 DUP4 PUSH2 0x204A JUMP JUMPDEST SWAP2 POP PUSH2 0x2B70 DUP3 PUSH2 0x2B09 JUMP JUMPDEST PUSH1 0x40 DUP3 ADD SWAP1 POP SWAP2 SWAP1 POP JUMP JUMPDEST PUSH1 0x0 PUSH1 0x20 DUP3 ADD SWAP1 POP DUP2 DUP2 SUB PUSH1 0x0 DUP4 ADD MSTORE PUSH2 0x2B94 DUP2 PUSH2 0x2B58 JUMP JUMPDEST SWAP1 POP SWAP2 SWAP1 POP JUMP JUMPDEST PUSH32 0x45524332303A207472616E7366657220746F20746865207A65726F2061646472 PUSH1 0x0 DUP3 ADD MSTORE PUSH32 0x6573730000000000000000000000000000000000000000000000000000000000 PUSH1 0x20 DUP3 ADD MSTORE POP JUMP JUMPDEST PUSH1 0x0 PUSH2 0x2BF7 PUSH1 0x23 DUP4 PUSH2 0x204A JUMP JUMPDEST SWAP2 POP PUSH2 0x2C02 DUP3 PUSH2 0x2B9B JUMP JUMPDEST PUSH1 0x40 DUP3 ADD SWAP1 POP SWAP2 SWAP1 POP JUMP JUMPDEST PUSH1 0x0 PUSH1 0x20 DUP3 ADD SWAP1 POP DUP2 DUP2 SUB PUSH1 0x0 DUP4 ADD MSTORE PUSH2 0x2C26 DUP2 PUSH2 0x2BEA JUMP JUMPDEST SWAP1 POP SWAP2 SWAP1 POP JUMP JUMPDEST PUSH32 0x45524332303A207472616E7366657220616D6F756E7420657863656564732062 PUSH1 0x0 DUP3 ADD MSTORE PUSH32 0x616C616E63650000000000000000000000000000000000000000000000000000 PUSH1 0x20 DUP3 ADD MSTORE POP JUMP JUMPDEST PUSH1 0x0 PUSH2 0x2C89 PUSH1 0x26 DUP4 PUSH2 0x204A JUMP JUMPDEST SWAP2 POP PUSH2 0x2C94 DUP3 PUSH2 0x2C2D JUMP JUMPDEST PUSH1 0x40 DUP3 ADD SWAP1 POP SWAP2 SWAP1 POP JUMP JUMPDEST PUSH1 0x0 PUSH1 0x20 DUP3 ADD SWAP1 POP DUP2 DUP2 SUB PUSH1 0x0 DUP4 ADD MSTORE PUSH2 0x2CB8 DUP2 PUSH2 0x2C7C JUMP JUMPDEST SWAP1 POP SWAP2 SWAP1 POP JUMP INVALID LOG2 PUSH5 0x6970667358 0x22 SLT KECCAK256 SWAP3 0xD1 PUSH30 0x656916BD1A44980592C67651ADC81D3633970C3C81B78D1261F16CB3FC64 PUSH20 0x6F6C634300081200330000000000000000000000 "
				},
				"gasEstimates": {
					"creation": {
						"codeDepositCost": "2301800",
						"executionCost": "infinite",
						"totalCost": "infinite"
					},
					"external": {
						"allowance(address,address)": "infinite",
						"approve(address,uint256)": "infinite",
						"askForRecovery(address)": "30501",
						"balanceOf(address)": "2914",
						"corporation()": "2646",
						"decimals()": "366",
						"decreaseAllowance(address,uint256)": "infinite",
						"fractionalShareBalanceOf(address)": "2935",
						"increaseAllowance(address,uint256)": "infinite",
						"name()": "infinite",
						"pause()": "30993",
						"paused()": "2582",
						"recover(address,address)": "infinite",
						"registerHash(bytes32)": "infinite",
						"registry(address)": "infinite",
						"shareBalanceOf(address)": "2936",
						"symbol()": "infinite",
						"totalSupply()": "2527",
						"transfer(address,uint256)": "infinite",
						"transferFrom(address,address,uint256)": "infinite",
						"unpause()": "28818"
					},
					"internal": {
						"_approve(address,address,uint256)": "infinite",
						"_beforeTokenTransfer(address,address,uint256)": "infinite",
						"_burn(address,uint256)": "infinite",
						"_mint(address,uint256)": "infinite",
						"_transfer(address,address,uint256)": "infinite"
					}
				},
				"methodIdentifiers": {
					"allowance(address,address)": "dd62ed3e",
					"approve(address,uint256)": "095ea7b3",
					"askForRecovery(address)": "6e6ce65f",
					"balanceOf(address)": "70a08231",
					"corporation()": "e25c4cf5",
					"decimals()": "313ce567",
					"decreaseAllowance(address,uint256)": "a457c2d7",
					"fractionalShareBalanceOf(address)": "bd6f529e",
					"increaseAllowance(address,uint256)": "39509351",
					"name()": "06fdde03",
					"pause()": "8456cb59",
					"paused()": "5c975abb",
					"recover(address,address)": "648bf774",
					"registerHash(bytes32)": "8f1de16e",
					"registry(address)": "038defd7",
					"shareBalanceOf(address)": "4473ad52",
					"symbol()": "95d89b41",
					"totalSupply()": "18160ddd",
					"transfer(address,uint256)": "a9059cbb",
					"transferFrom(address,address,uint256)": "23b872dd",
					"unpause()": "3f4ba83a"
				}
			},
			"storageLayout": {
				"storage": [
					{
						"astId": 17,
						"contract": "contract/new_contract.sol:ERC20",
						"label": "registry",
						"offset": 0,
						"slot": "0",
						"type": "t_mapping(t_address,t_struct(Data)12_storage)"
					},
					{
						"astId": 23,
						"contract": "contract/new_contract.sol:ERC20",
						"label": "_allowances",
						"offset": 0,
						"slot": "1",
						"type": "t_mapping(t_address,t_mapping(t_address,t_uint256))"
					},
					{
						"astId": 25,
						"contract": "contract/new_contract.sol:ERC20",
						"label": "_totalSupply",
						"offset": 0,
						"slot": "2",
						"type": "t_uint256"
					},
					{
						"astId": 27,
						"contract": "contract/new_contract.sol:ERC20",
						"label": "paused",
						"offset": 0,
						"slot": "3",
						"type": "t_bool"
					},
					{
						"astId": 29,
						"contract": "contract/new_contract.sol:ERC20",
						"label": "_name",
						"offset": 0,
						"slot": "4",
						"type": "t_string_storage"
					},
					{
						"astId": 31,
						"contract": "contract/new_contract.sol:ERC20",
						"label": "_symbol",
						"offset": 0,
						"slot": "5",
						"type": "t_string_storage"
					},
					{
						"astId": 33,
						"contract": "contract/new_contract.sol:ERC20",
						"label": "corporation",
						"offset": 0,
						"slot": "6",
						"type": "t_address"
					}
				],
				"types": {
					"t_address": {
						"encoding": "inplace",
						"label": "address",
						"numberOfBytes": "20"
					},
					"t_bool": {
						"encoding": "inplace",
						"label": "bool",
						"numberOfBytes": "1"
					},
					"t_bytes32": {
						"encoding": "inplace",
						"label": "bytes32",
						"numberOfBytes": "32"
					},
					"t_mapping(t_address,t_mapping(t_address,t_uint256))": {
						"encoding": "mapping",
						"key": "t_address",
						"label": "mapping(address => mapping(address => uint256))",
						"numberOfBytes": "32",
						"value": "t_mapping(t_address,t_uint256)"
					},
					"t_mapping(t_address,t_struct(Data)12_storage)": {
						"encoding": "mapping",
						"key": "t_address",
						"label": "mapping(address => struct ERC20.Data)",
						"numberOfBytes": "32",
						"value": "t_struct(Data)12_storage"
					},
					"t_mapping(t_address,t_uint256)": {
						"encoding": "mapping",
						"key": "t_address",
						"label": "mapping(address => uint256)",
						"numberOfBytes": "32",
						"value": "t_uint256"
					},
					"t_string_storage": {
						"encoding": "bytes",
						"label": "string",
						"numberOfBytes": "32"
					},
					"t_struct(Data)12_storage": {
						"encoding": "inplace",
						"label": "struct ERC20.Data",
						"members": [
							{
								"astId": 3,
								"contract": "contract/new_contract.sol:ERC20",
								"label": "tokenBalance",
								"offset": 0,
								"slot": "0",
								"type": "t_uint256"
							},
							{
								"astId": 5,
								"contract": "contract/new_contract.sol:ERC20",
								"label": "shareBalance",
								"offset": 0,
								"slot": "1",
								"type": "t_uint256"
							},
							{
								"astId": 7,
								"contract": "contract/new_contract.sol:ERC20",
								"label": "fractionalPartOfTokenBalance",
								"offset": 0,
								"slot": "2",
								"type": "t_uint256"
							},
							{
								"astId": 9,
								"contract": "contract/new_contract.sol:ERC20",
								"label": "registrationHash",
								"offset": 0,
								"slot": "3",
								"type": "t_bytes32"
							},
							{
								"astId": 11,
								"contract": "contract/new_contract.sol:ERC20",
								"label": "recoverable",
								"offset": 0,
								"slot": "4",
								"type": "t_bool"
							}
						],
						"numberOfBytes": "160"
					},
					"t_uint256": {
						"encoding": "inplace",
						"label": "uint256",
						"numberOfBytes": "32"
					}
				}
			},
			"userdoc": {
				"kind": "user",
				"methods": {},
				"version": 1
			}
		}
	}
}